:020000040800F2
:10D00000FFFF0020ADF7000801F8000801F8000854
:10D0100001F8000801F8000801F80008000000000D
:10D0200000000000000000000000000001F80008FF
:10D0300001F800080000000001F8000801F80008ED
:10D0400001F8000801F8000801F8000801F80008DC
:10D0500001F8000801F8000801F8000801F80008CC
:10D0600001F8000801F8000801F8000801F80008BC
:10D0700001F8000801F8000801F8000801F80008AC
:10D0800001F8000801F8000801F8000801F800089C
:10D0900001F8000801F8000801F8000801F800088C
:10D0A00001F8000801F8000801F8000801F800087C
:10D0B00001F80008000000000000000001F800086E
:10D0C00001F8000801F8000801F8000801F800085C
:10D0D00001F8000801F80008C9EE000801F800088E
:10D0E00001F8000801F8000800000000000000003E
:10D0F0000000000000000000000000000000000030
:10D100000000000001F800080000000001F800081D
:10D11000000000000000000001F8000801F800080D
:10D1200001F8000801F8000801F8000801F80008FB
:10D1300001F80008000000000000000000000000EE
:10D1400001F8000801F8000801F8000800000000DC
:10D1500001F8000801F8000801F8000801F80008CB
:10D1600001F8000801F8000801F8000800000000BC
:10D1700001F8000801F800080000000000000000AD
:10D1800001F8000801F8000801F80008000000009C
:10D8000010B5054C237833B9044B13B10448AFF37A
:10D8100000800123237010BD303000200000000084
:10D8200078F8000808B5034B1BB103490348AFF370
:10D83000008008BD000000003430002078F80008A7
:10D84000034613F8012B002AFBD1181A0138704740
:10D8500081F0004102E000BF83F0004330B54FEAA1
:10D8600041044FEA430594EA050F08BF90EA020F0E
:10D870001FBF54EA000C55EA020C7FEA645C7FEAA1
:10D88000655C00F0E2804FEA5454D4EB5555B8BFC4
:10D890006D420CDD2C4480EA020281EA030382EA35
:10D8A000000083EA010180EA020281EA0303362DC7
:10D8B00088BF30BD11F0004F4FEA01314FF4801C9A
:10D8C0004CEA113102D0404261EB410113F0004FAC
:10D8D0004FEA03334CEA133302D0524263EB430363
:10D8E00094EA050F00F0A780A4F10104D5F1200E01
:10D8F0000DDB02FA0EFC22FA05F2801841F100015C
:10D9000003FA0EF2801843FA05F359410EE0A5F12F
:10D9100020050EF1200E012A03FA0EFC28BF4CF060
:10D92000020C43FA05F3C01851EBE37101F0004516
:10D9300007D54FF0000EDCF1000C7EEB00006EEB23
:10D940000101B1F5801F1BD3B1F5001F0CD34908AD
:10D950005FEA30004FEA3C0C04F101044FEA445204
:10D9600012F5800F80F09A80BCF1004F08BF5FEA8B
:10D97000500C50F1000041EB045141EA050130BD6B
:10D980005FEA4C0C404141EB010111F4801FA4F10E
:10D990000104E9D191F0000F04BF01460020B1FA63
:10D9A00081F308BF2033A3F10B03B3F120020CDA9B
:10D9B0000C3208DD02F1140CC2F10C0201FA0CF079
:10D9C00021FA02F10CE002F11402D8BFC2F1200CDE
:10D9D00001FA02F120FA0CFCDCBF41EA0C01904094
:10D9E000E41AA2BF01EB0451294330BD6FEA0404DD
:10D9F0001F3C1CDA0C340EDC04F11404C4F12002C8
:10DA000020FA04F001FA02F340EA030021FA04F3D9
:10DA100045EA030130BDC4F10C04C4F1200220FA30
:10DA200002F001FA04F340EA0300294630BD21FA6E
:10DA300004F0294630BD94F0000F83F4801306BF34
:10DA400081F480110134013D4EE77FEA645C18BF28
:10DA50007FEA655C29D094EA050F08BF90EA020FBF
:10DA600005D054EA000C04BF1946104630BD91EAB7
:10DA7000030F1EBF0021002030BD5FEA545C05D1BA
:10DA80004000494128BF41F0004130BD14F58004F9
:10DA90003CBF01F5801130BD01F0004545F0FE416D
:10DAA00041F470014FF0000030BD7FEA645C1ABFA2
:10DAB000194610467FEA655C1CBF0B46024650EAD9
:10DAC000013406BF52EA033591EA030F41F4002105
:10DAD00030BD00BF90F0000F04BF0021704730B58B
:10DAE0004FF4806404F132044FF000054FF0000160
:10DAF00050E700BF90F0000F04BF0021704730B521
:10DB00004FF4806404F1320410F0004548BF4042F5
:10DB10004FF000013EE700BF42004FEAE2014FEA4A
:10DB200031014FEA02701FBF12F07F4393F07F4F25
:10DB300081F06051704732F07F4208BF704793F028
:10DB40007F4F04BF41F40021704730B54FF460743B
:10DB500001F0004521F000411CE700BF50EA01023E
:10DB600008BF704730B54FF000050AE050EA0102E7
:10DB700008BF704730B511F0004502D5404261EB57
:10DB800041014FF4806404F132045FEA915C3FF498
:10DB9000D8AE4FF003025FEADC0C18BF03325FEA35
:10DBA000DC0C18BF033202EBDC02C2F1200300FAE6
:10DBB00003FC20FA02F001FA03FE40EA0E0021FA0B
:10DBC00002F11444BDE600BF70B54FF0FF0C4CF4F9
:10DBD000E06C1CEA11541DBF1CEA135594EA0C0FAB
:10DBE00095EA0C0F00F0DEF82C4481EA030621EAE6
:10DBF0004C5123EA4C5350EA013518BF52EA033521
:10DC000041F4801143F4801338D0A0FB02CE4FF0D2
:10DC10000005E1FB02E506F00042E0FB03E54FF002
:10DC20000006E1FB03569CF0000F18BF4EF0010EFA
:10DC3000A4F1FF04B6F5007F64F5407404D25FEAF6
:10DC40004E0E6D4146EB060642EAC62141EA5551A9
:10DC50004FEAC52040EA5E504FEACE2EB4F1FD0CEB
:10DC600088BFBCF5E06F1ED8BEF1004F08BF5FEA69
:10DC7000500E50F1000041EB045170BD06F000461B
:10DC800046EA010140EA020081EA0301B4EB5C04C8
:10DC9000C2BFD4EB0C0541EA045170BD41F48011C0
:10DCA0004FF0000E013C00F3AB8014F1360FDEBFE5
:10DCB000002001F0004170BDC4F10004203C35DAC1
:10DCC0000C341BDC04F11404C4F1200500FA05F344
:10DCD00020FA04F001FA05F240EA020001F00042E5
:10DCE00021F0004110EBD37021FA04F642EB06015B
:10DCF0005EEA430E08BF20EAD37070BDC4F10C0485
:10DD0000C4F1200500FA04F320FA05F001FA04F248
:10DD100040EA020001F0004110EBD37041F1000134
:10DD20005EEA430E08BF20EAD37070BDC4F120053F
:10DD300000FA05F24EEA020E20FA04F301FA05F2A7
:10DD400043EA020321FA04F001F0004121FA04F24F
:10DD500020EA020000EBD3705EEA430E08BF20EA1F
:10DD6000D37070BD94F0000F0FD101F00046400059
:10DD700041EB010111F4801F08BF013CF7D041EADB
:10DD8000060195F0000F18BF704703F000465200DF
:10DD900043EB030313F4801F08BF013DF7D043EAB0
:10DDA0000603704794EA0C0F0CEA135518BF95EA66
:10DDB0000C0F0CD050EA410618BF52EA4306D1D1ED
:10DDC00081EA030101F000414FF0000070BD50EA0C
:10DDD000410606BF1046194652EA430619D094EA96
:10DDE0000C0F02D150EA013613D195EA0C0F05D180
:10DDF00052EA03361CBF104619460AD181EA0301D4
:10DE000001F0004141F0FE4141F470014FF000008B
:10DE100070BD41F0FE4141F4780170BD70B54FF026
:10DE2000FF0C4CF4E06C1CEA11541DBF1CEA1355A6
:10DE300094EA0C0F95EA0C0F00F0A7F8A4EB050488
:10DE400081EA030E52EA03354FEA013100F088807F
:10DE50004FEA03334FF0805545EA131343EA126348
:10DE60004FEA022245EA111545EA10654FEA0026FD
:10DE70000EF000419D4208BF964244F1FD0404F5B6
:10DE8000407402D25B084FEA3202B61A65EB030512
:10DE90005B084FEA32024FF480104FF4002CB6EBCF
:10DEA000020E75EB030E22BFB61A754640EA0C004F
:10DEB0005B084FEA3202B6EB020E75EB030E22BF8F
:10DEC000B61A754640EA5C005B084FEA3202B6EBD0
:10DED000020E75EB030E22BFB61A754640EA9C008F
:10DEE0005B084FEA3202B6EB020E75EB030E22BF5F
:10DEF000B61A754640EADC0055EA060E18D04FEA1D
:10DF0000051545EA16754FEA06164FEAC30343EABC
:10DF100052734FEAC2025FEA1C1CC0D111F4801F89
:10DF20000BD141EA00014FF000004FF0004CB6E782
:10DF300011F4801F04BF01430020B4F1FD0C88BF21
:10DF4000BCF5E06F3FF6AFAEB5EB030C04BFB6EB2C
:10DF5000020C5FEA500C50F1000041EB045170BD1F
:10DF60000EF0004E4EEA113114EB5C04C2BFD4EB4C
:10DF70000C0541EA045170BD41F480114FF0000ED0
:10DF8000013C90E645EA060E8DE60CEA135594EA4C
:10DF90000C0F08BF95EA0C0F3FF43BAF94EA0C0F4F
:10DFA0000AD150EA01347FF434AF95EA0C0F7FF4C4
:10DFB00025AF104619462CE795EA0C0F06D152EA18
:10DFC00003353FF4FDAE1046194622E750EA4106FC
:10DFD00018BF52EA43067FF4C5AE50EA41047FF40D
:10DFE0000DAF52EA43057FF4EBAE12E74FF0FF3C72
:10DFF00006E000BF4FF0010C02E000BF4FF0010C43
:10E000004DF804CD4FEA410C7FEA6C5C4FEA430CBB
:10E0100018BF7FEA6C5C1BD001B050EA410C0CBF0A
:10E0200052EA430C91EA030F02BF90EA020F00206C
:10E03000704710F1000F91EA030F58BF994208BFD3
:10E0400090422CBFD8176FEAE37040F00100704790
:10E050004FEA410C7FEA6C5C02D150EA013C07D1E7
:10E060004FEA430C7FEA6C5CD6D152EA033CD3D032
:10E070005DF8040B704700BF8446104662468C462C
:10E080001946634600E000BF01B5FFF7B7FF00285F
:10E0900048BF10F1000F01BD4DF808EDFFF7F4FF88
:10E0A0000CBF012000205DF808FB00BF4DF808ED13
:10E0B000FFF7EAFF34BF012000205DF808FB00BF36
:10E0C0004DF808EDFFF7E0FF94BF012000205DF858
:10E0D00008FB00BF4DF808EDFFF7CEFF94BF01200D
:10E0E00000205DF808FB00BF4DF808EDFFF7C4FF06
:10E0F00034BF012000205DF808FB00BF4A0011D2A8
:10E1000012F5001211D20DD56FF47873B3EB625291
:10E110000ED44FEAC12343F0004343EA505323FA9D
:10E1200002F070474FF00000704750EA013002D112
:10E130004FF0FF3070474FF00000704753B94AB9B5
:10E14000002908BF00281CBF4FF0FF314FF0FF30FF
:10E1500000F094B9ADF1080C6DE904CE00F028F898
:10E16000DDF804E0DDE9022304B07047D0B50022F9
:10E170000D4B06460F46FFF727FDFFF7BFFF04468E
:10E18000FFF7A8FC0022094BFFF71EFD02460B46D5
:10E1900030463946FFF760FBFFF7B0FF0022234609
:10E1A00010431946D0BD00BF0000F03D0000F04113
:10E1B0002DE9F047089E04468846002B4BD18A4241
:10E1C000154667D9B2FA82F24AB1C2F1200701FAC4
:10E1D00002F320FA07F7954047EA030894404FEA14
:10E1E000154E230CB8FBFEF71FFA85FC0EFB1788B3
:10E1F00043EA084307FB0CF1994209D9EB1807F1F0
:10E20000FF3080F01B81994240F21881023F2B447D
:10E210005B1AA4B2B3FBFEF00EFB103344EA0344D6
:10E2200000FB0CFCA44509D92C1900F1FF3380F048
:10E230000781A44540F2048102382C4440EA07409B
:10E24000A4EB0C0400271EB1D4400023C6E9004310
:10E250003946BDE8F0878B4209D9002E00F0EB80EB
:10E260000027C6E9000138463946BDE8F087B3FA11
:10E2700083F7002F47D18B4202D3824200F2FA800B
:10E28000841A61EB030301209846002EE0D0C6E912
:10E290000048DDE702B9FFDEB2FA82F2002A40F060
:10E2A0008F80491B4FEA154E1FFA85F80127B1FBF5
:10E2B000FEFC230C0EFB1C1143EA014308FB0CF18E
:10E2C000994207D9EB180CF1FF3002D2994200F2C3
:10E2D000CD808446591AA3B2B1FBFEF00EFB101498
:10E2E00043EA044408FB00F8A04507D92C1900F1C3
:10E2F000FF3302D2A04500F2B6801846A4EB080412
:10E3000040EA0C409FE7C7F1200CBB4022FA0CFE0C
:10E310004EEA030E01FA07F420FA0CF521FA0CF389
:10E320004FEA1E482543B3FBF8F92C0C08FB1933C0
:10E330001FFA8EFA44EA034309FB0AF49C4202FAEC
:10E3400007F200FA07F10BD91EEB030309F1FF30C6
:10E3500080F087809C4240F28480A9F102097344D6
:10E360001B1BADB2B3FBF8F008FB103345EA0344C6
:10E3700000FB0AFAA24508D91EEB040400F1FF33A2
:10E380006BD2A24569D90238744440EA0940A0FB27
:10E390000289A4EB0A044C45C2464B4654D351D0E3
:10E3A000002E69D0B1EB0A0564EB030404FA0CFCFF
:10E3B000FD40FC404CEA0505C6E90054002747E74C
:10E3C000C2F1200320FA03F7954001FA02F021FA86
:10E3D00003F34FEA154E3843010CB3FBFEF71FFA67
:10E3E00085F80EFB173341EA034107FB08F38B4224
:10E3F00004FA02F407D9691807F1FF3C2FD28B42C7
:10E400002DD9023F2944CB1A81B2B3FBFEF00EFB9B
:10E41000103341EA034100FB08F38B4207D9691826
:10E4200000F1FF3C17D28B4215D902382944C91A92
:10E4300040EA07473BE73746304609E70746E7E645
:10E440001846FBE64145ABD2B8EB020A69EB0E0277
:10E4500001381346A4E76046E9E7184695E76746A2
:10E46000D1E781467CE702382C4447E7ACF1020C47
:10E470002B442FE7384608E73746E9E6704700BFE8
:10E4800000B585B003E0114BDA78DA78DB78104B11
:10E490001B68D3F8A8400F4B186803AB00934FF0EC
:10E4A000FF3306220221A047039B022BEFD1074B2B
:10E4B000DB78DBB2902BE6D1054B1B68D3F8AC3090
:10E4C0000821044A10689847DDE700BF5430002057
:10E4D000543800204C30002000B585B0164801F0BB
:10E4E00051F9012211464FF4847000F031FA1349BA
:10E4F000022000F0ADFB124B1B68D3F8A840114B73
:10E50000186803AB00934FF0FF3306220421A047A5
:10E51000039B042BEBD10C49022000F099FB4FF434
:10E52000847000F04DFA064B1B68D3F8AC3008211C
:10E53000044A10689847DAE790F80008A8F800083D
:10E54000543800204C300020CCF8000882B0234B17
:10E550009B6D13F0805F15D0214B1B6803F4C063E3
:10E56000B3F5007F21D000211E4A136823F0070372
:10E570000B431360136803F007038B421FD0002086
:10E5800002B07047154A936D43F080539365936DC5
:10E5900003F080530193019B114B1B6803F4C0638C
:10E5A000916D21F080519165DAE7802803D9A02888
:10E5B00003D90221D8E70021D6E70121D4E7A2F54B
:10E5C0008052136843F008031360136823F0F003CC
:10E5D00043F0B00313600120D2E700BF00100240F7
:10E5E000007000400020024010B5114CD4F8883073
:10E5F00043F47003C4F888300E4B1A6842F00102ED
:10E600001A60002199601A6822F0A85222F41022A0
:10E610001A604FF48052DA601A6822F480221A607D
:10E620009961B020FFF792FF4FF00063A36010BD27
:10E6300000ED00E00010024000B585B01B4801F07D
:10E64000A1F80022012140F2091000F081F9184BD5
:10E650001B68D3F8A840174B186803AB00934FF022
:10E66000FF3306220821A047039B082BEFD1124954
:10E67000022000F0EDFA1149022000F0E9FA0C4CFA
:10E680002368D3F8AC3004210A4A106898470C4933
:10E69000022000F0DDFA40F2091000F091F9236841
:10E6A000D3F8943042F210709847D0E7F4F800089D
:10E6B000543800204C30002014F900082CF90008D0
:10E6C0004CF9000808B5044B1B68D3F888300348A0
:10E6D0009847002008BD00BF5438002045ED0008D1
:10E6E000144B1B6913F4803FFAD1124B1A6922F0C4
:10E6F0007F421A615A6922F001025A615A6942F056
:10E7000002025A615A6922F47E725A615A6942EAD7
:10E71000C00058615A6942F480325A61054B1B6946
:10E7200013F4803FFAD1034A536923F00203536183
:10E73000002070470020024008B501F5803102EB4F
:10E74000C1211A4601F084F808BD08B501F080F82F
:10E7500008BDB0B500AF0C46CB1DDB086A46A2EB86
:10E76000C3039D466D4600F580312246C9026846C6
:10E7700001F06EF80023A34205D2EA5CFF2A05D11E
:10E7800001339BB2F7E70120BD46B0BD0020FBE797
:10E7900010B40C4B1B6813F4806F04D0094C236831
:10E7A00023F480632360074B5C6944F001045C61DF
:10E7B000016042605A6922F001025A6100205DF84E
:10E7C000044B704700200240F8B517461D46184B11
:10E7D0001B6913F4803FFAD100F5803001EBC026AD
:10E7E00000241BE0285D2B19597840EA0120997814
:10E7F00040EA0140D9781A7993F805C042EA0C2220
:10E8000093F806C042EA0C42DB7942EA036240EA2E
:10E810000161A019FFF7BCFF0834A4B2BC42E1D3E8
:10E82000034B1B6913F4803FFAD10020F8BD00BFF1
:10E83000002002402DE9F041ADF5006D0746144679
:10E840001D46224A136923F07F4313616318B3F511
:10E85000006F09DC0E464FF4006300220146684653
:10E86000FFF76AFF00231BE08846C1F500622B46D4
:10E8700092B2FFF7DFFF08EB040292B2C8F5006323
:10E88000A2F50062781C2B4492B2002180B2FFF7FF
:10E89000D1FF11E09A19E95C0DF8021001339BB227
:10E8A000A342F7D33846FFF71BFF6B464FF40062D5
:10E8B00000213846FFF788FF044B1B6913F4803FA3
:10E8C000FAD100200DF5006DBDE8F0810020024076
:10E8D00010B50346C0F3CF209BB2C402A4B21C1BE8
:10E8E00013460A46A1B2FFF7A5FF034B1B6913F4B9
:10E8F000803FFAD1002010BD00200240030A0B70B7
:10E900001070704710B582B00C460DF106020DF183
:10E910000701FFF7F3FF9DF80730072B0BD00B4AD9
:10E9200052F82320012C0BD09DF8061001238B40B8
:10E93000936202B010BD023B044A52F82320F1E773
:10E940009DF8061001238B409361F2E7043000200C
:10E95000F0B583B005460C4616460DF106020DF1E2
:10E960000701FFF7CBFF9DF80710072915D0124BC1
:10E9700053F82100114FFB6C01228A401343FB64C2
:10E9800001689DF806305B0003229A4021EA0202EA
:10E99000012C07D0026003B0F0BD8B1E064A52F86E
:10E9A0002300E7E7012101FA03F31A43026031462D
:10E9B0002846FFF7A7FFEEE70430002000100240D2
:10E9C00000B583B00DF106020DF10701FFF796FFC8
:10E9D0009DF80730072B0DD00A4A52F823205169C1
:10E9E0009DF8060001238340194208D1936103B0CA
:10E9F0005DF804FB023B034A52F82320EFE79362E1
:10EA0000F5E700BF0430002000B5ADF6040D182175
:10EA10007F20FFF79EFE00282DD14FF40062194998
:10EA20006846FFF792FE379A174B1B689A4214D03C
:10EA30001A20FFF755FE144B1B683793134B1B68C6
:10EA40000B93134B1B680E93124B1B680F936A4674
:10EA50004FF400610B48FFF73BFF0F4B094A9A60E8
:10EA60000E4BA2F560521A600D4800F08BFE0DF6B9
:10EA7000040D5DF804FB0B4A18210B48FFF728FF33
:10EA8000CBE700BF00D00008DC0000082C00000825
:10EA9000380000083C00000800ED00E05438002079
:10EAA00080F9000864F9000800F803080138C0B2D2
:10EAB000022801D8012070470020704738B504466D
:10EAC0000D46FFF7F3FF00283CD0022C57D0032C53
:10EAD00071D0012C37D0601E474B53F820100A68C4
:10EAE00022F001020A6053F820100A6822F00C029A
:10EAF0000A6053F820301A6812F4004F76D03F4A6B
:10EB00001168B1FBF5F189B2490089B2D9603A4B7D
:10EB100053F820200021D161516821F490415160C7
:10EB200053F820108A6822F02A028A6053F82010D5
:10EB30000A6842F00C020A6053F82020136843F080
:10EB40000103136038BD2E4B1A6E42F480421A66E0
:10EB5000DA6C42F00102DA644FF090431A6822F452
:10EB600070121A601A6842F420121A605A6A22F46B
:10EB70007F625A625A6A42F4EE625A62ABE7204BF5
:10EB80009A6D42F400329A65DA6C42F00102DA645E
:10EB90004FF090431A6822F0F0021A601A6842F0AF
:10EBA000A0021A601A6A22F47F421A621A6A42F4B8
:10EBB000EE421A628FE7124B9A6D42F480229A65F8
:10EBC000DA6C42F00402DA640E4B1A6822F4700226
:10EBD0001A601A6842F420021A605A6A22F47F42CC
:10EBE0005A625A6A42F4EE425A6274E7034A116862
:10EBF000B1FBF5F189B289E71C300020003000201C
:10EC0000001002400008004838B504460D46FFF7E2
:10EC10004DFF0346A8B100224FF6BA339A420BD8F3
:10EC2000631E0A4951F82330D96911F0800F01D1D0
:10EC30000132F1E7ADB21D854FF6BA339A4202D8E0
:10EC40000123184638BD0023FBE700BF1C3000201D
:10EC500070B506460D46FFF729FF034658B100245C
:10EC6000295D39B13046FFF7CFFF034618B10134B3
:10EC7000A4B2F5E70123184670BD000070B5044644
:10EC80000D46FFF713FF064670B100224FF6BA3368
:10EC90009A4211D8631E0C4951F82330D96911F0FA
:10ECA000200F05D10132F1E700232B70304670BDF3
:10ECB0009E8CF6B201232B704FF6BA339A42F5D9E7
:10ECC00000232B70FF26F1E71C30002010B504460E
:10ECD000FFF7ECFE98B1601E094B53F82020136833
:10ECE00043F020031360074B1B56002B07DB03F098
:10ECF0001F015B0901228A40034941F8232010BD0E
:10ED00001C3000202830002000E100E010B504464F
:10ED1000FFF7CCFE034670B1013C094B53F8243099
:10ED2000DA6912F0200F05D01B6813F0200F04D110
:10ED3000002300E00023184610BD0123FBE700BFBD
:10ED40001C3000202DE9F04182B072B6344800F04A
:10ED500019FD012211464FF48470FFF7F9FD0122DD
:10ED6000114640F20910FFF7F3FD4FF4E1310220A4
:10ED7000FFF7A4FE0220FFF7A9FF62B6294800F0C2
:10ED800001FD294800F0FEFC284800F0FBFC284863
:10ED900000F0F8FC274800F0F5FC274800F0F2FCF2
:10EDA000264C2368D3F8A430012125489847254BE9
:10EDB00018602368D3F88C600A25019500954FF4FC
:10EDC0000073002220492148B04780462368D3F8C9
:10EDD0008C70019500954FF4007300221C491D486A
:10EDE000B84707462368D3F88C60019500954FF427
:10EDF0000073002218491948B04705462368D3F824
:10EE00009030384698472368D3F890302846984782
:10EE10002368D3F890304046984702B0BDE8F081AF
:10EE2000ACF90008E0F9000814FA00085CFA0008E0
:10EE300090FA0008C0FA00080CFB000854380020C3
:10EE40001CFB00084C30002081E4000828FB00086F
:10EE5000D9E4000834FB000839E6000840FB00084C
:10EE6000174B1B88012B12D0022B19D010B45A1C3F
:10EE700092B2134C2280013BC854042A13D08B78E1
:10EE800004339A4213D000205DF8044B7047A52844
:10EE9000EAD001230A4A13800A4A138000207047EF
:10EEA0005A28F6D1E2E78878064B1880E7E7012276
:10EEB000034B1A80034B1888033080B21A80E3E7B3
:10EEC0002C3000202E30002000B583B072B6022016
:10EED000FFF71CFF18B962B603B05DF804FB0DF133
:10EEE00007010220FFF7CAFE9DF80730002BF2D081
:10EEF0000A49FFF7B5FF0A4B18801B889BB2002B0D
:10EF0000E9D0084B1B68D3F8AC300221064A1068E0
:10EF10009847034B00221A80DDE700BF54300020E1
:10EF200050300020543800204C30002010B50C46E2
:10EF30001368012B05D0022B07D02368013323600F
:10EF400010BD5368C0B29847F7E79368187093688C
:10EF500001339360F1E730B4441C00250570B2B171
:10EF6000096809B1002009E030234370012024E042
:10EF7000C1F130012170013001341146E9B191FB3A
:10EF8000F3F203FB12110029F2DB3031F2E71546F0
:10EF90000A6842B93023437001200EE037322270F4
:10EFA000013501340A463AB1B2FBF3F101FB1322F9
:10EFB000092AF3D83032F2E7284630BC7047F8B55A
:10EFC00004460D4617461E4605E0324639463020B7
:10EFD000FFF7ACFF0134AC42F7DBF8BDF8B50446EF
:10EFE0000D4617461E4605E0324639462020FFF7FB
:10EFF0009DFF0134AC42F7DBF8BD08B501460320A4
:10F00000FFF702FE08BD00002DE9F04F99B004465D
:10F0100089469246002113911491159116911791EA
:10F020004C22684600F01FFCD4E9004520462946E2
:10F03000FFF764F88046FEF74DFD02460B4620467A
:10F040002946FEF709FC04460D46BAF1000F18D117
:10F050005CA3D3E90023FEF7B7FDFFF787F8064668
:10F060000F464FF0000B18E00022534BFEF7ACFDAB
:10F0700033465E1E002BF7D1FFF778F806460F46A1
:10F08000EFE75346F5E700224B4B20462946FEF7B3
:10F090009BFD04460D460BF1010B0022474B204619
:10F0A0002946FFF703F838B10022002320462946FD
:10F0B000FEF7F2FF0028E6D00BF1FF35B8F1000FA4
:10F0C00023D1302389F800304FF0010808F1010BFB
:10F0D0002E2309F8083056EA07032CD000244CE010
:10F0E000374BA3FB0813DB08184603EB83035900D7
:10F0F000A8EB010318A901EB820141F8143C8046FA
:10F100000132B8F1000FEBD10CE00022F9E7013A2F
:10F1100018AB03EB820353F8143C303309F8083082
:10F1200008F10108002AF2D1D0E7302209F80B20BB
:10F130009A460BF1010B0AF1FF33BAF1000FF4D13B
:10F14000002309F80B30584619B0BDE8F08F0A22A9
:10F15000002330463946FEF7F1FF04F1010818ABF1
:10F1600003EB840444F8602C0A220023304639461D
:10F17000FEF7E4FF06460F46444656EA0703E6D18B
:10F1800007E018AB03EB8403002243F8602C013D39
:10F190000134002DF5D10AE0013C18AB03EB8403E8
:10F1A00053F8603C303309F80B300BF1010B002CA5
:10F1B000F2D1C5E7AFF30080000024400000F03F2B
:10F1C000CDCCCCCC00A0D885573476432DE9F04F78
:10F1D00097B001900C469146212200210DA800F025
:10F1E00042FB30238DF8343000230C93012202922D
:10F1F0009B460BE0019D2A460CA90D20FFF796FEC9
:10F200002A460CA90A20FFF791FE01342078002835
:10F2100000F0B482252841D00A28EBD0019A0CA92D
:10F22000FFF784FEF1E746F00106144600293AD1C3
:10F23000621C6378203B102B33D801A050F823F0D8
:10F240008BF20008A3F20008A3F2000897F200086E
:10F25000A3F20008A3F20008A3F20008A3F200083A
:10F26000A3F20008A3F20008A3F2000885F2000848
:10F27000A3F2000827F20008A3F20008A3F2000896
:10F2800091F2000846F00206CFE746F00406CCE70C
:10F2900046F00806C9E746F01006C6E700263146E4
:10F2A000C4E70121C2E700252F4600E00F4667B9F9
:10F2B000601C6378A3F13002092AF7D805EB8505B5
:10F2C0006A00303BD5180446F1E7621C63782E2BA8
:10F2D00036D04FF00008CDF80880631C6278682AA9
:10F2E00004D06C2A42D04C2A43D023465C1C587868
:10F2F000A0F15803202B00F23A82DFE813F01F013F
:10F30000380238023802380238023802380238022D
:10F310003802A201EF013D0038029A00380238029B
:10F320003D00380238023802380231028401B1014E
:10F3300038023802F9013802C001380238021F01D0
:10F340004FF00008404600E0384668B9541C537836
:10F35000A3F130010929F7D808EB88084FEA4802E1
:10F3600002EB01082246F0E71446B6E74BF0010B2A
:10F37000BCE74BF0020BB9E709F10407D9F80030FC
:10F3800016A941F82C3D0A2301220DA8FFF7E3FD41
:10F3900082460DAB03EB00080B9B002B07DB16F03E
:10F3A000020F17D000F1010A4FF02B0903E000F122
:10F3B000010A4FF02D0916F0080F19D0B9F1000F0E
:10F3C00010D1019B0CAA29465046FFF7F8FDAA462A
:10F3D000B94671E116F00409EDD000F1010A4FF0D1
:10F3E0002009E8E7019A0CA94846FFF79FFDE8E7E6
:10F3F00016F0010F04D0B9F1000F13D1B9465BE14B
:10F40000019B0CAA29465046FFF7E8FDB9F1000F11
:10F4100001D1B94650E1019A0CA94846FFF786FD93
:10F42000B94649E1019A0CA94846FFF77FFDB94664
:10F4300042E109F10C07D9E9019ACDE9089A0022C5
:10F44000002348465146FEF731FE40B916F0020F40
:10F450002BD116F004090DD04FF020090AE0CDF8A9
:10F4600010900AF1004305939DED047B8DED087B20
:10F470004FF02D09029BDBB9BBF1000F1FD1062213
:10F480000DA908A8FFF7C0FD804616F0080F23D08D
:10F49000B9F1000F1AD1019B0CAA29464046FFF78B
:10F4A0008EFDA8460DF1340937E04FF02B09E1E756
:10F4B00042460DA908A8FFF7A7FD8046E5E706220A
:10F4C0000DA908A8FFF7A0FD8046DEE7019A0CA968
:10F4D0004846FFF72BFDDEE716F0010F08D0B9F123
:10F4E000000FDFD0019A0CA94846FFF71FFDD9E7AE
:10F4F000019B0CAA29464046FFF770FDB9F1000FA9
:10F50000D0D0019A0CA94846FFF710FDCAE709F1CF
:10F510000109019A0CA9FFF709FD99F800000028DC
:10F52000F5D116F0010F01D1B9466EE6019B0CAA88
:10F5300029464046FFF752FDB94666E609F1040345
:10F540000393D9F8003016A941F83C3D102300225E
:10F550000DA8FFF700FD82460DAB03EB000816F087
:10F56000080921D016F0100910D1019B0CAA2946D8
:10F570005046FFF724FDAA4616F0100F00F0AB80AE
:10F58000B9F1000F2FD0DDF80C9095E0DDF8049074
:10F590004A460CA93020FFF7C9FC4A460CA978203E
:10F5A000FFF7C4FCB946E0E716F0010FE4D116F00E
:10F5B000100901D000F1020A019B0CAA294650460D
:10F5C000FFF70CFDB9F1000FD6D0DDF804904A46E4
:10F5D0000CA93020FFF7AAFC4A460CA97820FFF7B7
:10F5E000A5FCB946C8E7019F3A460CA93020FFF7B1
:10F5F0009DFC3A460CA97820FFF798FC0AF1020A14
:10F60000DDF80C9058E009F10407D9F8003016A98C
:10F6100041F83C3D082300220DA8FFF79CFC8246E0
:10F62000B9460DAB03EB0A0816F0080F36D116F0F9
:10F63000010F41D1019B0CAA29465046FFF7CEFC91
:10F640003AE009F10407D9F8003016A941F83C3D29
:10F65000022300220DA8FFF77EFC8246B946E0E7B0
:10F6600009F10407D9F8003016A941F83C3D1023F0
:10F6700000220DA8FFF76FFC8246B946D1E709F1D9
:10F680000407D9F8003016A941F83C3D0A230022AE
:10F690000DA8FFF760FC8246B946C2E7019B0CAAA1
:10F6A00029465046FFF78BFCAA4605E008F1FF38D3
:10F6B000019A0CA9FFF73AFC98F800000028F5D150
:10F6C00016F0010F3FF4A1AD019B0CAA294650464C
:10F6D000FFF784FC99E5DDF80C90EDE709F10405EE
:10F6E000019A0CA999F80000FFF720FCA9468CE5C7
:10F6F00009F1040AD9F80070002F3DD03846FEF712
:10F700009FF8814616F0010603D0B8F1000F0DD125
:10F7100018E0019B0CAA2946FFF760FCF5E708F109
:10F72000FF380137019A0CA9FFF700FCB8F1000F70
:10F730000BDD38780028F2D107E00137019A0CA9D7
:10F74000FFF7F4FB38780028F7D10EB9D1465CE515
:10F75000019B0CAA29464846FFF740FCD14654E5D8
:10F76000D9F800300C9A1A6009F104094DE5019AA4
:10F770000CA9FFF7DBFB48E5D14646E50C9817B02E
:10F78000BDE8F08F0FB400B585B001230193064B9F
:10F79000029306AA52F8041B01A8FFF717FD05B053
:10F7A0005DF804EB04B07047FBEF0008DFF838D0D9
:10F7B000002103E00D4B5B58435004310C480D4BC6
:10F7C00042189A42F6D30C4A02E0002342F8043B66
:10F7D0000A4B9A42F9D3FEF707FFFFF715F900F03D
:10F7E00013F8FEF76FFFFEE7FFFF002068FB00083D
:10F7F0000030002030300020303000205838002009
:10F8000000B500BF00BD000070B50D4E0D4CA41B2F
:10F81000A4100025A54209D10B4E0C4C00F02CF889
:10F82000A41BA4100025A54205D170BD56F82530B3
:10F8300098470135EEE756F8253098470135F2E74D
:10F8400058FB000858FB000858FB00085CFB000848
:10F8500010B5431E0A44914200D110BD11F8014B6E
:10F8600003F8014FF7E702440346934200D1704783
:10F8700003F8011BF9E70000F8B500BFF8BC08BCAD
:10F880009E467047F8B500BFF8BC08BC9E4670475E
:10F89000B5DAD2BBB4CEBDF8C8EBC2CCB5C6CFDFAB
:10F8A000B3CC210D0A000000D4DAC2CCB5C6CFDF3C
:10F8B000B3CCD6D0A3ACB5C8B4FDC2CCB5C6CAC211
:10F8C000BCFEB1BBB4A5B7A20D0A0000D4DAC2CC0D
:10F8D000B5C6CFDFB3CCD6D0A3ACCAD5B5BDC2CCEC
:10F8E000B5C6CAC2BCFEA3ACC2CCB5C6B7B4D7AA13
:10F8F0000D0A00002D2D2DB5DAD2BBB4CEBDF8C84F
:10F90000EBD4CBD0D0C0B6B5C6CFDFB3CC210D0A77
:10F91000000000002D2D2D2DBDF8C8EBC0B6B5C6DA
:10F92000CFDFB3CC2D2D2D2D2D0D0A00D4DAC0B68E
:10F93000B5C6CFDFB3CCD6D0A3ACC9E8D6C3C2CC52
:10F94000B5C6CAC2BCFE0D0A000000002D2D2D2D2B
:10F950002D2DC0B6B5C6C9C1CBB82D2D2D2D2D2D41
:10F960000D0A0000303132333435363738394142F0
:10F9700043444546323032303037313600000000E3
:10F980002020A1BE55736572CCE1CABEA1BFA3BA47
:10F99000BDABBDF8C8EB55736572B5C46D61696EDA
:10F9A0002829D6B4D0D02E2E2E0D0A002020B5F74F
:10F9B000D3C36770696F5F696E6974BAAFCAFDA31C
:10F9C000ACB7D6B1F0B3F5CABCBBAFBAECB5C6A103
:10F9D000A2C2CCB5C6A1A2C0B6B5C60D0A00000031
:10F9E000A1BEBDF0BAF9C2ABCCE1CABEA1BFB1BEE7
:10F9F000B3CCD0F2CEAAB4F852542D5468726561DB
:10FA000064B5C453544D3332D3C3BBA7B3CCD0F287
:10FA10000D0A0000A1BEBBF9B1BEB9A6C4DCA1BFEE
:10FA2000A2D9D4DA2052542D546872656164C6F4A8
:10FA3000B6AFBAF3B4B4BDA8C1CBBAECB5C6A1A2F7
:10FA4000C2CCB5C6BACDC0B6B5C6C8FDB8F6D3C32C
:10FA5000BBA7CFDFB3CC0D0A000000000920202097
:10FA60002020202020A2DACAB5CFD6C0B6B5C6C3A2
:10FA7000BF3130C3EBC9C1CBB8D2BBB4CE2CB2A21C
:10FA8000C9E8D6C3CAC2BCFED7D60D0A0000000022
:10FA9000092020202020202020A2DBC2CCB5C6CF08
:10FAA000DFB3CCB5C8B4FDB5BDCAC2BCFED7D6A3C2
:10FAB000ACD7AABBBBC2CCB5C6D7B4CCAC0D0A0080
:10FAC000A1BEB2D9D7F7B7BDB7A8A1BFC1ACBDD34E
:10FAD000B4AEBFDA55736572A3ACD1A1D4F1B2A8AC
:10FAE000CCD8C2CACEAA313135323030A3ACB4F250
:10FAF000BFAAB4AEBFDAA3ACB2E9BFB4CAE4B3F6EE
:10FB0000BDE1B9FB2E2E2E0D0D0A0A00302D312E2F
:10FB10004D4355C6F4B6AF0A000000004576656E49
:10FB200074576F726400000072756C6563686F6F64
:10FB300073650000677265656E6C696768740000C4
:10FB4000626C75656C6967687400000000000000F5
:08FB500060E6FF7F01000000E8
:08FB580025D8000800000000A0
:08FB600001D8000800000000BC
:10FB6800006CDC020000004800040048000800485F
:10FB7800000C004800100048001C004800380140F4
:10FB880000440040004800402526270001000100ED
:040000050800D80017
:00000001FF
