:020000040800F2
:10D00000FFFF0020FD2C0108512D010827D9000841
:10D01000512D0108512D0108512D0108000000007B
:10D02000000000000000000000000000512D010879
:10D03000512D0108000000006FD800086519010893
:10D04000512D0108512D0108512D0108512D0108C4
:10D05000512D0108512D0108512D0108512D0108B4
:10D06000512D0108512D0108512D0108512D0108A4
:10D07000512D0108512D0108512D0108512D010894
:10D08000512D0108512D0108512D0108512D010884
:10D09000512D0108512D0108512D0108512D010874
:10D0A000512D0108512D0108512D0108512D010864
:10D0B000512D01080000000000000000512D010862
:10D0C000512D0108512D0108512D0108512D010844
:10D0D000512D0108512D010825220108512D01086B
:10D0E000512D0108512D0108000000000000000032
:10D0F0000000000000000000000000000000000030
:10D1000000000000512D010800000000512D010811
:10D110000000000000000000512D0108512D010801
:10D12000512D0108512D0108512D0108512D0108E3
:10D13000512D010800000000000000000000000068
:10D14000512D0108512D0108512D0108000000004A
:10D15000512D0108512D0108512D0108512D0108B3
:10D16000512D0108512D0108512D0108000000002A
:10D17000512D0108512D01080000000000000000A1
:10D18000512D0108512D0108512D0108000000000A
:10D8000010B5054C237833B9044B13B10448AFF37A
:10D8100000800123237010BDAC40002000000000F8
:10D82000C82D010808B5034B1BB103490348AFF3EA
:10D83000008008BD00000000B0400020C82D010895
:10D84000EFF3108072B6704780F310887047444A37
:10D850001368012B04D04FF001031360414A10609C
:10D86000414A116041484FF0805101607047EFF329
:10D87000108272B63A48016851B34FF0000101605E
:10D880003848016891B1EFF309811EF0100F08BF0D
:10D8900021ED108B21E9F00F4FF000041EF0100F66
:10D8A00008BF012441F8044D006801602E49096851
:10D8B000096808C9B1E8F00F002B18BFB1EC108B54
:10D8C00081F309884EF0100E002B18BF2EF0100EB9
:10D8D00082F310884EF0040E704723490860EFF37E
:10D8E000148222F0040282F314881E494FF00000D3
:10D8F00008601B494FF0010008601D484FF47F018C
:10D90000D0F8002041EA0201016018484FF0805130
:10D91000016018480068006800BF80F3088861B69D
:10D9200062B6704700BFEFF308801EF0040F01D00D
:10D93000EFF3098020E9F00F40F804ED40F804ED22
:10D940001EF0040F02D080F3098801E080F30888FC
:10D9500000B500F09DFE5DF804EB4EF0040E70473C
:10D96000207300201C7300201873002004ED00E0D9
:10D9700020ED00E008ED00E0034613F8012B002A3B
:10D98000FBD1181A0138704781F0004102E000BF56
:10D9900083F0004330B54FEA41044FEA430594EA6F
:10D9A000050F08BF90EA020F1FBF54EA000C55EAAA
:10D9B000020C7FEA645C7FEA655C00F0E2804FEA7B
:10D9C0005454D4EB5555B8BF6D420CDD2C4480EA5D
:10D9D000020281EA030382EA000083EA010180EA8D
:10D9E000020281EA0303362D88BF30BD11F0004FDB
:10D9F0004FEA01314FF4801C4CEA113102D0404211
:10DA000061EB410113F0004F4FEA03334CEA13334B
:10DA100002D0524263EB430394EA050F00F0A78063
:10DA2000A4F10104D5F1200E0DDB02FA0EFC22FA5E
:10DA300005F2801841F1000103FA0EF2801843FA52
:10DA400005F359410EE0A5F120050EF1200E012A43
:10DA500003FA0EFC28BF4CF0020C43FA05F3C01881
:10DA600051EBE37101F0004507D54FF0000EDCF1FA
:10DA7000000C7EEB00006EEB0101B1F5801F1BD3A3
:10DA8000B1F5001F0CD349085FEA30004FEA3C0CA7
:10DA900004F101044FEA445212F5800F80F09A809D
:10DAA000BCF1004F08BF5FEA500C50F1000041EBA1
:10DAB000045141EA050130BD5FEA4C0C404141EBA5
:10DAC000010111F4801FA4F10104E9D191F0000FCC
:10DAD00004BF01460020B1FA81F308BF2033A3F14F
:10DAE0000B03B3F120020CDA0C3208DD02F1140C46
:10DAF000C2F10C0201FA0CF021FA02F10CE002F181
:10DB00001402D8BFC2F1200C01FA02F120FA0CFC79
:10DB1000DCBF41EA0C019040E41AA2BF01EB0451C2
:10DB2000294330BD6FEA04041F3C1CDA0C340EDCC0
:10DB300004F11404C4F1200220FA04F001FA02F303
:10DB400040EA030021FA04F345EA030130BDC4F1C1
:10DB50000C04C4F1200220FA02F001FA04F340EAB6
:10DB60000300294630BD21FA04F0294630BD94F067
:10DB7000000F83F4801306BF81F480110134013D4E
:10DB80004EE77FEA645C18BF7FEA655C29D094EABF
:10DB9000050F08BF90EA020F05D054EA000C04BF3D
:10DBA0001946104630BD91EA030F1EBF0021002028
:10DBB00030BD5FEA545C05D14000494128BF41F0C7
:10DBC000004130BD14F580043CBF01F5801130BD2B
:10DBD00001F0004545F0FE4141F470014FF00000B6
:10DBE00030BD7FEA645C1ABF194610467FEA655C67
:10DBF0001CBF0B46024650EA013406BF52EA033509
:10DC000091EA030F41F4002130BD00BF90F0000FF6
:10DC100004BF0021704730B54FF4806404F1320432
:10DC20004FF000054FF0000150E700BF90F0000FEB
:10DC300004BF0021704730B54FF4806404F1320412
:10DC400010F0004548BF40424FF000013EE700BFE2
:10DC500042004FEAE2014FEA31014FEA02701FBF72
:10DC600012F07F4393F07F4F81F06051704732F0A4
:10DC70007F4208BF704793F07F4F04BF41F40021FB
:10DC8000704730B54FF4607401F0004521F0004159
:10DC90001CE700BF50EA010208BF704730B54FF0E3
:10DCA00000050AE050EA010208BF704730B511F0E4
:10DCB000004502D5404261EB41014FF4806404F11C
:10DCC00032045FEA915C3FF4D8AE4FF003025FEAA2
:10DCD000DC0C18BF03325FEADC0C18BF033202EB26
:10DCE000DC02C2F1200300FA03FC20FA02F001FA80
:10DCF00003FE40EA0E0021FA02F11444BDE600BF23
:10DD000070B54FF0FF0C4CF4E06C1CEA11541DBFD1
:10DD10001CEA135594EA0C0F95EA0C0F00F0DEF89C
:10DD20002C4481EA030621EA4C5123EA4C5350EA81
:10DD3000013518BF52EA033541F4801143F48013D2
:10DD400038D0A0FB02CE4FF00005E1FB02E506F063
:10DD50000042E0FB03E54FF00006E1FB03569CF0B8
:10DD6000000F18BF4EF0010EA4F1FF04B6F5007FBE
:10DD700064F5407404D25FEA4E0E6D4146EB060630
:10DD800042EAC62141EA55514FEAC52040EA5E50B9
:10DD90004FEACE2EB4F1FD0C88BFBCF5E06F1ED863
:10DDA000BEF1004F08BF5FEA500E50F1000041EB9A
:10DDB000045170BD06F0004646EA010140EA020047
:10DDC00081EA0301B4EB5C04C2BFD4EB0C0541EA69
:10DDD000045170BD41F480114FF0000E013C00F37E
:10DDE000AB8014F1360FDEBF002001F0004170BDA2
:10DDF000C4F10004203C35DA0C341BDC04F11404BB
:10DE0000C4F1200500FA05F320FA04F001FA05F246
:10DE100040EA020001F0004221F0004110EBD37013
:10DE200021FA04F642EB06015EEA430E08BF20EA3F
:10DE3000D37070BDC4F10C04C4F1200500FA04F3E2
:10DE400020FA05F001FA04F240EA020001F0004174
:10DE500010EBD37041F100015EEA430E08BF20EAE7
:10DE6000D37070BDC4F1200500FA05F24EEA020E2F
:10DE700020FA04F301FA05F243EA020321FA04F05E
:10DE800001F0004121FA04F220EA020000EBD37015
:10DE90005EEA430E08BF20EAD37070BD94F0000F15
:10DEA0000FD101F00046400041EB010111F4801F49
:10DEB00008BF013CF7D041EA060195F0000F18BFFA
:10DEC000704703F00046520043EB030313F4801F36
:10DED00008BF013DF7D043EA0603704794EA0C0FF0
:10DEE0000CEA135518BF95EA0C0F0CD050EA410606
:10DEF00018BF52EA4306D1D181EA030101F0004183
:10DF00004FF0000070BD50EA410606BF10461946AA
:10DF100052EA430619D094EA0C0F02D150EA0136B6
:10DF200013D195EA0C0F05D152EA03361CBF1046F7
:10DF300019460AD181EA030101F0004141F0FE4196
:10DF400041F470014FF0000070BD41F0FE4141F41A
:10DF5000780170BD70B54FF0FF0C4CF4E06C1CEA1A
:10DF600011541DBF1CEA135594EA0C0F95EA0C0FCF
:10DF700000F0A7F8A4EB050481EA030E52EA03358A
:10DF80004FEA013100F088804FEA03334FF08055AB
:10DF900045EA131343EA12634FEA022245EA1115D8
:10DFA00045EA10654FEA00260EF000419D4208BF89
:10DFB000964244F1FD0404F5407402D25B084FEA36
:10DFC0003202B61A65EB03055B084FEA32024FF4E2
:10DFD00080104FF4002CB6EB020E75EB030E22BF3F
:10DFE000B61A754640EA0C005B084FEA3202B6EBFF
:10DFF000020E75EB030E22BFB61A754640EA5C00AE
:10E000005B084FEA3202B6EB020E75EB030E22BF3D
:10E01000B61A754640EA9C005B084FEA3202B6EB3E
:10E02000020E75EB030E22BFB61A754640EADC00FD
:10E0300055EA060E18D04FEA051545EA16754FEA5F
:10E0400006164FEAC30343EA52734FEAC2025FEA7D
:10E050001C1CC0D111F4801F0BD141EA00014FF00C
:10E0600000004FF0004CB6E711F4801F04BF0143DD
:10E070000020B4F1FD0C88BFBCF5E06F3FF6AFAEF9
:10E08000B5EB030C04BFB6EB020C5FEA500C50F189
:10E09000000041EB045170BD0EF0004E4EEA11310C
:10E0A00014EB5C04C2BFD4EB0C0541EA045170BD13
:10E0B00041F480114FF0000E013C90E645EA060E57
:10E0C0008DE60CEA135594EA0C0F08BF95EA0C0F85
:10E0D0003FF43BAF94EA0C0F0AD150EA01347FF4CD
:10E0E00034AF95EA0C0F7FF425AF104619462CE7A4
:10E0F00095EA0C0F06D152EA03353FF4FDAE104607
:10E10000194622E750EA410618BF52EA43067FF457
:10E11000C5AE50EA41047FF40DAF52EA43057FF4E7
:10E12000EBAE12E74FF0FF3C06E000BF4FF0010CF2
:10E1300002E000BF4FF0010C4DF804CD4FEA410C56
:10E140007FEA6C5C4FEA430C18BF7FEA6C5C1BD023
:10E1500001B050EA410C0CBF52EA430C91EA030FA4
:10E1600002BF90EA020F0020704710F1000F91EA01
:10E17000030F58BF994208BF90422CBFD8176FEACF
:10E18000E37040F0010070474FEA410C7FEA6C5C9D
:10E1900002D150EA013C07D14FEA430C7FEA6C5CA4
:10E1A000D6D152EA033CD3D05DF8040B704700BFD0
:10E1B0008446104662468C461946634600E000BF1E
:10E1C00001B5FFF7B7FF002848BF10F1000F01BDF0
:10E1D0004DF808EDFFF7F4FF0CBF012000205DF8BB
:10E1E00008FB00BF4DF808EDFFF7EAFF34BF012040
:10E1F00000205DF808FB00BF4DF808EDFFF7E0FFD9
:10E2000094BF012000205DF808FB00BF4DF808ED29
:10E21000FFF7CEFF94BF012000205DF808FB00BF90
:10E220004DF808EDFFF7C4FF34BF012000205DF872
:10E2300008FB00BF4A0011D212F5001211D20DD511
:10E240006FF47873B3EB62520ED44FEAC12343F0FC
:10E25000004343EA505323FA02F070474FF00000A6
:10E26000704750EA013002D14FF0FF3070474FF055
:10E270000000704753B94AB9002908BF00281CBFE5
:10E280004FF0FF314FF0FF3000F094B9ADF1080CC2
:10E290006DE904CE00F028F8DDF804E0DDE90223A2
:10E2A00004B07047D0B500220D4B06460F46FFF76D
:10E2B00027FDFFF7BFFF0446FFF7A8FC0022094B2C
:10E2C000FFF71EFD02460B4630463946FFF760FB5E
:10E2D000FFF7B0FF0022234610431946D0BD00BF10
:10E2E0000000F03D0000F0412DE9F047089E044693
:10E2F0008846002B4BD18A42154667D9B2FA82F282
:10E300004AB1C2F1200701FA02F320FA07F795405B
:10E3100047EA030894404FEA154E230CB8FBFEF77A
:10E320001FFA85FC0EFB178843EA084307FB0CF134
:10E33000994209D9EB1807F1FF3080F01B8199420F
:10E3400040F21881023F2B445B1AA4B2B3FBFEF0EB
:10E350000EFB103344EA034400FB0CFCA44509D92E
:10E360002C1900F1FF3380F00781A44540F20481AD
:10E3700002382C4440EA0740A4EB0C0400271EB1ED
:10E38000D4400023C6E900433946BDE8F0878B42FC
:10E3900009D9002E00F0EB800027C6E900013846BD
:10E3A0003946BDE8F087B3FA83F7002F47D18B4297
:10E3B00002D3824200F2FA80841A61EB0303012047
:10E3C0009846002EE0D0C6E90048DDE702B9FFDE3E
:10E3D000B2FA82F2002A40F08F80491B4FEA154EB4
:10E3E0001FFA85F80127B1FBFEFC230C0EFB1C1164
:10E3F00043EA014308FB0CF1994207D9EB180CF1F1
:10E40000FF3002D2994200F2CD808446591AA3B25D
:10E41000B1FBFEF00EFB101443EA044408FB00F8C5
:10E42000A04507D92C1900F1FF3302D2A04500F214
:10E43000B6801846A4EB080440EA0C409FE7C7F1F9
:10E44000200CBB4022FA0CFE4EEA030E01FA07F440
:10E4500020FA0CF521FA0CF34FEA1E482543B3FBD2
:10E46000F8F92C0C08FB19331FFA8EFA44EA03431F
:10E4700009FB0AF49C4202FA07F200FA07F10BD9F1
:10E480001EEB030309F1FF3080F087809C4240F2CD
:10E490008480A9F1020973441B1BADB2B3FBF8F0F1
:10E4A00008FB103345EA034400FB0AFAA24508D9E9
:10E4B0001EEB040400F1FF336BD2A24569D9023888
:10E4C000744440EA0940A0FB0289A4EB0A044C45CD
:10E4D000C2464B4654D351D0002E69D0B1EB0A0549
:10E4E00064EB030404FA0CFCFD40FC404CEA050517
:10E4F000C6E90054002747E7C2F1200320FA03F7DA
:10E50000954001FA02F021FA03F34FEA154E384321
:10E51000010CB3FBFEF71FFA85F80EFB173341EA37
:10E52000034107FB08F38B4204FA02F407D9691888
:10E5300007F1FF3C2FD28B422DD9023F2944CB1A41
:10E5400081B2B3FBFEF00EFB103341EA034100FB46
:10E5500008F38B4207D9691800F1FF3C17D28B42B0
:10E5600015D902382944C91A40EA07473BE737461C
:10E57000304609E70746E7E61846FBE64145ABD2D9
:10E58000B8EB020A69EB0E0201381346A4E76046B5
:10E59000E9E7184695E76746D1E781467CE7023808
:10E5A0002C4447E7ACF1020C2B442FE7384608E730
:10E5B0003746E9E6704700BF0020704700207047EB
:10E5C00010B5044C02E054F8043B9847024B9C42BF
:10E5D000F9D310BD504601085446010800B585B076
:10E5E000134800F011FD012211464FF4847001F030
:10E5F00081FD1049022003F065FB0F4B186803AB47
:10E6000000934FF0FF330622042101F0EEFF039B3D
:10E61000042BEED10949022003F054FB4FF484701F
:10E6200001F0D4FD0821044B186801F092FFE0E7E7
:10E63000E02D0108F82D0108587300201C2E010858
:10E6400070B40646043222F00705A5F1440000220A
:10E6500003E00E4C40F822400132102AF9D945F867
:10E66000201C002245F81C2C45F8182C45F8142CC9
:10E6700045F8102C45F80C3C45F8086C4FF08073B9
:10E6800045F8043C45F8442C70BC7047EFBEADDE45
:10E6900010B504462F4B1B681BB128309847002843
:10E6A00056D0616C2C4802F08FFFA16A2B4802F013
:10E6B0008BFFE16A2A4802F087FF216B294802F0AC
:10E6C00083FF616B284802F07FFFA168274802F0B2
:10E6D0007BFFE168264802F077FF2169254802F0B8
:10E6E00073FF6169244802F06FFFA169234802F0BB
:10E6F0006BFFE169224802F067FF216A214802F0BE
:10E7000063FF616A204802F05FFFA16B1F4802F0BF
:10E710005BFFE16B1E4802F057FF216C1D4802F0C1
:10E7200053FF236813F0040F0AD000F02DFD0146BB
:10E73000194802F049FF236813F0100F04D0FEE7D8
:10E74000164802F041FFF6E7154802F03DFFF6E7F4
:10E7500010BD00BFC8400020442E0108542E0108FF
:10E76000642E0108742E0108842E0108942E0108DD
:10E77000A42E0108B42E0108C42E0108D42E0108CD
:10E78000E42E0108F42E0108042F0108142F0108BB
:10E79000242F0108342F0108442F0108642F010899
:10E7A000802F010810B50C461368012B05D0022BF1
:10E7B00007D023680133236010BD5368C0B2984767
:10E7C000F7E793681870936801339360F1E730B40A
:10E7D000441C00250570B2B1096809B1002009E0A8
:10E7E00030234370012024E0C1F130012170013059
:10E7F00001341146E9B191FBF3F203FB1211002938
:10E80000F2DB3031F2E715460A6842B93023437033
:10E8100001200EE037322270013501340A463AB148
:10E82000B2FBF3F101FB1322092AF3D83032F2E7ED
:10E83000284630BC7047F8B504460D4617461E46BC
:10E8400005E0324639463020FFF7ACFF0134AC42D8
:10E85000F7DBF8BDF8B504460D4617461E4605E041
:10E86000324639462020FFF79DFF0134AC42F7DBEA
:10E87000F8BD08B50146032003F0E6F908BD08B568
:10E880000146022003F0E0F908BD0000000000008E
:10E890002DE9F04F99B00446894692460021139124
:10E8A00014911591169117914C22684604F083FA41
:10E8B000D4E9004520462946FFF7BCFC8046FFF717
:10E8C000A5F902460B4620462946FFF761F80446A3
:10E8D0000D46BAF1000F18D15CA3D3E90023FFF76E
:10E8E0000FFAFFF7DFFC06460F464FF0000B18E06B
:10E8F0000022534BFFF704FA33465E1E002BF7D17C
:10E90000FFF7D0FC06460F46EFE75346F5E7002237
:10E910004B4B20462946FFF7F3F904460D460BF111
:10E92000010B0022474B20462946FFF75BFC38B11C
:10E930000022002320462946FFF74AFC0028E6D0A3
:10E940000BF1FF35B8F1000F23D1302389F80030E7
:10E950004FF0010808F1010B2E2309F8083056EAA0
:10E9600007032CD000244CE0374BA3FB0813DB0833
:10E97000184603EB83035900A8EB010318A901EB28
:10E98000820141F8143C80460132B8F1000FEBD10E
:10E990000CE00022F9E7013A18AB03EB820353F8CD
:10E9A000143C303309F8083008F10108002AF2D18C
:10E9B000D0E7302209F80B209A460BF1010B0AF13F
:10E9C000FF33BAF1000FF4D1002309F80B30584699
:10E9D00019B0BDE8F08F0A22002330463946FFF710
:10E9E00049FC04F1010818AB03EB840444F8602CE3
:10E9F0000A22002330463946FFF73CFC06460F4604
:10EA0000444656EA0703E6D107E018AB03EB84035C
:10EA1000002243F8602C013D0134002DF5D10AE0BD
:10EA2000013C18AB03EB840353F8603C303309F826
:10EA30000B300BF1010B002CF2D1C5E7AFF30080D6
:10EA4000000024400000F03FCDCCCCCC00A0D88505
:10EA5000573476432DE9F04F97B001900C4691461C
:10EA6000212200210DA804F0A6F930238DF83430BE
:10EA700000230C93012202929B460BE0019D2A4643
:10EA80000CA90D20FFF78EFE2A460CA90A20FFF7DD
:10EA900089FE01342078002800F0B282252841D078
:10EAA0000A28EBD0019A0CA9FFF77CFEF1E746F0AB
:10EAB0000106144600293AD1621C6378203B102BD2
:10EAC00033D801A050F823F013EB00082BEB00081B
:10EAD0002BEB00081FEB00082BEB00082BEB0008CA
:10EAE0002BEB00082BEB00082BEB00082BEB0008AE
:10EAF0002BEB00080DEB00082BEB0008AFEA000839
:10EB00002BEB00082BEB000819EB000846F002067F
:10EB1000CFE746F00406CCE746F00806C9E746F022
:10EB20001006C6E700263146C4E70121C2E70025EA
:10EB30002F4600E00F4667B9601C6378A3F13002EE
:10EB4000092AF7D805EB85056A00303BD51804463D
:10EB5000F1E7621C63782E2B36D04FF00008CDF819
:10EB60000880631C6278682A04D06C2A42D04C2A40
:10EB700043D023465C1C5878A0F15803202B00F2A8
:10EB80003882DFE813F01F01360236023602360201
:10EB900036023602360236023602A201EF013D008D
:10EBA00036029A00360236023D003602360236023E
:10EBB00036022F028401B10136023602F901360213
:10EBC000C001360236021F014FF00008404600E047
:10EBD000384668B9541C5378A3F130010929F7D895
:10EBE00008EB88084FEA480202EB01082246F0E7EA
:10EBF0001446B6E74BF0010BBCE74BF0020BB9E74C
:10EC000009F10407D9F8003016A941F82C3D0A2370
:10EC100001220DA8FFF7DBFD82460DAB03EB0008D8
:10EC20000B9B002B07DB16F0020F17D000F1010A37
:10EC30004FF02B0903E000F1010A4FF02D0916F007
:10EC4000080F19D0B9F1000F10D1019B0CAA294669
:10EC50005046FFF7F0FDAA46B94671E116F00409E7
:10EC6000EDD000F1010A4FF02009E8E7019A0CA964
:10EC70004846FFF797FDE8E716F0010F04D0B9F119
:10EC8000000F13D1B9465BE1019B0CAA29465046FF
:10EC9000FFF7E0FDB9F1000F01D1B94650E1019A4B
:10ECA0000CA94846FFF77EFDB94649E1019A0CA937
:10ECB0004846FFF777FDB94642E109F10C07D9E96B
:10ECC000019ACDE9089A0022002348465146FFF7F1
:10ECD00089FA40B916F0020F2BD116F004090DD0B5
:10ECE0004FF020090AE0CDF810900AF10043059397
:10ECF0009DED047B8DED087B4FF02D09029BDBB968
:10ED0000BBF1000F1FD106220DA908A8FFF7C0FD17
:10ED1000804616F0080F23D0B9F1000F1AD1019BDD
:10ED20000CAA29464046FFF786FDA8460DF1340996
:10ED300037E04FF02B09E1E742460DA908A8FFF79D
:10ED4000A7FD8046E5E706220DA908A8FFF7A0FD6C
:10ED50008046DEE7019A0CA94846FFF723FDDEE76F
:10ED600016F0010F08D0B9F1000FDFD0019A0CA9FD
:10ED70004846FFF717FDD9E7019B0CAA29464046F4
:10ED8000FFF768FDB9F1000FD0D0019A0CA94846F1
:10ED9000FFF708FDCAE709F10109019A0CA9FFF77D
:10EDA00001FD99F800000028F5D116F0010F01D1FE
:10EDB000B9466EE6019B0CAA29464046FFF74AFD7C
:10EDC000B94666E609F104030393D9F8003016A9A1
:10EDD00041F83C3D102300220DA8FFF7F8FC8246C5
:10EDE0000DAB03EB000816F0080921D016F010094E
:10EDF00010D1019B0CAA29465046FFF71CFDAA46DC
:10EE000016F0100F00F0AB80B9F1000F2FD0DDF835
:10EE10000C9095E0DDF804904A460CA93020FFF7ED
:10EE2000C1FC4A460CA97820FFF7BCFCB946E0E7D4
:10EE300016F0010FE4D116F0100901D000F1020A1A
:10EE4000019B0CAA29465046FFF704FDB9F1000FBB
:10EE5000D6D0DDF804904A460CA93020FFF7A2FC7A
:10EE60004A460CA97820FFF79DFCB946C8E7019FE8
:10EE70003A460CA93020FFF795FC3A460CA97820B9
:10EE8000FFF790FC0AF1020ADDF80C9058E009F156
:10EE90000407D9F8003016A941F83C3D08230022A8
:10EEA0000DA8FFF794FC8246B9460DAB03EB0A08A8
:10EEB00016F0080F36D116F0010F41D1019B0CAAB4
:10EEC00029465046FFF7C6FC3AE009F10407D9F895
:10EED000003016A941F83C3D022300220DA8FFF79F
:10EEE00076FC8246B946E0E709F10407D9F800301C
:10EEF00016A941F83C3D102300220DA8FFF767FC3E
:10EF00008246B946D1E709F10407D9F8003016A9BD
:10EF100041F83C3D0A2300220DA8FFF758FC824629
:10EF2000B946C2E7019B0CAA29465046FFF783FC6D
:10EF3000AA4605E008F1FF38019A0CA9FFF732FC58
:10EF400098F800000028F5D116F0010F3FF4A1ADAC
:10EF5000019B0CAA29465046FFF77CFC99E5DDF899
:10EF60000C90EDE709F10405019A0CA999F800004D
:10EF7000FFF718FCA9468CE509F1040AD9F80070DE
:10EF8000002F3BD03846FEF7F7FC814616F001060D
:10EF90000FD0B8F1000F17D03878C0B1B8F1000F1A
:10EFA000FADD08F1FF380137019A0CA9FFF7FAFBE7
:10EFB000F2E7019B0CAA2946FFF74CFCE9E7013771
:10EFC000019A0CA9FFF7EEFB38780028F7D10EB9AB
:10EFD000D1465EE5019B0CAA29464846FFF73AFC5C
:10EFE000D14656E5D9F800300C9A1A6009F10409A7
:10EFF0004FE5019A0CA9FFF7D5FB4AE5D14648E554
:10F000000C9817B0BDE8F08F0FB400B585B00123A0
:10F010000193064B029306AA52F8041B01A8FFF7BE
:10F0200019FD05B05DF804EB04B0704773E8000803
:10F030000FB400B585B001230193064B029306AAD5
:10F0400052F8041B01A8FFF705FD05B05DF804EBBD
:10F0500004B070477FE8000838B5144B1C68FEF711
:10F06000EFFB0546204602F0CBFB042384F8343046
:10F0700004F14C0000F0B7FB204600F070FE0128C0
:10F080000DD004F114020A4B19684A6061611A60DC
:10F09000A3612846FEF7D8FB02F050FB38BDA36FF2
:10F0A000002BEED1204600F009FEF2E7707C002034
:10F0B000787C0020F0B583B00446089809999DF843
:10F0C00028500B9E04F11407A761676122626362F6
:10F0D000A062E1620A46232102F05EF8A16AE36AB7
:10F0E0001A1F104B0A44616A206AFFF7A9FAE0610F
:10F0F00084F8365084F835500025A5636664A6640C
:10F10000256384F83450A567E5670195009523468B
:10F11000054A214604F14C0000F051FB284603B09B
:10F12000F0BD00BF59F000082DF1000810B56FF0D8
:10F130000102026300F11402416984694C60816933
:10F1400044690C608261426102F034FB02F0F6FA1D
:10F1500010BDF0B585B005460C4616461F460A465A
:10F16000012100F089FD0D9B03939DF8303002933F
:10F170000B9B01930A9B00933B463246214628464F
:10F18000FFF798FF05B0F0BD014B1868704700BF4E
:10F19000707C002010B5044690F8343013F00F0F47
:10F1A0001BD104F14C0000F01EFB042384F8343022
:10F1B000204600F0D4FD012801D1A36F83B1FEF7F2
:10F1C0003FFB04F11402084B19684A6061611A6040
:10F1D000A361FEF739FB002010BD02F011FBE0E750
:10F1E000204600F06BFDF6E7787C00202DE9F04129
:10F1F00084B005460F4690461E460146012000F0A9
:10F2000070FDD0B10446304603F030F980B10B9A5E
:10F2100003929DF8282002920196009043463A46B8
:10F2200029462046FFF746FF204604B0BDE8F0819E
:10F23000204600F07EFD0024F6E70024F4E70000FD
:10F2400010B5044690F8343013F00F0F14D104F1C8
:10F250004C0000F0C8FA042384F83430FEF7F0FACA
:10F2600004F11402064B19684A6061611A60A361D7
:10F27000FEF7EAFA002010BD02F0C2FAE7E700BF8D
:10F28000787C002010B5FEF7DBFA144B1B6893F86E
:10F29000342002F00F02012A03D15A6999698A4287
:10F2A00003D1FEF7D1FA002010BD03F11404516020
:10F2B0009A69596911609C615C6193F83510084A3C
:10F2C00002EBC10251680C605168996154605A6147
:10F2D000FEF7BAFA02F032FAE5E700BF707C0020D0
:10F2E0006C7B002038B590F8343003F00F03012B0D
:10F2F00017D10446FEF7A4FA054694F9343023F0FA
:10F300000F0343F0020384F83430204602F078FA09
:10F3100004F14C0000F0E4FA2846FEF795FA0020CC
:10F3200038BD4FF0FF30FBE7F0B583B002AD45F8D4
:10F33000040DFEF785FA07460E4B1C682046FFF7C2
:10F34000D1FF04F14C062A460021304600F0ECFAC9
:10F35000304600F065FA3846FEF776FA02F0EEF92C
:10F36000236B13F1020F02D0002003B0F0BD002385
:10F370002363F9E7707C002008B5FFF7D5FF08BDCF
:10F3800038B590F8343003F00F03022B19D104463E
:10F39000FEF756FA054604F114036269A16951604B
:10F3A000A26961691160A361636104F14C0000F01E
:10F3B00097FA2846FEF748FA204602F0FBF90020AB
:10F3C00038BD4FF0FF30FBE708B590F8361080F8F5
:10F3D000351001228A408263022280F83420FFF730
:10F3E000CFFFFFF7D1FE08B102F0A8F9002008BD59
:10F3F00070B50446012929D01546022902D011B35F
:10F40000002012E0FEF71CFA064694F8343003F0B0
:10F410000F03012B0AD02A7884F83520012393406A
:10F42000A3633046FEF710FA002070BD204602F0BC
:10F43000E7F92A7884F8352001239340A363204616
:10F4400002F0B8F9EDE7FFF7BFFFEEE7FFF7F8FED0
:10F45000EBE7000010B582B020E01F23E2B2FF21ED
:10F46000782001F088FB0134372CF6DD1F2337228A
:10F47000FF21782001F07FFB40F2091000F072FEBE
:10F4800001282CD040F2091000F06CFE012848D071
:10F4900040F2091000F066FE012864D04FF47A7043
:10F4A000FFF76AFF40F2091000F05CFE0028E3D18C
:10F4B0004FF4847000F056FE0128DDD140F20710B1
:10F4C00000F050FE0128D7D1374B009348F230436B
:10F4D0000022A021062001F03BFC0124C4E74FF4E8
:10F4E000847000F03FFE0028CCD140F2071000F0FD
:10F4F00039FE0128C6D12D4B009348F2304300223B
:10F50000A021062001F024FC012407E04FF4FC6355
:10F51000E2B2FF21782001F02EFB0134372CF5DD1B
:10F52000B0E74FF4847000F01DFE0128B0D140F226
:10F53000071000F017FE0028AAD11D4B009348F2D7
:10F5400030430022A021062001F002FC012407E044
:10F550004FF47843E2B2FF21782001F00CFB013434
:10F56000372CF5DD94E74FF4847000F0FBFD0128A3
:10F5700094D140F2071000F0F5FD01288ED10D4B1B
:10F58000009348F230430022A021062001F0E0FB66
:10F59000012406E00023E2B2FF21782001F0EBFA1B
:10F5A0000134372CF6DD79E7902F0108A02F0108F0
:10F5B000B02F0108C02F010830B4022822D810B3A0
:10F5C00001284FD14A4CA56D45F48045A565E56CF1
:10F5D00045F00205E564474C256825F07F45256028
:10F5E000256845F02A452560656AADB26562656AA1
:10F5F00045F0AA4545F4AA056562A56845F07F4532
:10F60000A5602FE000203A4C256E45F48055256614
:10F61000E56C45F00105E5644FF09044256825F060
:10F62000404525F47C452560256845F0004545F4B6
:10F6300028452560256AC5F313052562256A45F02E
:10F64000AA4545F4A0052562656A25F07045656206
:10F65000656A45F0A0456562A56845F0404545F4FA
:10F660007C45A5600446244D55F82050286820F0BC
:10F6700040002860012916D04FF40071012B15D0ED
:10F6800021F002039DF80810012912D023F0010196
:10F690001A4B1B681A48A0FB03039B09B3FBF2F249
:10F6A00092B200230BE04FF44171E7E741F002030F
:10F6B000E8E743F00101EBE70133DBB25208032A2C
:10F6C000FAD841EAC3030C4A52F8240001680B43FC
:10F6D000036052F824104B6843F4B8534B6052F85F
:10F6E0002420136843F04003136030BC704700BF10
:10F6F0000010024000040048004000200C400020A0
:10F70000D34D621010B483B000230193022836D881
:10F7100004461D4B53F820301A6812F0400F03D1F5
:10F720001A6842F040021A60174B53F824309A6866
:10F7300012F0020F09D1019B01330193019A4FF698
:10F74000FE739A42F0D900201AE019730023019346
:10F750000D4B53F824309A6812F0010F09D1019B28
:10F7600001330193019A4FF6FE739A42F0D90020BB
:10F7700006E0DA6801929B680193012000E0002016
:10F7800003B05DF8044B70470040002010B49DF8B2
:10F79000044024F001044472C161026200228262CA
:10F7A00043621346002B02DD5DF8044B70479A1C40
:10F7B00000EBC202111D916051600133F2E770B598
:10F7C00082B0044615461E460A460A2100F054FA45
:10F7D0009DF81C300093069B324629462046FFF7D1
:10F7E000D5FF02B070BD70B50446FEF729F80022BF
:10F7F000002A06DDFEF728F8204600F05FFA002018
:10F8000070BD931C04EBC303191D5D689E686E6098
:10F810009D685E682E60996059600132E8E70000DB
:10F8200070B582B00446FEF70BF80022002A26DDF0
:10F83000637A23F001036372FEF706F801F024FFF8
:10F84000636A1844A062FDF7FBFF224B019300217D
:10F8500041B3214A136801331360019B04F1140280
:10F8600019684A60196861611A60A361637A43F09C
:10F8700001036372FDF7E8FF002002B070BD931C26
:10F8800004EBC303191D5D689E686E609D685E6829
:10F890002E60996059600132C8E702AB03EB810327
:10F8A00043F8042C02AB03EB810353F8045CCB0058
:10F8B000084A1A44526895420AD02A681433D31A67
:10F8C0009B6AA56AAB42E8D05B1B044DAB42E4D80F
:10F8D0000131BDE7D0400020CC400020FEFFFF7F7B
:10F8E000437A13F0010F1CD070B50446FDF7A8FF52
:10F8F0000022002A07DDFDF7A7FF637A23F001034A
:10F900006372002070BD931C04EBC303191D5D6876
:10F910009E686E609D685E682E60996059600132D5
:10F92000E7E74FF0FF307047032905D8DFE801F023
:10F930000602090E436A1360002070471368436291
:10F94000FAE7437A23F002034372F5E7437A43F080
:10F9500002034372F0E70000F8B501F095FE074698
:10F96000FDF76EFF0546214B1C689C4203D12846DB
:10F97000FDF76AFFF8BDA4F114066369FF1A1C4B7A
:10F980009F42F4D80021002910DDA368E068984761
:10F9900001F07AFE074614F80B3C03F00302032A39
:10F9A0001BD023F0010304F80B3CDCE7A4F11402A4
:10F9B0008B1CDB001A440432234453F8100C53F818
:10F9C0000C7C476053F80C0C53F8107C076043F82C
:10F9D0000C2C43F8102C0131D5E723F0010304F877
:10F9E0000B3C3046FFF71CFFBDE700BFD0400020B6
:10F9F000FEFFFF7F002303B17047044901EBC30200
:10FA0000526041F833200133F5E700BFD0400020B9
:10FA10002F4B1B6813F0080F16D12D4BD3F89430E1
:10FA2000C3F303232B4A52F82310294A936803F0A7
:10FA30000C030C2B48D8DFE803F00C474747194765
:10FA400047471D4747472100214B1B68C3F303135A
:10FA5000E8E7214B19601E4B9B68C3F303131F4A51
:10FA6000D15C1D4A1368CB40136070471A4B1C4A87
:10FA70001A60F0E7184B1B4A1A60ECE7144BDA687F
:10FA800002F00302DB68C3F302130133022A04D03D
:10FA9000032A15D0B1FBF3F302E0114AB2FBF3F3F2
:10FAA0000B49CA68C2F3062203FB02F3CA68C2F319
:10FAB000416201325200B3FBF2F3074A1360CAE716
:10FAC000084AB2FBF3F3EBE7034B1960C3E700BF4F
:10FAD00000100240E42F01080C400020D42F010840
:10FAE0000024F40000127A0082B0234B9B6D13F0C7
:10FAF000805F15D0214B1B6803F4C063B3F5007F12
:10FB000021D000211E4A136823F007030B43136022
:10FB1000136803F007038B421FD0002002B0704728
:10FB2000154A936D43F080539365936D03F08053B2
:10FB30000193019B114B1B6803F4C063916D21F08D
:10FB400080519165DAE7802803D9A02803D90221E2
:10FB5000D8E70021D6E70121D4E7A2F58052136847
:10FB600043F008031360136823F0F00343F0B0037D
:10FB700013600120D2E700BF001002400070004077
:10FB80000020024010B5114CD4F8883043F47003C3
:10FB9000C4F888300E4B1A6842F001021A60002146
:10FBA00099601A6822F0A85222F410221A604FF4C9
:10FBB0008052DA601A6822F480221A609961B020BB
:10FBC000FFF792FF4FF00063A36010BD00ED00E06F
:10FBD0000010024010B51849022002F073F815E039
:10FBE000164C4FF0FF31206800F035FB2368998BED
:10FBF0001348FFF71DFA4FF4FA60FFF7BDFB2068CA
:10FC000000F08FFB0F49022002F05CF84FF47A708D
:10FC1000FFF7B2FB094B1B689C8B21460A48FFF794
:10FC200007FA0A49022002F04DF8002CD8D1084901
:10FC3000022002F047F8D3E71430010824730020B3
:10FC40005C300108783001082830010834300108A0
:10FC5000443001080023062B09DC1A0105498A5C9F
:10FC6000824201D00133F6E701EB03107047002018
:10FC7000704700BF10400020F8B504460E461746F6
:10FC80000846FFF7E7FF054601F0E0FD01F0EAFD59
:10FC900066F07F06267208223946204601F0D4FA23
:10FCA000FDF7CEFD2A1D04F10C0369684B606968FD
:10FCB000E1606B602261FDF7C7FDF8BD10B5044639
:10FCC00000230372FDF7BCFD04F10C03E268216917
:10FCD00051602269E16811602361E360FDF7B4FDC2
:10FCE00010BDF8B507460E46FFF7B4FF0546C068DD
:10FCF00002F0BCFBD8B10446EA68002101F04CFADE
:10FD000027720023637208223146204601F09CFAD4
:10FD1000FDF796FD2A1D04F10C0369684B606968C4
:10FD2000E1606B602261FDF78FFD2046F8BD002485
:10FD3000FBE710B5044600230372FDF781FD04F1D3
:10FD40000C03E268216951602269E1681160236156
:10FD5000E360FDF779FD204602F016FC10BD90F936
:10FD60000830002B01DB00207047012070470000A5
:10FD700008B5024800F02BF8002008BD851E0108D8
:10FD800000B583B0142301930A2300934FF400734A
:10FD9000002201460348FFF729FAFFF715FB03B0DD
:10FDA0005DF804FB8C30010810B50446FDF748FDF2
:10FDB00001F0BCFDFFF71EFE01F082FC2046FFF7BC
:10FDC000DFFF02F03FF801F0A1FC002010BD08B5F4
:10FDD000FFF7EAFF08BD000010B52249022001F03C
:10FDE00071FF0122114640F2071000F083F91DE077
:10FDF0001D4C4FF0FF31206800F02DFA2368998BDD
:10FE00001A48FFF715F940F6B830FFF7B5FA184968
:10FE1000022001F057FF40F2071000F0D7F92068E8
:10FE200000F07FFA1349022001F04CFF0122114635
:10FE300040F2091000F05EF94FF47A70FFF79CFA77
:10FE4000094B1B689C8B21460B48FFF7F1F80B49C7
:10FE5000022001F037FF002CCAD10949022001F02D
:10FE600031FFC5E79430010824730020E030010819
:10FE7000FC3001080C310108A8300108B830010835
:10FE8000C8300108144B1B6913F4803FFAD1124BA0
:10FE90001A6922F07F421A615A6922F001025A61FE
:10FEA0005A6942F002025A615A6922F47E725A611A
:10FEB0005A6942EAC00058615A6942F480325A6174
:10FEC000054B1B6913F4803FFAD1034A536923F0B1
:10FED00002035361002070470020024008B501F57D
:10FEE000803102EBC1211A4602F05AFF08BD08B565
:10FEF00002F056FF08BDB0B500AF0C46CB1DDB08C5
:10FF00006A46A2EBC3039D466D4600F5803122464A
:10FF1000C902684602F044FF0023A34205D2EA5C0E
:10FF2000FF2A05D101339BB2F7E70120BD46B0BDE2
:10FF30000020FBE710B40C4B1B6813F4806F04D057
:10FF4000094C236823F480632360074B5C6944F009
:10FF500001045C61016042605A6922F001025A6149
:10FF600000205DF8044B704700200240F8B51746AA
:10FF70001D46184B1B6913F4803FFAD100F5803001
:10FF800001EBC02600241BE0285D2B19597840EABC
:10FF90000120997840EA0140D9781A7993F805C090
:10FFA00042EA0C2293F806C042EA0C42DB7942EAAC
:10FFB000036240EA0161A019FFF7BCFF0834A4B254
:10FFC000BC42E1D3034B1B6913F4803FFAD10020FC
:10FFD000F8BD00BF002002402DE9F041ADF5006DF5
:10FFE000074614461D46224A136923F07F431361D6
:10FFF0006318B3F5006F09DC0E464FF4006300226E
:020000040801F1
:1000000001466846FFF76AFF00231BE08846C1F5FA
:1000100000622B4692B2FFF7DFFF08EB040292B2B8
:10002000C8F50063A2F50062781C2B4492B200214F
:1000300080B2FFF7D1FF11E09A19E95C0DF80210C8
:1000400001339BB2A342F7D33846FFF71BFF6B4641
:100050004FF4006200213846FFF788FF044B1B690C
:1000600013F4803FFAD100200DF5006DBDE8F0815A
:100070000020024010B50346C0F3CF209BB2C4025B
:10008000A4B21C1B13460A46A1B2FFF7A5FF034BFF
:100090001B6913F4803FFAD1002010BD00200240FC
:1000A000030A0B701070704710B582B00C460DF14A
:1000B00006020DF10701FFF7F3FF9DF80730072B4C
:1000C0000BD00B4A52F82320012C0BD09DF80610C0
:1000D00001238B40936202B010BD023B044A52F8E8
:1000E0002320F1E79DF8061001238B409361F2E78E
:1000F00080400020F0B583B005460C4616460DF151
:1001000006020DF10701FFF7CBFF9DF80710072945
:1001100015D0124B53F82100114FFB6C01228A407D
:100120001343FB6401689DF806305B0003229A408C
:1001300021EA0202012C07D0026003B0F0BD8B1E41
:10014000064A52F82300E7E7012101FA03F31A43B4
:10015000026031462846FFF7A7FFEEE78040002007
:100160000010024010B582B00DF106020DF107013A
:10017000FFF796FF9DF80730072B15D0124A52F86B
:1001800023100C689DF80620500002238340234072
:10019000C340012B0DD00969012303FA02F20A4280
:1001A0000ED1002002B010BD023B074A52F82310C6
:1001B000E7E7496903FA02F20A4203D01846F1E779
:1001C0001846EFE70020EDE78040002000B583B03F
:1001D0000DF106020DF10701FFF762FF9DF80730F0
:1001E000072B0DD00A4A52F8232051699DF80600CA
:1001F00001238340194208D1936103B05DF804FBE9
:10020000023B034A52F82320EFE79362F5E700BF71
:100210008040002070B5044616461D460A4602215D
:10022000FFF72AFD04F11403A3616361A6836572DD
:10023000002070BD38B50D46144601460220FFF778
:1002400050FD034628B100F11402826142618583AA
:100250004472184638BD2DE9F04182B0054601913F
:10026000FDF7EEFA0746AB8BF3B9019B13B3FEF72C
:100270008BFF04460023036305F1140695F80980FB
:10028000FFF730F8B8F1000F19D0B8F1010F1FD007
:10029000019B002B3ADC3846FDF7D6FA01F04EFA06
:1002A000206B02B0BDE8F081013BAB83FDF7CCFAD7
:1002B0000020F6E7FDF7C8FA6FF00100F1E704F15E
:1002C0001403726813607268A26173606661DFE78D
:1002D0006B699E420FD094F8351093F8212091421B
:1002E00001D31B68F5E704F1140259680A605968E4
:1002F000A1615A6063619E42CAD104F1140372681D
:1003000013607268A26173606661C1E704F14C0515
:1003100001AA00212846FFF707FB2846FFF780FACD
:10032000B9E738B50446FDF78BFA054604F1140326
:100330006069834209D01438FFF722F80124284667
:10034000FDF782FA34B9002038BDA38B0133A383B3
:100350000024F4E701F0F2F9F5E710B50C46014688
:100360000320FFF7BEFC034658B100F1140282617E
:1003700042610122828300220262FF218177C277DB
:100380004472184610BD2DE9F04182B00646019135
:10039000FEF7FAFE0446FDF753FA80460023236376
:1003A000336AA34237D1F37F0133F3774046FDF739
:1003B0004BFA002002B0BDE8F081013BB383346208
:1003C00094F83530B377F37F0133F377EEE76FF0CE
:1003D000010525634046FDF737FA2846EAE704F1B0
:1003E00035020221FFF704F822E004F114036A68E1
:1003F00013606A68A2616B606561019B002B3FDC42
:100400004046FDF721FA01F099F9206B002842D00F
:1004100010F1090FCED1B38B002BCED1019B002B55
:10042000D5D094F83520306A90F835309A42D6D33A
:1004300006F11405777A2046FEF754FF002FD4D03A
:10044000012FDAD173699D420FD094F8351093F8DB
:100450002120914201D31B68F5E704F11402596889
:100460000A605968A1615A6063619D42C5D104F177
:1004700014036A6813606A68A2616B606561BCE717
:1004800004F14C0501AA00212846FFF74DFA284641
:10049000FFF7C6F9B4E7FDF7D3F9804686E770B5F4
:1004A0000446FEF771FE0646FDF7CAF90546206AC6
:1004B000B0421BD1E37F013BDBB2E3776BBBA27F92
:1004C00090F835309A4219D104F1140362699342CD
:1004D0001AD0A2F11400206292F82130A377E37FB2
:1004E0000133E377FEF74CFF012417E04FF0FF34B0
:1004F00034632846FDF7A8F9204614E004F11E02F3
:100500000221FEF775FFDFE7A38B0133A3830023EE
:100510002362FF22A2771C4600E000242846FDF754
:1005200093F90CB9002070BD01F008F90020FAE73A
:1005300010B50C4601460420FFF7D3FB034630B14B
:10054000447200F11402826142610022C2611846C5
:1005500010BD002946D0F8B500F114050E4604463A
:10056000FDF76EF90746E3693343E36163699D4232
:1005700001D0002615E000263846FDF765F96EBB70
:100580000020F8BD1E6893F82C2012F0040F04D050
:100590009A6AE36923EA0203E361FEF7F1FE334658
:1005A0000126AB42E8D0A3F1140093F82C2012F0FE
:1005B000010F05D09A6AE1698A43E3D01B68F0E72E
:1005C00012F0020F08D09A6AE1690A4002D09A62DA
:1005D0001E68D8E71B68E4E71B68E2E701F0AEF8A5
:1005E0000020CEE74FF0FF3070472DE9F04182B098
:1005F0000193002900F08A80884615460646FEF7DA
:10060000C3FD044600230363FDF71AF9074615F0FE
:10061000010F0ED0F36938EA030311D0019BF3B93F
:100620006FF001032363FDF70FF9206B02B0BDE803
:10063000F08115F0020FF1D0F36913EA080FEDD045
:10064000089B23B1F36903EA0803089A136015F0C5
:10065000040FE8D0F36923EA0803F361E3E7C4F881
:100660003C8084F8405006F1140596F80980204635
:10067000FEF738FEB8F1000F16D0B8F1010F1CD00C
:10068000019B002B37DC3846FDF7DEF801F056F809
:10069000206B0028CAD1FDF7D3F8089B002BC2D0ED
:1006A000E36B089A1360BEE704F114036A681360F1
:1006B0006A68A2616B606561E2E7736900E01B68CC
:1006C0009D420DD094F8351093F821209142F6D236
:1006D00004F1140259680A605968A1615A606361A3
:1006E0009D42CDD104F114036A6813606A68A26167
:1006F0006B606561C4E704F14C0501AA002128463E
:10070000FFF712F92846FFF78BF8BCE74FF0FF30F0
:100710008CE770B5064600F114040CE0FDF790F884
:10072000054620684FF0FF33C3611438FEF728FEFA
:100730002846FDF789F823689C42EFD1F06901F063
:1007400023FF3046FFF7F5FA002070BDF8B50D46DF
:1007500016461F4601460620FFF7C3FA044660B35B
:10076000477200F1140383614361EB1C9BB223F0D9
:1007700003039BB20384B0B26084043300FB03F034
:1007800001F074FEE06120B10022A262E262226305
:100790000EE02046FFF7BDFF00240EE0E169238C48
:1007A000043303FB02F3C818256BCD5020630132DC
:1007B000638C9342F2DC0023A3842046F8BDF8B595
:1007C000038C934239D316460F460446FDF738F89A
:1007D000256B35B32B682363FDF736F828460023D5
:1007E00040F8043B3246394600F0FFFCFDF728F89C
:1007F0000646E36A03B11D60E562A36AB3B1A38C48
:100800000133A38404F114036069834210D01438C7
:10081000FEF7B6FD3046FDF717F800F08FFF002019
:10082000F8BDFDF711F86FF00200F9E7A562E6E701
:100830003046FDF709F80020F2E74FF0FF30EFE710
:100840002DE9F04F83B00646894692460193FEF7A4
:100850009BFC0446FCF7F4FF0746B38C002B77D1D2
:10086000019B13B14FF0000824E0FCF7EDFF6FF09F
:1008700001008BE03846FCF7E7FF6FF001002063D2
:1008800084E004F114036A6813606A68A2616B6013
:100890006561019B002B40DC3846FCF7D5FF00F07A
:1008A0004DFF206B002871D1FCF7CAFF0746019B62
:1008B000002B40DCB38C002B4DD100232363019B24
:1008C000002BD7D006F1140596F809B02046FEF7A4
:1008D00009FDBBF1000FD4D0BBF1010FD9D1736971
:1008E0009D420FD094F8351093F82120914201D306
:1008F0001B68F5E704F1140259680A605968A161A0
:100900005A6063619D42C4D104F114036A681360A4
:100910006A68A2616B606561BBE700F0B5FE804666
:1009200004F14C0501AA00212846FEF7FDFF2846E8
:10093000FEF776FFB0E700F0A7FEA0EB0808019BEA
:10094000A3EB08030193002BB4DA00230193B1E772
:100950004FF00008AEE7B46A2268B262F26AA242BF
:1009600017D0013BB3843846FCF76EFF328C5245FA
:1009700028BF5246211D484600F037FCFCF760FFB7
:10098000336B23603463FCF75FFF002003B0BDE8E6
:10099000F08F0022F262E4E700B585B01D48FEF753
:1009A00033FB0022012140F20910FFF7A3FB0122D3
:1009B00011464FF48470FFF79DFB0122114640F26F
:1009C0000710FFF797FB144B186803AB00934FF029
:1009D000FF3306220821FFF708FE039B082BF2D104
:1009E0000E49022001F06EF90D49022001F06AF96A
:1009F0000421094B1868FFF7ACFD0A49022001F0F9
:100A000061F940F20910FFF7E1FB42F21070FEF7C6
:100A1000B3FCD8E7203101085873002040310108A9
:100A20005831010878310108024B4AF6AA221A60AF
:100A3000704700BF0030004010B50446FFF7F4FFD8
:100A4000012140F20510FFF72FFB00214FF48370C6
:100A5000FFF72AFB21460120FEF754FE01214FF447
:100A60008370FFF721FB10BD10B50446FFF7DCFFD4
:100A7000012140F20510FFF717FB00214FF48370AE
:100A8000FFF712FB210A0120FEF73CFEE1B2012034
:100A9000FEF738FE01214FF48370FFF705FB10BD10
:100AA00010B50446FFF7C0FF002140F20510FFF724
:100AB000FBFA00214FF48370FFF7F6FA214601207C
:100AC000FEF720FE01214FF48370FFF7EDFA10BD11
:100AD00010B50C46FFF7E4FF2046FFF7C5FF10BD39
:100AE000F8B507460D4616461C462A20FFF7D8FFE4
:100AF000380AFFF7A1FFF8B2FFF79EFF300AFFF7B1
:100B00009BFFF0B2FFF798FF2B20FFF7C9FF280AE1
:100B1000FFF792FFE8B2FFF78FFF200AFFF78CFF85
:100B2000E0B2FFF789FF2C20FFF7BAFFF8BD70B5E0
:100B3000054640F23F13EF2200210846FFF7D0FFA1
:100B4000002609E02846FFF78FFF0134A4B2B4F570
:100B5000A07FF7D30136B6B2EF2E01D80024F6E716
:100B600070BD10B514460B460246FFF7B9FF20468C
:100B7000FFF77AFF10BD2DE9F04F87B007468B468F
:100B8000019392465200C2F1030900260AE0B30025
:100B9000063399440BEB0A01B819019A89B280B265
:100BA000FFF7DFFF564554DC1FFA8AF57B1B9BB22B
:100BB000B4B2ABEB04081FFA88F8019A41460293DD
:100BC0001846FFF7CEFFEB1998B2019A4146039001
:100BD000FFF7C7FF3B1B9AB2104605EB0B0399B218
:100BE000019A05910490FFF7BCFF019A41460298D3
:100BF000FFF7B7FFABEB0505ADB2019A29460498A4
:100C0000FFF7AFFF04EB0B081FFA88F8019A414683
:100C10000398FFF7A6FF3C44A4B2019A2946204658
:100C2000FFF79FFF019D2A4605992046FFF799FF90
:100C30002A4641460298FFF794FF0136B9F1000FAA
:100C4000A5DBA6EB0A039B000A3399440AF1FF3A9D
:100C5000A0E707B0BDE8F08F2DE9F04F85B0BDF8F3
:100C6000384001948246A2EB00088B46A3EB0109B1
:100C7000B8F1000F0DDD01230293B9F1000F14DD6F
:100C800001230393C8451CDD464600252F462C460C
:100C90001BE0B8F1000F05D0C8F100084FF0FF339A
:100CA0000293EAE7CDF80880E7E7B9F1000F05D035
:100CB000C9F100094FF0FF330393E3E7CDF80C903F
:100CC000E0E74E46E1E70134A4B2731C9C4213DC1A
:100CD000019A1FFA8BF11FFA8AF0FFF742FF47448F
:100CE0004D44BE4202DABF1B029B9A44AE42EADA8E
:100CF000AD1B039B9B44E6E705B0BDE8F08F2DE9F3
:100D0000F04190461F46069D01F10F0300F10F02CE
:100D10009BB292B2FFF7E4FE002612E03846FFF7DE
:100D2000A3FE0134E4B2072C08D82B78234113F03A
:100D3000010FF3D04046FFF797FEF2E70135013689
:100D4000F6B21F2E01D80024EDE7BDE8F0810000C7
:100D50002DE9F04F85B08346039190461F46DDF89C
:100D600038904FF0000A5AE00BEBCA0080B20399AA
:100D70000B460F33C21D9BB292B2FFF7B1FE99F83A
:100D80000030203B2F4D05EB0315002612E03846BE
:100D9000FFF76AFE0134E4B2072C08D82B78234110
:100DA00013F0010FF3D04046FFF75EFEF2E7013586
:100DB0000136F6B20F2E01D80024EDE70AF1010A40
:100DC0005FFA8AFA25E00133DBB22D2B1DD899F8A2
:100DD00001001D4D1A011A444FEA420C05EB0C06A6
:100DE00015F90C20D2B296F90150EDB29142EAD138
:100DF000A842E8D1334602330BEBCA0000933B46CE
:100E00004246039980B2FFF77AFF0AF1010A5FFABE
:100E10008AFA09F10109BAF11D0F0FD862B699F8E3
:100E200000305BB172B699F80010A1F12003DBB27B
:100E30005E2B99D97E29ECD90023C6E705B0BDE821
:100E4000F08F00BFAC370108903101082DE9F8435D
:100E500081460F4615469846BDF82060FFF740FED4
:100E600008E03046FFF700FE0134A4B2AC42F8D9E6
:100E70000137BFB2474501D84C46F7E7BDE8F883D4
:100E80002DE9F04F87B00746039089461646049235
:100E90001D4605939DF840A048F230440094FFF7AA
:100EA000D5FF002400944B46324649463846FFF7AA
:100EB000D3FE00942B463A4649463846FFF7CCFE0F
:100EC00000942B46324649463046FFF7C5FE009453
:100ED0002B46324629463846FFF7BEFE0125012D36
:100EE00002D907B0BDE8F08FBAF1000F37D14FF04B
:100EF000000BACB2039BE618B6B204EB09081FFA6C
:100F000088F8049B1F1BBFB2CDF800B043463A4699
:100F100041463046FFF7A0FE059B1C1BA4B2CDF84E
:100F200000B02346324641463046FFF795FEBAF1FF
:100F3000000F17D14FF6FF7BCDF800B023463A469D
:100F400041463846FFF788FECDF800B023463A46C2
:100F500021463046FFF780FE0135EDB2BFE74FF680
:100F6000FF7BC6E74FF0000BE6E7002201E000BF81
:100F7000013241F2707303FB00F39342F7D87047DC
:100F800010B582B000240094234644F6206201216B
:100F90000846FEF711FB224601214FF48270FFF74D
:100FA000A9F82246012140F20510FFF7A3F801221B
:100FB00011464FF48370FFF79DF821462046FFF756
:100FC00087FD21464FF48270FFF76EF86420FFF72B
:100FD000CCFF01214FF48270FFF766F86420FFF721
:100FE000C4FF3620FFF75CFD2046FFF725FDB62045
:100FF000FFF756FD0A20FFF71FFDA220FFF71CFD9B
:101000003A20FFF74DFD0520FFF716FD1120FFF7F1
:1010100047FD4FF44870FFF7A8FF4FF6FF70FFF74A
:1010200086FD2920FFF73CFD02B010BD2DE9F047F9
:1010300084B00D9E0E9F17F0400F19D0DFF850813D
:1010400017F0100F01D027F0010717F0010F12D091
:101050004FF0300C17F0020F14D0002A0EDB17F0FF
:10106000040F26D117F0080F26D14FF0000E0BE029
:10107000DFF82081E4E74FF0200CEBE752424FF01D
:101080002D0E01E04FF0000EA2BB30238DF8003092
:101090000124B44230DC35460C9A521B17F0110F74
:1010A00036D1BEF1000F02D0002A00DD013A13460E
:1010B00026E04FF02B0EE7E74FF0200EE4E7334D2C
:1010C000A5FB0295ED08AA4605EB85054FEA450903
:1010D000A2EB0909524618F8099004AD254405F819
:1010E000109C0134002AD4D00A2BE8D002F00F095A
:1010F0001209F0E70024F5E72546CDE70130134655
:101100005A1E002B04DD8842F8D220230370F5E735
:10111000BEF1000F05D0884201D280F800E0013A0C
:10112000013017F0100F03D013460BE001301A46C0
:10113000531E002A06DD8842F8D280F800C0F5E789
:10114000013015466A1EA54206DD8842F8D23025D8
:101150000570F5E701301446621E002C0ADD4EB121
:101160008842F7D204AC144414F8104C0470F1E730
:10117000013013465A1E002B04DD8842F8D220238A
:101180000370F5E704B0BDE8F08700BFCDCCCCCC50
:10119000AC3E0108C83E010810B4032A21D9CCB2E4
:1011A00010F0030F1FD144EA042444EA0444034628
:1011B00005E01C605C609C60DC60103A10330F2A14
:1011C000F7D802E01C60043A0433032AFAD802E09C
:1011D000197001332246541E002AF9D15DF8044BE0
:1011E00070470346F7E70346F5E710B40F2A29D9FD
:1011F00041EA000313F0030F0FD003461CE00C6814
:101200001C604C685C608C689C60CC68DC60103A48
:10121000103110330F2AF2D806E00346FAE70C68C3
:101220001C60043A04310433032AF8D804E00A7835
:101230001A70224601310133541E002AF7D15DF89D
:10124000044B70470346F7E79AB130B4134604469F
:101250004D1C621C0978217039B114462946013BA6
:10126000F6D104E0002111700132013BFAD130BC0B
:1012700070477047034600E001331A78002AFBD11B
:10128000181A70472DE9F04F87B082460491144632
:10129000059310EB010803D3C34304934FF0FF38C9
:1012A000574601E0013701342378002B00F06281BA
:1012B000252B03D04745F5D23B70F3E7002502E02C
:1012C00045F010051446621C63782D2BF8D02B2BAB
:1012D00008D0202B09D0232B0AD0302B0BD145F07E
:1012E0000105EFE745F00405ECE745F00805E9E7FF
:1012F00045F02005E6E7A3F1300109291CD92A2B86
:101300001CD04FF0FF3613782E2B22D04FF0FF3930
:101310001178682948D06C2946D01446002144E051
:1013200006EB8606730001325E18303E1178A1F19B
:101330003003092BF4D9E6E70026F7E7A21C059B4A
:10134000191D05911E68002EDDDA764245F0100564
:10135000D9E7511C5378A3F1300009281AD92A2B58
:101360001BD00A464FF00009D2E709EB89094FEA82
:101370004903013103EB0209A9F130090A78A2F10E
:101380003003092BF1D90A46B9F1000FC0DA4FF04A
:101390000009BDE74FF00009F0E70232059B191D77
:1013A0000591D3F80090EFE7541C2378253B532B8D
:1013B00000F2AD80DFE803F09BABABABABABABAB0C
:1013C000ABABABABABABABABABABABABABABABAB6D
:1013D000ABABABABABABABABABABABABABABABAB5D
:1013E000ABABABABABABABABABABABA3ABABABAB55
:1013F000ABABABABABAB2AA7ABABABABA7ABABABC6
:10140000ABABA185ABAB49ABBAABABBC15F0100F26
:1014100009D0059B1A1D05921B78474500D23B70E9
:10142000013709E00137013E002EF2DD4745F9D2D0
:1014300020233B70F6E70137013E002E7FF733AFE4
:101440004745F8D220233B70F5E7059B1A1D05920E
:10145000D3F800B0BBF1000F0DD05846FFF70AFFDC
:10146000B9F1000F02DD814500DA484615F0100F92
:1014700006D0002312E0DFF81CB1EEE701371E466C
:10148000731EB04204DA4745F8D220223A70F5E7DD
:101490001E46EEE701370BF1010B0133834207DAF9
:1014A0004745F7D29BF800203A70F3E701371E4614
:1014B000731EB042BFF6F7AE4745F7D220223A700E
:1014C000F4E7B6F1FF3F0ED0059B1A1D05921A688E
:1014D0000295CDF804900096102341463846FFF758
:1014E000A5FD0746DFE645F001050826ECE7474580
:1014F00001D225233B700137D5E6082319E045F0DA
:101500004005102315E045F002050A2311E0474588
:1015100001D225233B707A1C237823B1424500D2A7
:101520007B700237BFE6013C1746BCE60A2300E0A9
:1015300010236C290FD0682912D0059A111D05912E
:1015400012680295CDF80490009641463846FFF7A0
:101550006DFD0746A7E6059A111D05911268F0E793
:10156000059A111D059111688AB215F0020FE8D095
:101570000AB2E6E7049B23B1474507D3002308F8E6
:10158000013CA7EB0A0007B0BDE8F08F00233B70D9
:10159000F7E700BFC03E010808B513460A464FF002
:1015A000FF31FFF76FFE08BD0EB400B582B003AA8D
:1015B00052F8041B0192FFF7EFFF02B05DF804EB55
:1015C00003B07047704700000FB410B582B004AB91
:1015D00053F8042B0193064C7F212046FFF752FE5F
:1015E0002046FFF7EFFF02B0BDE8104004B070479F
:1015F000D8400020E8B110F0FF020AD110F47F4F6C
:101600000BD110F47F0F0ED1030E0A4AD05C1930B3
:101610007047084B985C01307047C0F30723054AB8
:10162000D05C09307047C0F30743024AD05C1130E8
:1016300070477047AC3D010808B5FDF7A5FD0146B0
:101640000E48FDF7F5FC0122114640F20710FEF7A7
:1016500051FDFDF799FD01460948FDF7E9FC41F20E
:101660008830FDF789FEFDF78FFD01460548FDF73F
:10167000DFFC40F20710FEF7A9FDEAE7DC3E0108B7
:10168000003F0108303F0108014B1868704700BF58
:101690005841002008B5094A136801331360FDF76B
:1016A00073FD836C013B836413B1FEF755F908BDEC
:1016B000436C8364FDF7E6FDF7E700BF5841002067
:1016C00000230C4A138006E00B4901EBC302526071
:1016D00041F8332001331F2BF6DD084B1F221A700F
:1016E0000023074A1360074A1360074B5B601B60C7
:1016F000704700BF5C4100206C7B00206C7C0020A8
:10170000707C0020747C0020787C002008B5084B99
:101710001868FFF76FFF0138064B53F83000A0F14F
:101720001402054B1A600830FCF7D7F808BD00BF5B
:10173000747C00206C7B0020707C002038B5FCF7A6
:101740007FF80446154BB3F90030CBB9144B186839
:10175000FFF750FF0138134B53F83010A1F114027A
:10176000114B1B6893420BD0104D28700E4802603D
:101770000F4A127842B1083103F11C00FCF767F8F8
:101780002046FCF761F838BD083103F11C00FCF776
:101790005EF82046FCF758F8F5E700BF5C410020F2
:1017A000747C00206C7B0020707C00206C7C00200E
:1017B000847C002010B50446FCF742F894F93430DC
:1017C00023F00F0343F0010384F8343094F83520FC
:1017D000094B03EBC20304F1140259680A6059680B
:1017E000A1615A606361A16B044A13680B431360E3
:1017F000FCF72AF810BD00BF6C7B0020747C002031
:1018000010B50446FCF71CF804F114036269A169E1
:101810005160A26961691160A361636194F8352028
:10182000084B03EBC20153F83230994202D0FCF767
:101830000BF810BDA16B044A136823EA010313607F
:10184000F5E700BF6C7B0020747C002008B5FBF737
:10185000F7FF034A138801331380FBF7F5FF08BD38
:101860005C41002008B5FBF7EBFF0B4A1388013BF6
:101870001BB21380002B02DDFBF7E6FF08BD134609
:1018800000221A80FBF7E0FF044B1B68002BF5D009
:10189000FFF754FFF2E700BF5C410020707C00209E
:1018A00008B5FDF771FC01460E48FDF7C1FB0122AA
:1018B00011464FF48470FEF71DFCFDF765FC0146F0
:1018C0000948FDF7B5FB42F21070FDF755FDFDF735
:1018D0005BFC01460548FDF7ABFB4FF48470FEF757
:1018E00075FCEAE76C3F0108903F0108C03F010822
:1018F0000138B0F1807F0DD2074B186003F60F530B
:10190000FF221A700020A3F60B531860083B072231
:101910001A6070470120704714E000E000487047EB
:1019200060410020004870476071002010B5FEF74C
:101930006FF80A4B18680A4BA3FB00308009FFF7C9
:10194000D7FFFCF73DFEFFF7E9FF0446FFF7EAFF8C
:101950000146204600F04AFD10BD00BF0C400020AB
:10196000D34D621008B500F063FEFFF793FE00F060
:101970006DFE08BD08B5FDF707FC01460E48FDF7F2
:1019800057FB0122114640F20910FEF7B3FBFDF7A9
:10199000FBFB01460948FDF74BFB44F62060FDF7D1
:1019A000EBFCFDF7F1FB01460548FDF741FB40F27A
:1019B0000910FEF70BFCEAE7FC3F01081C40010898
:1019C0004C40010810B52149022000F07BF90122AA
:1019D000114640F20910FEF78DFB012211464FF42B
:1019E0008470FEF787FB0122114640F20710FEF7D4
:1019F00081FB15E0164C4FF0FF312068FEF72BFC01
:101A00002368998B1348FDF713FB41F28830FDF7EB
:101A1000B3FC2068FEF785FC0F49022000F052F964
:101A20004FF47A70FDF7A8FC094B1B689C8B21468C
:101A30000A48FDF7FDFA0A49022000F043F9002C9C
:101A4000D8D10849022000F03DF9D3E788400108C9
:101A500024730020C0400108DC4001082830010840
:101A60009C400108AC40010800B5ADF6040D1821FA
:101A70007F20FEF740FA20BB4FF40062144968460D
:101A8000FEF735FA379A134B1B689A420BD01A208F
:101A9000FEF7F8F90F4B1B6837936A464FF4006165
:101AA0000B48FEF7E7FA0C4B094A9A600B4BA2F57C
:101AB00060521A600A48FDF7A7FA0DF6040D5DF8AA
:101AC00004FB084A18210848FEF7D4FAD4E700BFFF
:101AD00000D00008DC00000800ED00E0807C002061
:101AE0000C410108F040010800F803080138C0B2B9
:101AF000022801D8012070470020704738B50446FD
:101B00000D46FFF7F3FF00283CD0022C57D0032CE2
:101B100071D0012C37D0601E474B53F820100A6853
:101B200022F001020A6053F820100A6822F00C0229
:101B30000A6053F820301A6812F4004F76D03F4AFA
:101B40001168B1FBF5F189B2490089B2D9603A4B0D
:101B500053F820200021D161516821F49041516057
:101B600053F820108A6822F02A028A6053F8201065
:101B70000A6842F00C020A6053F82020136843F010
:101B80000103136038BD2E4B1A6E42F480421A6670
:101B9000DA6C42F00102DA644FF090431A6822F4E2
:101BA00070121A601A6842F420121A605A6A22F4FB
:101BB0007F625A625A6A42F4EE625A62ABE7204B85
:101BC0009A6D42F400329A65DA6C42F00102DA64EE
:101BD0004FF090431A6822F0F0021A601A6842F03F
:101BE000A0021A601A6A22F47F421A621A6A42F448
:101BF000EE421A628FE7124B9A6D42F480229A6588
:101C0000DA6C42F00402DA640E4B1A6822F47002B5
:101C10001A601A6842F420021A605A6A22F47F425B
:101C20005A625A6A42F4EE425A6274E7034A1168F1
:101C3000B1FBF5F189B289E7984000200C40002003
:101C4000001002400008004838B504460D46FFF772
:101C50004DFF0346A8B100224FF6BA339A420BD883
:101C6000631E0A4951F82330D96911F0800F01D160
:101C70000132F1E7ADB21D854FF6BA339A4202D870
:101C80000123184638BD0023FBE700BF9840002021
:101C9000F8B506460D461746FFF728FF034668B11C
:101CA0000024AC4207D2395D3046FFF7CDFF10B1BA
:101CB0000134A4B2F5E7AC4202D301231846F8BDC3
:101CC0000023FBE770B506460D46FFF70FFF0346FE
:101CD00058B10024295D39B13046FFF7B5FF0346FE
:101CE00018B10134A4B2F5E70123184670BD000015
:101CF00070B504460D46FFF7F9FE064670B10022A6
:101D00004FF6BA339A4211D8631E0C4951F823306A
:101D1000D96911F0200F05D10132F1E700232B70B2
:101D2000304670BD9E8CF6B201232B704FF6BA334D
:101D30009A42F5D900232B70FF26F1E79840002046
:101D400010B50446FFF7D2FE98B1601E094B53F858
:101D50002020136843F020031360074B1B56002B11
:101D600007DB03F01F015B0901228A40034941F8A8
:101D7000232010BD98400020A440002000E100E096
:101D800010B50446FFF7B2FE034670B1013C094BA3
:101D900053F82430DA6912F0200F05D01B6813F0D5
:101DA000200F04D1002300E00023184610BD0123BA
:101DB000FBE700BF984000201F4B1A689A4239D0B9
:101DC00070B5FBF73DFD06461B4B1A689A422ED0B4
:101DD0001C68A4F11405236862685A60636822686D
:101DE0001A6064602460FFF731FD636E0BB1284612
:101DF00098472846FDF7B3FF01280FD0FFF732FDC3
:101E00003046FBF721FD606900F0BEFB2846FDF778
:101E100090FF094B1A689A42D3D10AE02846FDF791
:101E20004DFFFFF71FFD3046FBF70EFD01E0FBF70E
:101E30000BFD70BD704700BF787C002008B5FFF730
:101E4000BBFFFCE710B584B00A4C202303931F238B
:101E500002934FF480730193074B00930023074ACA
:101E600007492046FDF775F92046FDF7ADFA04B0A5
:101E700010BD00BF60710020E07100203D1E010810
:101E80003841010870B582B072B69548FDF7BCF8CC
:101E9000012211464FF48470FEF72CF901221146FD
:101EA00040F20910FEF726F90122114640F2071010
:101EB000FEF720F94FF4E1310220FFF71FFEFFF794
:101EC0005FF8002500954FF49F73EE22022108462B
:101ED000FEF7D6FF834B009348F230432A46142185
:101EE0002320FEF735FF804B009348F230434FF438
:101EF000784232216020FEF72BFF7C4B009348F2A2
:101F000030432A465A210620FEF722FF012400947E
:101F10007823EC226E210420FEF7B2FF744B00936D
:101F200048F230432A467D210620FEF711FF009437
:101F30009B23EC2291210420FEF7A2FF6D4B00931E
:101F400048F230432A46A0210620FEF701FF009404
:101F5000BE23EC22B4210420FEF792FF0220FFF7FB
:101F6000EFFE62B621466448FEF7E2FA634B186062
:101F70002B46042209216248FEF7E8FB614B1860FA
:101F80002A4602216048FEF755F9604B1860214649
:101F90005F48FEF7E2F95F4B18600A2401940923B9
:101FA00000934FF400732A465B495C48FDF71EF925
:101FB0000646019400944FF400732A465849594844
:101FC000FDF714F9584B1860019400944FF4007316
:101FD0002A4656495648FDF709F9564B18600194B0
:101FE00000944FF400732A4653495448FDF7FEF815
:101FF000534B1860019400944FF400732A465149E2
:102000005148FDF7F3F8514B1860019400944FF4D8
:1020100000732A464E494F48FDF7E8F84E4B1860CA
:10202000019400944FF400732A464C494C48FDF744
:10203000DDF84C4B1860019400944FF400732A466D
:1020400049494A48FDF7D2F8494B18600194009479
:102050004FF400732A4647494748FDF7C7F8474BF6
:102060001860019400944FF400732A46444945488F
:10207000FDF7BCF8444B1860019400944FF40073D2
:102080002A4642494248FDF7B1F8424B1860019494
:1020900000944FF400732A463F494048FDF7A6F8E4
:1020A0003F4B1860019400944FF400732A463D4959
:1020B0003D48FDF79BF83D4B1860019400944FF4A8
:1020C00000732A463A493B48FDF790F83A4C2060A5
:1020D0003046FDF779F92068FDF776F902B070BD5A
:1020E00040410108744101088C41010894410108F4
:1020F000A4410108B8410108C441010858730020F7
:10210000D04101084C730020D44101082473002001
:10211000D841010844730020C1260108E0410108AC
:10212000DDE50008EC4101083C7300209909010835
:10213000F841010860730020D5220108044201081B
:1021400048730020C51901081042010834730020AB
:10215000D5FB00081C42010850730020D9FD00087F
:102160002842010864730020A52C010834420108AC
:10217000687B002069260108404201082C7300207A
:102180007D2201084C4201084073002039160108E5
:102190005842010838730020A11801086442010860
:1021A0005473002075190108704201083073002033
:1021B00055F400087C42010828730020174B1B8847
:1021C000012B12D0022B19D010B45A1C92B2134C0E
:1021D0002280013BC854042A13D08B7804339A42DE
:1021E00013D000205DF8044B7047A528EAD00123E6
:1021F0000A4A13800A4A1380002070475A28F6D1F1
:10220000E2E78878064B1880E7E70122034B1A8043
:10221000034B1888033080B21A80E3E7A8400020FF
:10222000AA40002000B583B072B60220FFF7A8FDD7
:1022300018B962B603B05DF804FB0DF10701022086
:10224000FFF756FD9DF80730002BF2D00849FFF745
:10225000B5FF084B18801B889BB2002BE9D00221E8
:10226000054B1868FEF775F9024B00221A80E0E76B
:10227000687300205C7300205873002008B50122A9
:10228000114640F20710FDF735FF0F490220FFF716
:1022900019FD0E4C4FF0FF312068FEF774F80C4921
:1022A0000220FFF70FFD40F20710FDF78FFF41F20C
:1022B0008830FDF761F840F20710FDF787FF2068CE
:1022C000FEF7EDF8E5E700BF844201084473002003
:1022D0009C42010810B582B02448FCF795FE01220B
:1022E000114640F20910FDF705FF012211464FF497
:1022F0008470FDF7FFFE0122114640F20710FDF742
:10230000F9FE4FF0FF330822694619480068FEF7CE
:1023100097FAC0B20028F4D1012000F0A7F80446D3
:10232000134B1B689A8C1349FFF73EF912490220A0
:10233000FFF7C8FC21460220FFF7C4FC0F4C2146E2
:102340000220FFF7BFFC0E490220FFF7BBFC6A46E4
:1023500008210220FFF79CFC21460220FFF7B2FC77
:102360004FF47A70FDF708F8CBE700BFC8420108C8
:102370004C730020E4420108E84201088C31010856
:10238000FC420108164B196842680A4490420FD07B
:1023900053886BB9134B1B68934209D0124B1B68CF
:1023A000934216D05368436053680B44421A9A60B4
:1023B00083680B4498420BD05A884AB90A4A12687B
:1023C000824209D042685A6042680A445B1A9360AC
:1023D0007047054B1860E5E7034A1360F2E700BF5A
:1023E000E4720020E07200200873002070B521F034
:1023F0000303182B06D9C41C24F00304A3F118020C
:10240000A24205D20A4601461148FFF7DDF870BD29
:102410001B1BA3F118010F4A11600F4D2C604FF4E4
:10242000F5522280A3F10C0161600023A360638058
:1024300060180A4E30606252012242804160816021
:1024400007490848FDF7E6FE2A68074B1A60DEE7F1
:102450006043010810730020E4720020E072002045
:1024600058430108E872002008730020002879D042
:10247000F8B50546033525F003053C4B1B689D4226
:1024800072D80B2D00D80C254FF0FF313848FDF7DE
:10249000E2FE384B1E68384B1B689B1B1FE0012374
:1024A0006380A31BC31A354A106803441360344A7F
:1024B0001268934244D9324A136041E05A682D4B66
:1024C0001B6813442C4A13602B4B1B685A88002A44
:1024D0003DD02C4A12689342F0D138E06368234A19
:1024E0001268511B994238D9F41861880029F5D136
:1024F0006068C11A0C39A942F0D305F11807B94236
:10250000CDD3E9180C3170184FF4F55777520027E6
:102510004780676847608360616001236380436828
:102520000C32934201D033449960144B1A6815441D
:102530000C351D60124B1B689D4201D9104B1D606C
:102540004FF4F55323800C4B1B68A342BCD00848C2
:10255000FDF7E7FE04F10C0003E00548FDF7E1FE9E
:102560000020F8BD002070470020FAE7107300201B
:10257000E8720020E4720020087300201473002029
:102580000C730020E0720020002842D038B50446C9
:10259000204A1268824203D81F4A1268824200D839
:1025A00038BDA0F10C054FF0FF311C48FDF753FE7C
:1025B00034F80A3C23B134F80C3CB3F5F55F0AD08B
:1025C0001748FFF701F834F80C3C34F80A2C294678
:1025D0001448FEF7F9FF002324F80A3C4FF4F553A2
:1025E00024F80C3C104B1B68AB4201D90E4B1D600C
:1025F000084B1B68EB1A54F8082C9B1A0B490A6805
:1026000013440B602846FFF7BDFE0448FDF789FE22
:10261000C6E77047E4720020E0720020E8720020F4
:102620000C4301082843010808730020147300209C
:1026300008B5FBF705F9044A13780133DBB21370D0
:10264000FBF702F908BD00BF847C002008B5FBF74A
:10265000F7F8044A1378013BDBB21370FBF7F4F888
:1026600008BD00BF847C002008B5012211464FF44C
:102670008470FDF73FFD0F490220FFF723FB0E4C4E
:102680004FF0FF312068FDF77EFE0C490220FFF776
:1026900019FB4FF48470FDF799FD42F21070FCF7BE
:1026A0006BFE4FF48470FDF791FD2068FDF7F7FE97
:1026B000E5E700BF9C43010844730020B4430108D0
:1026C00000B587B0DBE197490220FFF7FBFA964B94
:1026D000009348F230431F2232216020FEF738FB7E
:1026E000E8E1924B1868FCF7ABFD914B1868FCF7DA
:1026F000A7FD904B1868FCF7A3FD8F4B1868FCF7FB
:102700009FFD8E4B1868FCF79BFD8D4B1868FCF7FE
:1027100097FD8C4B1868FCF793FD8B4B1868FCF702
:102720008FFD8A4B1868FCF78BFD894B1868FCF706
:1027300087FD884B1868FCF783FD874B1868FCF70A
:102740007FFDBDE1854B1B7ADBB2012B2CD0834B87
:102750001B7A002B40F0BA8181490220FFF7B2FAC0
:10276000724B1868FCF716FD714B1868FCF712FDE8
:102770000122114640F20910FDF7BCFC012211466E
:102780004FF48470FDF7B6FC0122114640F20710A9
:10279000FDF7B0FC734B009348F2304300227D21DB
:1027A0000620FEF7D5FA91E16F490220FFF78AFA79
:1027B000604B1868FCF7EEFC5F4B1868FCF7EAFC0E
:1027C0005E4B1868FCF7E6FC5D4B1868FCF7E2FC12
:1027D0005C4B1868FCF7DEFC5B4B1868FCF7DAFC16
:1027E0005A4B1868FCF7D6FC594B1868FCF7D2FC1A
:1027F000584B1868FCF7CEFC574B1868FCF7CAFC1E
:102800004A4B1868FCF7E0FD494B1868FCF7DCFD03
:102810000821564B1868FDF79CFE554B009348F273
:10282000304300227D210620FEF792FA8FE73F4BCE
:102830001868FCF7AFFC3E4B1868FCF7ABFC3E4B4E
:102840001868FCF7A7FC3D4B1868FCF7A3FC3C4B51
:102850001868FCF79FFC3B4B1868FCF79BFC3A4B55
:102860001868FCF797FC394B1868FCF793FC384B59
:102870001868FCF78FFC374B1868FCF78BFC364B5D
:102880001868FCF787FC2B4B1868FCF79DFD0023AC
:10289000072B09DC03F109023049895C06AA1A44B6
:1028A00002F8101C0133F3E7092202A9314B186822
:1028B000FDF785FF10E1294B1B7ADBB2012B5DD0C0
:1028C000264B1B7A002B40F00D812B490220FFF78D
:1028D000F9F9194B1868FCF75DFC184B1868FCF700
:1028E00059FC174B1868FCF755FC0122114640F2C1
:1028F0000910FDF7FFFB012211464FF48470FDF72C
:10290000F9FB0122114640F20710FDF7F3FB154BCE
:10291000009348F2304300227D210620FEF718FA8A
:10292000E0E000BF1044010820440108607300206B
:102930003C73002048730020347300205073002043
:1029400064730020407300202C730020687B0020FB
:102950003073002054730020387300206873002007
:102960006C44010898440108284401085873002069
:10297000504401084C73002000450108B049022072
:10298000FFF7A0F9AF4B1868FCF704FCAE4B1868D2
:10299000FCF700FCAD4B1868FCF7FCFBAC4B18686F
:1029A000FCF7F8FBAB4B1868FCF7F4FBAA4B186874
:1029B000FCF7F0FBA94B1868FCF7ECFBA84B186878
:1029C000FCF7E8FBA74B1868FCF7E4FBA64B18687C
:1029D000FCF7FAFCA54B1868FCF7F6FCA44B18684A
:1029E000FCF7F2FCA34B009348F2304300227D2118
:1029F0000620FEF7ADF963E79F490220FFF762F971
:102A0000904B1868FCF7C6FB8F4B1868FCF7C2FBAD
:102A10008E4B1868FCF7BEFB934B1868FCF7BAFBAB
:102A2000924B1868FCF7B6FB914B1868FCF7B2FBA9
:102A30008A4B1868FCF7AEFB894B1868FCF7AAFBB9
:102A4000884B1868FCF7A6FB814B1868FCF7BCFCA8
:102A5000804B1868FCF7B8FC7F4B1868FCF7B4FC97
:102A6000864B009348F2304300227D210620FEF77A
:102A70006FF942E0824BDB79DBB2942B6DD0814958
:102A80000220FFF71FF9804B186805AB00934FF049
:102A9000FF3306220221FDF7A8FD7C490220FFF743
:102AA00011F9059B022BEAD1754BDB78DBB2662B63
:102AB0003FF409AE724BDB78DBB2772B3FF411AEFB
:102AC0006F4BDB79DBB2902B3FF43CAE6C4BDB7988
:102AD000DBB2912B3FF4ABAE694BDB79DBB2922BCF
:102AE0003FF4E9AE664BDB79DBB2932BC2D1644B8A
:102AF0001B7ADBB2012B3FF47FAF614B1B7A002BBB
:102B0000B8D163490220FFF7DDF8514B1868FCF794
:102B100041FB504B1868FCF73DFB4F4B1868FCF726
:102B200039FB0122114640F20910FDF7E3FA0122B8
:102B300011464FF48470FDF7DDFA0122114640F290
:102B40000710FDF7D7FA534B009348F230430022A9
:102B50007D210620FEF7FCF88CE7494B1B7ADBB29F
:102B6000012B2FD0464B1B7A002B88D14A490220DB
:102B7000FFF7A8F8394B1868FCF70CFB384B1868BE
:102B8000FCF708FB374B1868FCF704FB01221146E1
:102B900040F20910FDF7AEFA012211464FF484709D
:102BA000FDF7A8FA0122114640F20710FDF7A2FA3C
:102BB000384B009348F2304300227D210620FEF777
:102BC000C7F85CE735490220FFF77CF81D4B186811
:102BD000FCF7E0FA1C4B1868FCF7DCFA1B4B186892
:102BE000FCF7D8FA204B1868FCF7D4FA1F4B18688A
:102BF000FCF7D0FA1E4B1868FCF7CCFA144B186897
:102C0000FCF7C8FA134B1868FCF7C4FA124B1868A3
:102C1000FCF7C0FA114B1868FCF7D6FB104B18688C
:102C2000FCF7D2FB0F4B1868FCF7CEFB1C4B009354
:102C300048F2304300227D210620FEF789F891E713
:102C4000B0440108607300203C73002048730020EA
:102C5000407300202C730020687B0020307300201C
:102C60005473002038730020347300205073002008
:102C700064730020E044010830450108584501080C
:102C800068730020E04301085873002000440108E5
:102C90007845010898440108E4450108A045010869
:102CA000C845010808B50122114640F20910FDF798
:102CB00021FA0F490220FFF705F80E4C4FF0FF31C3
:102CC0002068FDF760FB0C490220FEF7FBFF40F295
:102CD0000910FDF77BFA44F62060FCF74DFB40F24B
:102CE0000910FDF773FA2068FDF7D9FBE5E700BF8F
:102CF0000C4601084473002024460108DFF838D050
:102D0000002103E00D4B5B58435004310C480D4B40
:102D100042189A42F6D30C4A02E0002342F8043BE0
:102D20000A4B9A42F9D3FCF72DFFFEF79DFE00F007
:102D300013F8FDF71DF8FEE7FFFF002070460108BD
:102D400000400020AC400020AC400020887C0020E7
:102D500000B500BF00BD000070B50D4E0D4CA41BAA
:102D6000A4100025A54209D10B4E0C4C00F02CF804
:102D7000A41BA4100025A54205D170BD56F825302E
:102D800098470135EEE756F8253098470135F2E7C8
:102D90006046010860460108604601086446010873
:102DA00010B5431E0A44914200D110BD11F8014BE9
:102DB00003F8014FF7E702440346934200D17047FE
:102DC00003F8011BF9E70000F8B500BFF8BC08BC28
:102DD0009E467047F8B500BFF8BC08BC9E467047D9
:102DE000B5DAD2BBB4CEBDF8C8EBC2CCB5C6CFDF26
:102DF000B3CC210D0A000000D4DAC2CCB5C6CFDFB7
:102E0000B3CCD6D0A3ACB5C8B4FDC2CCB5C6CAC28B
:102E1000BCFEB1BBB4A5B7A20D0A0000D4DAC2CC87
:102E2000B5C6CFDFB3CCD6D0A3ACCAD5B5BDC2CC66
:102E3000B5C6CAC2BCFEA3ACC2CCB5C6B7B4D7AA8D
:102E40000D0A00007073723A203078253038780A05
:102E5000000000007230303A203078253038780A8F
:102E6000000000007230313A203078253038780A7E
:102E7000000000007230323A203078253038780A6D
:102E8000000000007230333A203078253038780A5C
:102E9000000000007230343A203078253038780A4B
:102EA000000000007230353A203078253038780A3A
:102EB000000000007230363A203078253038780A29
:102EC000000000007230373A203078253038780A18
:102ED000000000007230383A203078253038780A07
:102EE000000000007230393A203078253038780AF6
:102EF000000000007231303A203078253038780AEE
:102F0000000000007231313A203078253038780ADC
:102F1000000000007231323A203078253038780ACB
:102F200000000000206C723A203078253038780A92
:102F3000000000002070633A203078253038780A8D
:102F40000000000068617264206661756C74206F17
:102F50006E207468726561643A2025730D0A0D0A4B
:102F60000000000068617264206661756C74206FF7
:102F70006E2068616E646C65720D0A0D0A000000B7
:102F800046505520616374697665210D0A00000082
:102F9000D0A1B5C6D7B4CCAC3AC0B6B5C6BFAA00AE
:102FA000D0A1B5C6D7B4CCAC3AC2CCB5C6BFAA0086
:102FB000D0A1B5C6D7B4CCAC3ABAECB5C6BFAA005E
:102FC000D0A1B5C6D7B4CCAC3AB9D82020202020A7
:102FD00020000000000000000000000001020304C7
:102FE00006070809A0860100400D0300801A0600AC
:102FF00000350C0040420F0080841E0000093D0097
:1030000000127A000024F40000366E010048E80146
:10301000006CDC02B5DAD2BBB4CEBDF8C8EBCFDFB2
:10302000B3CC32A3A10A0000B5B1C7B05350CEAAA9
:1030300025640A00CFDFB3CC32C7EBC7F331B8F653
:1030400053500A005350B8F6CAFDCEAA30A3ACCFF5
:10305000DFB3CC32B5C8B4FD0A000000CFDFB3CC7B
:1030600032BBF1C8A131B8F65350A3AC5350BBB931
:10307000CAA325640A000000CFDFB3CC32B3C9B9BC
:10308000A6CACDB7C531B8F653500A006D61696E56
:1030900000000000B5DAD2BBB4CEBDF8C8EBCFDF7C
:1030A000B3CC33A3A10A0000B5B1C7B05350B8F6F2
:1030B000CAFDCEAA25640A00CFDFB3CC33C7EBC765
:1030C000F331B8F653500A005350B8F6CAFDCEAAF1
:1030D00030A3ACCFDFB3CC33B5C8B4FD0A000000D9
:1030E000CFDFB3CC33BBF1C8A131B8F65350A3AC9A
:1030F0005350BBB9CAA325640A000000D7AABBBBC2
:10310000BAECB5C6D7B4CCAC0A000000CFDFB3CC64
:1031100033B3C9B9A6CACDB7C531B8F653500A0002
:103120002D2D2DB5DAD2BBB4CEBDF8C8EBD4CBD0A3
:10313000D0C0B6B5C6CFDFB3CC210D0A0000000069
