:020000040800F2
:10D00000FFFF0020D92101082D22010827D900089F
:10D010002D2201082D2201082D2201080000000008
:10D020000000000000000000000000002D220108A8
:10D030002D220108000000006FD800082D0F010804
:10D040002D2201082D2201082D2201082D22010880
:10D050002D2201082D2201082D2201082D22010870
:10D060002D2201082D2201082D2201082D22010860
:10D070002D2201082D2201082D2201082D22010850
:10D080002D2201082D2201082D2201082D22010840
:10D090002D2201082D2201082D2201082D22010830
:10D0A0002D2201082D2201082D2201082D22010820
:10D0B0002D22010800000000000000002D220108C0
:10D0C0002D2201082D2201082D2201082D22010800
:10D0D0002D2201082D220108C11701082D22010867
:10D0E0002D2201082D220108000000000000000090
:10D0F0000000000000000000000000000000000030
:10D10000000000002D220108000000002D2201086F
:10D1100000000000000000002D2201082D2201085F
:10D120002D2201082D2201082D2201082D2201089F
:10D130002D22010800000000000000000000000097
:10D140002D2201082D2201082D22010800000000D7
:10D150002D2201082D2201082D2201082D2201086F
:10D160002D2201082D2201082D22010800000000B7
:10D170002D2201082D2201080000000000000000FF
:10D180002D2201082D2201082D2201080000000097
:10D8000010B5054C237833B9044B13B10448AFF37A
:10D8100000800123237010BDA04000200000000004
:10D82000C022010808B5034B1BB103490348AFF3FD
:10D83000008008BD00000000A4400020C0220108B4
:10D84000EFF3108072B6704780F310887047444A37
:10D850001368012B04D04FF001031360414A10609C
:10D86000414A116041484FF0805101607047EFF329
:10D87000108272B63A48016851B34FF0000101605E
:10D880003848016891B1EFF309811EF0100F08BF0D
:10D8900021ED108B21E9F00F4FF000041EF0100F66
:10D8A00008BF012441F8044D006801602E49096851
:10D8B000096808C9B1E8F00F002B18BFB1EC108B54
:10D8C00081F309884EF0100E002B18BF2EF0100EB9
:10D8D00082F310884EF0040E704723490860EFF37E
:10D8E000148222F0040282F314881E494FF00000D3
:10D8F00008601B494FF0010008601D484FF47F018C
:10D90000D0F8002041EA0201016018484FF0805130
:10D91000016018480068006800BF80F3088861B69D
:10D9200062B6704700BFEFF308801EF0040F01D00D
:10D93000EFF3098020E9F00F40F804ED40F804ED22
:10D940001EF0040F02D080F3098801E080F30888FC
:10D9500000B500F09DFE5DF804EB4EF0040E70473C
:10D9600014730020107300200C73002004ED00E0FD
:10D9700020ED00E008ED00E0034613F8012B002A3B
:10D98000FBD1181A0138704781F0004102E000BF56
:10D9900083F0004330B54FEA41044FEA430594EA6F
:10D9A000050F08BF90EA020F1FBF54EA000C55EAAA
:10D9B000020C7FEA645C7FEA655C00F0E2804FEA7B
:10D9C0005454D4EB5555B8BF6D420CDD2C4480EA5D
:10D9D000020281EA030382EA000083EA010180EA8D
:10D9E000020281EA0303362D88BF30BD11F0004FDB
:10D9F0004FEA01314FF4801C4CEA113102D0404211
:10DA000061EB410113F0004F4FEA03334CEA13334B
:10DA100002D0524263EB430394EA050F00F0A78063
:10DA2000A4F10104D5F1200E0DDB02FA0EFC22FA5E
:10DA300005F2801841F1000103FA0EF2801843FA52
:10DA400005F359410EE0A5F120050EF1200E012A43
:10DA500003FA0EFC28BF4CF0020C43FA05F3C01881
:10DA600051EBE37101F0004507D54FF0000EDCF1FA
:10DA7000000C7EEB00006EEB0101B1F5801F1BD3A3
:10DA8000B1F5001F0CD349085FEA30004FEA3C0CA7
:10DA900004F101044FEA445212F5800F80F09A809D
:10DAA000BCF1004F08BF5FEA500C50F1000041EBA1
:10DAB000045141EA050130BD5FEA4C0C404141EBA5
:10DAC000010111F4801FA4F10104E9D191F0000FCC
:10DAD00004BF01460020B1FA81F308BF2033A3F14F
:10DAE0000B03B3F120020CDA0C3208DD02F1140C46
:10DAF000C2F10C0201FA0CF021FA02F10CE002F181
:10DB00001402D8BFC2F1200C01FA02F120FA0CFC79
:10DB1000DCBF41EA0C019040E41AA2BF01EB0451C2
:10DB2000294330BD6FEA04041F3C1CDA0C340EDCC0
:10DB300004F11404C4F1200220FA04F001FA02F303
:10DB400040EA030021FA04F345EA030130BDC4F1C1
:10DB50000C04C4F1200220FA02F001FA04F340EAB6
:10DB60000300294630BD21FA04F0294630BD94F067
:10DB7000000F83F4801306BF81F480110134013D4E
:10DB80004EE77FEA645C18BF7FEA655C29D094EABF
:10DB9000050F08BF90EA020F05D054EA000C04BF3D
:10DBA0001946104630BD91EA030F1EBF0021002028
:10DBB00030BD5FEA545C05D14000494128BF41F0C7
:10DBC000004130BD14F580043CBF01F5801130BD2B
:10DBD00001F0004545F0FE4141F470014FF00000B6
:10DBE00030BD7FEA645C1ABF194610467FEA655C67
:10DBF0001CBF0B46024650EA013406BF52EA033509
:10DC000091EA030F41F4002130BD00BF90F0000FF6
:10DC100004BF0021704730B54FF4806404F1320432
:10DC20004FF000054FF0000150E700BF90F0000FEB
:10DC300004BF0021704730B54FF4806404F1320412
:10DC400010F0004548BF40424FF000013EE700BFE2
:10DC500042004FEAE2014FEA31014FEA02701FBF72
:10DC600012F07F4393F07F4F81F06051704732F0A4
:10DC70007F4208BF704793F07F4F04BF41F40021FB
:10DC8000704730B54FF4607401F0004521F0004159
:10DC90001CE700BF50EA010208BF704730B54FF0E3
:10DCA00000050AE050EA010208BF704730B511F0E4
:10DCB000004502D5404261EB41014FF4806404F11C
:10DCC00032045FEA915C3FF4D8AE4FF003025FEAA2
:10DCD000DC0C18BF03325FEADC0C18BF033202EB26
:10DCE000DC02C2F1200300FA03FC20FA02F001FA80
:10DCF00003FE40EA0E0021FA02F11444BDE600BF23
:10DD000070B54FF0FF0C4CF4E06C1CEA11541DBFD1
:10DD10001CEA135594EA0C0F95EA0C0F00F0DEF89C
:10DD20002C4481EA030621EA4C5123EA4C5350EA81
:10DD3000013518BF52EA033541F4801143F48013D2
:10DD400038D0A0FB02CE4FF00005E1FB02E506F063
:10DD50000042E0FB03E54FF00006E1FB03569CF0B8
:10DD6000000F18BF4EF0010EA4F1FF04B6F5007FBE
:10DD700064F5407404D25FEA4E0E6D4146EB060630
:10DD800042EAC62141EA55514FEAC52040EA5E50B9
:10DD90004FEACE2EB4F1FD0C88BFBCF5E06F1ED863
:10DDA000BEF1004F08BF5FEA500E50F1000041EB9A
:10DDB000045170BD06F0004646EA010140EA020047
:10DDC00081EA0301B4EB5C04C2BFD4EB0C0541EA69
:10DDD000045170BD41F480114FF0000E013C00F37E
:10DDE000AB8014F1360FDEBF002001F0004170BDA2
:10DDF000C4F10004203C35DA0C341BDC04F11404BB
:10DE0000C4F1200500FA05F320FA04F001FA05F246
:10DE100040EA020001F0004221F0004110EBD37013
:10DE200021FA04F642EB06015EEA430E08BF20EA3F
:10DE3000D37070BDC4F10C04C4F1200500FA04F3E2
:10DE400020FA05F001FA04F240EA020001F0004174
:10DE500010EBD37041F100015EEA430E08BF20EAE7
:10DE6000D37070BDC4F1200500FA05F24EEA020E2F
:10DE700020FA04F301FA05F243EA020321FA04F05E
:10DE800001F0004121FA04F220EA020000EBD37015
:10DE90005EEA430E08BF20EAD37070BD94F0000F15
:10DEA0000FD101F00046400041EB010111F4801F49
:10DEB00008BF013CF7D041EA060195F0000F18BFFA
:10DEC000704703F00046520043EB030313F4801F36
:10DED00008BF013DF7D043EA0603704794EA0C0FF0
:10DEE0000CEA135518BF95EA0C0F0CD050EA410606
:10DEF00018BF52EA4306D1D181EA030101F0004183
:10DF00004FF0000070BD50EA410606BF10461946AA
:10DF100052EA430619D094EA0C0F02D150EA0136B6
:10DF200013D195EA0C0F05D152EA03361CBF1046F7
:10DF300019460AD181EA030101F0004141F0FE4196
:10DF400041F470014FF0000070BD41F0FE4141F41A
:10DF5000780170BD70B54FF0FF0C4CF4E06C1CEA1A
:10DF600011541DBF1CEA135594EA0C0F95EA0C0FCF
:10DF700000F0A7F8A4EB050481EA030E52EA03358A
:10DF80004FEA013100F088804FEA03334FF08055AB
:10DF900045EA131343EA12634FEA022245EA1115D8
:10DFA00045EA10654FEA00260EF000419D4208BF89
:10DFB000964244F1FD0404F5407402D25B084FEA36
:10DFC0003202B61A65EB03055B084FEA32024FF4E2
:10DFD00080104FF4002CB6EB020E75EB030E22BF3F
:10DFE000B61A754640EA0C005B084FEA3202B6EBFF
:10DFF000020E75EB030E22BFB61A754640EA5C00AE
:10E000005B084FEA3202B6EB020E75EB030E22BF3D
:10E01000B61A754640EA9C005B084FEA3202B6EB3E
:10E02000020E75EB030E22BFB61A754640EADC00FD
:10E0300055EA060E18D04FEA051545EA16754FEA5F
:10E0400006164FEAC30343EA52734FEAC2025FEA7D
:10E050001C1CC0D111F4801F0BD141EA00014FF00C
:10E0600000004FF0004CB6E711F4801F04BF0143DD
:10E070000020B4F1FD0C88BFBCF5E06F3FF6AFAEF9
:10E08000B5EB030C04BFB6EB020C5FEA500C50F189
:10E09000000041EB045170BD0EF0004E4EEA11310C
:10E0A00014EB5C04C2BFD4EB0C0541EA045170BD13
:10E0B00041F480114FF0000E013C90E645EA060E57
:10E0C0008DE60CEA135594EA0C0F08BF95EA0C0F85
:10E0D0003FF43BAF94EA0C0F0AD150EA01347FF4CD
:10E0E00034AF95EA0C0F7FF425AF104619462CE7A4
:10E0F00095EA0C0F06D152EA03353FF4FDAE104607
:10E10000194622E750EA410618BF52EA43067FF457
:10E11000C5AE50EA41047FF40DAF52EA43057FF4E7
:10E12000EBAE12E74FF0FF3C06E000BF4FF0010CF2
:10E1300002E000BF4FF0010C4DF804CD4FEA410C56
:10E140007FEA6C5C4FEA430C18BF7FEA6C5C1BD023
:10E1500001B050EA410C0CBF52EA430C91EA030FA4
:10E1600002BF90EA020F0020704710F1000F91EA01
:10E17000030F58BF994208BF90422CBFD8176FEACF
:10E18000E37040F0010070474FEA410C7FEA6C5C9D
:10E1900002D150EA013C07D14FEA430C7FEA6C5CA4
:10E1A000D6D152EA033CD3D05DF8040B704700BFD0
:10E1B0008446104662468C461946634600E000BF1E
:10E1C00001B5FFF7B7FF002848BF10F1000F01BDF0
:10E1D0004DF808EDFFF7F4FF0CBF012000205DF8BB
:10E1E00008FB00BF4DF808EDFFF7EAFF34BF012040
:10E1F00000205DF808FB00BF4DF808EDFFF7E0FFD9
:10E2000094BF012000205DF808FB00BF4DF808ED29
:10E21000FFF7CEFF94BF012000205DF808FB00BF90
:10E220004DF808EDFFF7C4FF34BF012000205DF872
:10E2300008FB00BF4A0011D212F5001211D20DD511
:10E240006FF47873B3EB62520ED44FEAC12343F0FC
:10E25000004343EA505323FA02F070474FF00000A6
:10E26000704750EA013002D14FF0FF3070474FF055
:10E270000000704753B94AB9002908BF00281CBFE5
:10E280004FF0FF314FF0FF3000F094B9ADF1080CC2
:10E290006DE904CE00F028F8DDF804E0DDE90223A2
:10E2A00004B07047D0B500220D4B06460F46FFF76D
:10E2B00027FDFFF7BFFF0446FFF7A8FC0022094B2C
:10E2C000FFF71EFD02460B4630463946FFF760FB5E
:10E2D000FFF7B0FF0022234610431946D0BD00BF10
:10E2E0000000F03D0000F0412DE9F047089E044693
:10E2F0008846002B4BD18A42154667D9B2FA82F282
:10E300004AB1C2F1200701FA02F320FA07F795405B
:10E3100047EA030894404FEA154E230CB8FBFEF77A
:10E320001FFA85FC0EFB178843EA084307FB0CF134
:10E33000994209D9EB1807F1FF3080F01B8199420F
:10E3400040F21881023F2B445B1AA4B2B3FBFEF0EB
:10E350000EFB103344EA034400FB0CFCA44509D92E
:10E360002C1900F1FF3380F00781A44540F20481AD
:10E3700002382C4440EA0740A4EB0C0400271EB1ED
:10E38000D4400023C6E900433946BDE8F0878B42FC
:10E3900009D9002E00F0EB800027C6E900013846BD
:10E3A0003946BDE8F087B3FA83F7002F47D18B4297
:10E3B00002D3824200F2FA80841A61EB0303012047
:10E3C0009846002EE0D0C6E90048DDE702B9FFDE3E
:10E3D000B2FA82F2002A40F08F80491B4FEA154EB4
:10E3E0001FFA85F80127B1FBFEFC230C0EFB1C1164
:10E3F00043EA014308FB0CF1994207D9EB180CF1F1
:10E40000FF3002D2994200F2CD808446591AA3B25D
:10E41000B1FBFEF00EFB101443EA044408FB00F8C5
:10E42000A04507D92C1900F1FF3302D2A04500F214
:10E43000B6801846A4EB080440EA0C409FE7C7F1F9
:10E44000200CBB4022FA0CFE4EEA030E01FA07F440
:10E4500020FA0CF521FA0CF34FEA1E482543B3FBD2
:10E46000F8F92C0C08FB19331FFA8EFA44EA03431F
:10E4700009FB0AF49C4202FA07F200FA07F10BD9F1
:10E480001EEB030309F1FF3080F087809C4240F2CD
:10E490008480A9F1020973441B1BADB2B3FBF8F0F1
:10E4A00008FB103345EA034400FB0AFAA24508D9E9
:10E4B0001EEB040400F1FF336BD2A24569D9023888
:10E4C000744440EA0940A0FB0289A4EB0A044C45CD
:10E4D000C2464B4654D351D0002E69D0B1EB0A0549
:10E4E00064EB030404FA0CFCFD40FC404CEA050517
:10E4F000C6E90054002747E7C2F1200320FA03F7DA
:10E50000954001FA02F021FA03F34FEA154E384321
:10E51000010CB3FBFEF71FFA85F80EFB173341EA37
:10E52000034107FB08F38B4204FA02F407D9691888
:10E5300007F1FF3C2FD28B422DD9023F2944CB1A41
:10E5400081B2B3FBFEF00EFB103341EA034100FB46
:10E5500008F38B4207D9691800F1FF3C17D28B42B0
:10E5600015D902382944C91A40EA07473BE737461C
:10E57000304609E70746E7E61846FBE64145ABD2D9
:10E58000B8EB020A69EB0E0201381346A4E76046B5
:10E59000E9E7184695E76746D1E781467CE7023808
:10E5A0002C4447E7ACF1020C2B442FE7384608E730
:10E5B0003746E9E6704700BF0020704700207047EB
:10E5C00010B5044C02E054F8043B9847024B9C42BF
:10E5D000F9D310BDC02E0108C42E010800B585B0C6
:10E5E000134800F011FD012211464FF4847001F030
:10E5F000E3FB1049022002F049FE0F4B186803AB01
:10E6000000934FF0FF330622042101F01CFE039B10
:10E61000042BEED10949022002F038FE4FF4847039
:10E6200001F002FC0821044B186801F0C0FDE0E78E
:10E63000D8220108F02201084873002014230108A1
:10E6400070B40646043222F00705A5F1440000220A
:10E6500003E00E4C40F822400132102AF9D945F867
:10E66000201C002245F81C2C45F8182C45F8142CC9
:10E6700045F8102C45F80C3C45F8086C4FF08073B9
:10E6800045F8043C45F8442C70BC7047EFBEADDE45
:10E6900010B504462F4B1B681BB128309847002843
:10E6A00056D0616C2C4802F073FAA16A2B4802F034
:10E6B0006FFAE16A2A4802F06BFA216B294802F0EE
:10E6C00067FA616B284802F063FAA168274802F0F4
:10E6D0005FFAE168264802F05BFA2169254802F0FA
:10E6E00057FA6169244802F053FAA169234802F0FD
:10E6F0004FFAE169224802F04BFA216A214802F000
:10E7000047FA616A204802F043FAA16B1F4802F001
:10E710003FFAE16B1E4802F03BFA216C1D4802F003
:10E7200037FA236813F0040F0AD000F02DFD0146DC
:10E73000194802F02DFA236813F0100F04D0FEE7F9
:10E74000164802F025FAF6E7154802F021FAF6E736
:10E7500010BD00BFBC4000203C2301084C23010831
:10E760005C2301086C2301087C2301088C23010829
:10E770009C230108AC230108BC230108CC23010819
:10E78000DC230108EC230108FC2301080C24010808
:10E790001C2401082C2401083C2401085C240108E5
:10E7A0007824010810B50C461368012B05D0022B04
:10E7B00007D023680133236010BD5368C0B2984767
:10E7C000F7E793681870936801339360F1E730B40A
:10E7D000441C00250570B2B1096809B1002009E0A8
:10E7E00030234370012024E0C1F130012170013059
:10E7F00001341146E9B191FBF3F203FB1211002938
:10E80000F2DB3031F2E715460A6842B93023437033
:10E8100001200EE037322270013501340A463AB148
:10E82000B2FBF3F101FB1322092AF3D83032F2E7ED
:10E83000284630BC7047F8B504460D4617461E46BC
:10E8400005E0324639463020FFF7ACFF0134AC42D8
:10E85000F7DBF8BDF8B504460D4617461E4605E041
:10E86000324639462020FFF79DFF0134AC42F7DBEA
:10E87000F8BD08B50146032002F0CAFC08BD08B582
:10E880000146022002F0C4FC08BD000000000000A8
:10E890002DE9F04F99B00446894692460021139124
:10E8A00014911591169117914C22684603F0F1FCD2
:10E8B000D4E9004520462946FFF7BCFC8046FFF717
:10E8C000A5F902460B4620462946FFF761F80446A3
:10E8D0000D46BAF1000F18D15CA3D3E90023FFF76E
:10E8E0000FFAFFF7DFFC06460F464FF0000B18E06B
:10E8F0000022534BFFF704FA33465E1E002BF7D17C
:10E90000FFF7D0FC06460F46EFE75346F5E7002237
:10E910004B4B20462946FFF7F3F904460D460BF111
:10E92000010B0022474B20462946FFF75BFC38B11C
:10E930000022002320462946FFF74AFC0028E6D0A3
:10E940000BF1FF35B8F1000F23D1302389F80030E7
:10E950004FF0010808F1010B2E2309F8083056EAA0
:10E9600007032CD000244CE0374BA3FB0813DB0833
:10E97000184603EB83035900A8EB010318A901EB28
:10E98000820141F8143C80460132B8F1000FEBD10E
:10E990000CE00022F9E7013A18AB03EB820353F8CD
:10E9A000143C303309F8083008F10108002AF2D18C
:10E9B000D0E7302209F80B209A460BF1010B0AF13F
:10E9C000FF33BAF1000FF4D1002309F80B30584699
:10E9D00019B0BDE8F08F0A22002330463946FFF710
:10E9E00049FC04F1010818AB03EB840444F8602CE3
:10E9F0000A22002330463946FFF73CFC06460F4604
:10EA0000444656EA0703E6D107E018AB03EB84035C
:10EA1000002243F8602C013D0134002DF5D10AE0BD
:10EA2000013C18AB03EB840353F8603C303309F826
:10EA30000B300BF1010B002CF2D1C5E7AFF30080D6
:10EA4000000024400000F03FCDCCCCCC00A0D88505
:10EA5000573476432DE9F04F97B001900C4691461C
:10EA6000212200210DA803F014FC30238DF834304E
:10EA700000230C93012202929B460BE0019D2A4643
:10EA80000CA90D20FFF78EFE2A460CA90A20FFF7DD
:10EA900089FE01342078002800F0B282252841D078
:10EAA0000A28EBD0019A0CA9FFF77CFEF1E746F0AB
:10EAB0000106144600293AD1621C6378203B102BD2
:10EAC00033D801A050F823F013EB00082BEB00081B
:10EAD0002BEB00081FEB00082BEB00082BEB0008CA
:10EAE0002BEB00082BEB00082BEB00082BEB0008AE
:10EAF0002BEB00080DEB00082BEB0008AFEA000839
:10EB00002BEB00082BEB000819EB000846F002067F
:10EB1000CFE746F00406CCE746F00806C9E746F022
:10EB20001006C6E700263146C4E70121C2E70025EA
:10EB30002F4600E00F4667B9601C6378A3F13002EE
:10EB4000092AF7D805EB85056A00303BD51804463D
:10EB5000F1E7621C63782E2B36D04FF00008CDF819
:10EB60000880631C6278682A04D06C2A42D04C2A40
:10EB700043D023465C1C5878A0F15803202B00F2A8
:10EB80003882DFE813F01F01360236023602360201
:10EB900036023602360236023602A201EF013D008D
:10EBA00036029A00360236023D003602360236023E
:10EBB00036022F028401B10136023602F901360213
:10EBC000C001360236021F014FF00008404600E047
:10EBD000384668B9541C5378A3F130010929F7D895
:10EBE00008EB88084FEA480202EB01082246F0E7EA
:10EBF0001446B6E74BF0010BBCE74BF0020BB9E74C
:10EC000009F10407D9F8003016A941F82C3D0A2370
:10EC100001220DA8FFF7DBFD82460DAB03EB0008D8
:10EC20000B9B002B07DB16F0020F17D000F1010A37
:10EC30004FF02B0903E000F1010A4FF02D0916F007
:10EC4000080F19D0B9F1000F10D1019B0CAA294669
:10EC50005046FFF7F0FDAA46B94671E116F00409E7
:10EC6000EDD000F1010A4FF02009E8E7019A0CA964
:10EC70004846FFF797FDE8E716F0010F04D0B9F119
:10EC8000000F13D1B9465BE1019B0CAA29465046FF
:10EC9000FFF7E0FDB9F1000F01D1B94650E1019A4B
:10ECA0000CA94846FFF77EFDB94649E1019A0CA937
:10ECB0004846FFF777FDB94642E109F10C07D9E96B
:10ECC000019ACDE9089A0022002348465146FFF7F1
:10ECD00089FA40B916F0020F2BD116F004090DD0B5
:10ECE0004FF020090AE0CDF810900AF10043059397
:10ECF0009DED047B8DED087B4FF02D09029BDBB968
:10ED0000BBF1000F1FD106220DA908A8FFF7C0FD17
:10ED1000804616F0080F23D0B9F1000F1AD1019BDD
:10ED20000CAA29464046FFF786FDA8460DF1340996
:10ED300037E04FF02B09E1E742460DA908A8FFF79D
:10ED4000A7FD8046E5E706220DA908A8FFF7A0FD6C
:10ED50008046DEE7019A0CA94846FFF723FDDEE76F
:10ED600016F0010F08D0B9F1000FDFD0019A0CA9FD
:10ED70004846FFF717FDD9E7019B0CAA29464046F4
:10ED8000FFF768FDB9F1000FD0D0019A0CA94846F1
:10ED9000FFF708FDCAE709F10109019A0CA9FFF77D
:10EDA00001FD99F800000028F5D116F0010F01D1FE
:10EDB000B9466EE6019B0CAA29464046FFF74AFD7C
:10EDC000B94666E609F104030393D9F8003016A9A1
:10EDD00041F83C3D102300220DA8FFF7F8FC8246C5
:10EDE0000DAB03EB000816F0080921D016F010094E
:10EDF00010D1019B0CAA29465046FFF71CFDAA46DC
:10EE000016F0100F00F0AB80B9F1000F2FD0DDF835
:10EE10000C9095E0DDF804904A460CA93020FFF7ED
:10EE2000C1FC4A460CA97820FFF7BCFCB946E0E7D4
:10EE300016F0010FE4D116F0100901D000F1020A1A
:10EE4000019B0CAA29465046FFF704FDB9F1000FBB
:10EE5000D6D0DDF804904A460CA93020FFF7A2FC7A
:10EE60004A460CA97820FFF79DFCB946C8E7019FE8
:10EE70003A460CA93020FFF795FC3A460CA97820B9
:10EE8000FFF790FC0AF1020ADDF80C9058E009F156
:10EE90000407D9F8003016A941F83C3D08230022A8
:10EEA0000DA8FFF794FC8246B9460DAB03EB0A08A8
:10EEB00016F0080F36D116F0010F41D1019B0CAAB4
:10EEC00029465046FFF7C6FC3AE009F10407D9F895
:10EED000003016A941F83C3D022300220DA8FFF79F
:10EEE00076FC8246B946E0E709F10407D9F800301C
:10EEF00016A941F83C3D102300220DA8FFF767FC3E
:10EF00008246B946D1E709F10407D9F8003016A9BD
:10EF100041F83C3D0A2300220DA8FFF758FC824629
:10EF2000B946C2E7019B0CAA29465046FFF783FC6D
:10EF3000AA4605E008F1FF38019A0CA9FFF732FC58
:10EF400098F800000028F5D116F0010F3FF4A1ADAC
:10EF5000019B0CAA29465046FFF77CFC99E5DDF899
:10EF60000C90EDE709F10405019A0CA999F800004D
:10EF7000FFF718FCA9468CE509F1040AD9F80070DE
:10EF8000002F3BD03846FEF7F7FC814616F001060D
:10EF90000FD0B8F1000F17D03878C0B1B8F1000F1A
:10EFA000FADD08F1FF380137019A0CA9FFF7FAFBE7
:10EFB000F2E7019B0CAA2946FFF74CFCE9E7013771
:10EFC000019A0CA9FFF7EEFB38780028F7D10EB9AB
:10EFD000D1465EE5019B0CAA29464846FFF73AFC5C
:10EFE000D14656E5D9F800300C9A1A6009F10409A7
:10EFF0004FE5019A0CA9FFF7D5FB4AE5D14648E554
:10F000000C9817B0BDE8F08F0FB400B585B00123A0
:10F010000193064B029306AA52F8041B01A8FFF7BE
:10F0200019FD05B05DF804EB04B0704773E8000803
:10F030000FB400B585B001230193064B029306AAD5
:10F0400052F8041B01A8FFF705FD05B05DF804EBBD
:10F0500004B070477FE8000838B5144B1C68FEF711
:10F06000EFFB0546204601F0AFFE042384F8343060
:10F0700004F14C0000F01AFA204600F0D2FC0128FE
:10F080000DD004F114020A4B19684A6061611A60DC
:10F09000A3612846FEF7D8FB01F034FE38BDA36F0C
:10F0A000002BEED1204600F06BFCF2E7607C0020E4
:10F0B000687C0020F0B583B00446089809999DF853
:10F0C00028500B9E04F11407A761676122626362F6
:10F0D000A062E1620A46232101F042FBA16AE36AD1
:10F0E0001A1F104B0A44616A206AFFF7A9FAE0610F
:10F0F00084F8365084F835500025A5636664A6640C
:10F10000256384F83450A567E5670195009523468B
:10F11000054A214604F14C0000F0B4F9284603B03A
:10F12000F0BD00BF59F000082DF1000810B56FF0D8
:10F130000102026300F11402416984694C60816933
:10F1400044690C608261426101F018FE01F0DAFD51
:10F1500010BDF0B585B005460C4616461F460A465A
:10F16000012100F0EBFB0D9B03939DF830300293DF
:10F170000B9B01930A9B00933B463246214628464F
:10F18000FFF798FF05B0F0BD014B1868704700BF4E
:10F19000607C002010B5044690F8343013F00F0F57
:10F1A0001BD104F14C0000F081F9042384F83430C1
:10F1B000204600F036FC012801D1A36F83B1FEF791
:10F1C0003FFB04F11402084B19684A6061611A6040
:10F1D000A361FEF739FB002010BD01F0F5FDE0E76B
:10F1E000204600F0CDFBF6E7687C00202DE9F041D9
:10F1F00084B005460F4690461E460146012000F0A9
:10F20000D2FBD0B10446304602F004FC80B10B9A28
:10F2100003929DF8282002920196009043463A46B8
:10F2200029462046FFF746FF204604B0BDE8F0819E
:10F23000204600F0E0FB0024F6E70024F4E700009D
:10F2400010B5044690F8343013F00F0F14D104F1C8
:10F250004C0000F02BF9042384F83430FEF7F0FA68
:10F2600004F11402064B19684A6061611A60A361D7
:10F27000FEF7EAFA002010BD01F0A6FDE7E700BFA7
:10F28000687C002010B5FEF7DBFA144B1B6893F87E
:10F29000342002F00F02012A03D15A6999698A4287
:10F2A00003D1FEF7D1FA002010BD03F11404516020
:10F2B0009A69596911609C615C6193F83510084A3C
:10F2C00002EBC10251680C605168996154605A6147
:10F2D000FEF7BAFA01F016FDE5E700BF607C0020FA
:10F2E0005C7B002038B590F8343003F00F03012B1D
:10F2F00017D10446FEF7A4FA054694F9343023F0FA
:10F300000F0343F0020384F83430204601F05CFD23
:10F3100004F14C0000F046F92846FEF795FA00206B
:10F3200038BD4FF0FF30FBE7F0B583B002AD45F8D4
:10F33000040DFEF785FA07460E4B1C682046FFF7C2
:10F34000D1FF04F14C062A460021304600F04EF968
:10F35000304600F0C7F83846FEF776FA01F0D2FCE6
:10F36000236B13F1020F02D0002003B0F0BD002385
:10F370002363F9E7607C002008B5FFF7D5FF08BDDF
:10F3800038B590F8343003F00F03022B19D104463E
:10F39000FEF756FA054604F114036269A16951604B
:10F3A000A26961691160A361636104F14C0000F01E
:10F3B000F9F82846FEF748FA204601F0DFFC002065
:10F3C00038BD4FF0FF30FBE708B590F8361080F8F5
:10F3D000351001228A408263022280F83420FFF730
:10F3E000CFFFFFF7D1FE08B101F08CFC002008BD73
:10F3F00070B50446012929D01546022902D011B35F
:10F40000002012E0FEF71CFA064694F8343003F0B0
:10F410000F03012B0AD02A7884F83520012393406A
:10F42000A3633046FEF710FA002070BD204601F0BD
:10F43000CBFC2A7884F8352001239340A36320462F
:10F4400001F09CFCEDE7FFF7BFFFEEE7FFF7F8FEEA
:10F45000EBE710B49DF8044024F001044472C1614C
:10F4600002620022826243621346002B02DD5DF8D5
:10F47000044B70479A1C00EBC202111D9160516051
:10F480000133F2E770B582B0044615461E460A46BF
:10F490000A2100F053FA9DF81C300093069B324677
:10F4A00029462046FFF7D5FF02B070BD70B504466F
:10F4B000FEF7C6F90022002A06DDFEF7C5F9204650
:10F4C00000F05EFA002070BD931C04EBC303191D0D
:10F4D0005D689E686E609D685E682E609960596088
:10F4E0000132E8E770B582B00446FEF7A9F90022C0
:10F4F000002A26DD637A23F001036372FEF7A4F984
:10F5000001F0A6FB636A1844A062FEF799F9224B4A
:10F510000193002141B3214A136801331360019B19
:10F5200004F1140219684A60196861611A60A361E4
:10F53000637A43F001036372FEF786F9002002B09C
:10F5400070BD931C04EBC303191D5D689E686E605B
:10F550009D685E682E60996059600132C8E702AB11
:10F5600003EB810343F8042C02AB03EB810353F854
:10F57000045CCB00084A1A44526895420AD02A68B3
:10F580001433D31A9B6AA56AAB42E8D05B1B044DC7
:10F59000AB42E4D80131BDE7C4400020C0400020A8
:10F5A000FEFFFF7F437A13F0010F1CD070B50446B5
:10F5B000FEF746F90022002A07DDFEF745F9637AD7
:10F5C00023F001036372002070BD931C04EBC3039E
:10F5D000191D5D689E686E609D685E682E6099600A
:10F5E00059600132E7E74FF0FF307047032905D833
:10F5F000DFE801F00602090E436A1360002070473D
:10F6000013684362FAE7437A23F002034372F5E793
:10F61000437A43F002034372F0E70000F8B501F0CB
:10F6200017FB0746FEF70CF90546214B1C689C4268
:10F6300003D12846FEF708F9F8BDA4F11406636962
:10F64000FF1A1C4B9F42F4D80021002910DDA3684B
:10F65000E068984701F0FCFA074614F80B3C03F009
:10F660000302032A1BD023F0010304F80B3CDCE760
:10F67000A4F114028B1CDB001A440432234453F817
:10F68000100C53F80C7C476053F80C0C53F8107CAA
:10F69000076043F80C2C43F8102C0131D5E723F018
:10F6A000010304F80B3C3046FFF71CFFBDE700BF29
:10F6B000C4400020FEFFFF7F002303B170470449D0
:10F6C00001EBC302526041F833200133F5E700BF7C
:10F6D000C44000202F4B1B6813F0080F16D12D4B90
:10F6E000D3F89430C3F303232B4A52F82310294A4A
:10F6F000936803F00C030C2B48D8DFE803F00C47A9
:10F700004747194747471D4747472100214B1B687B
:10F71000C3F30313E8E7214B19601E4B9B68C3F347
:10F7200003131F4AD15C1D4A1368CB401360704716
:10F730001A4B1C4A1A60F0E7184B1B4A1A60ECE798
:10F74000144BDA6802F00302DB68C3F302130133DF
:10F75000022A04D0032A15D0B1FBF3F302E0114AC8
:10F76000B2FBF3F30B49CA68C2F3062203FB02F3B0
:10F77000CA68C2F3416201325200B3FBF2F3074A96
:10F780001360CAE7084AB2FBF3F3EBE7034B1960D7
:10F79000C3E700BF00100240982401080040002089
:10F7A000882401080024F40000127A0082B0234B60
:10F7B0009B6D13F0805F15D0214B1B6803F4C06371
:10F7C000B3F5007F21D000211E4A136823F0070300
:10F7D0000B431360136803F007038B421FD0002014
:10F7E00002B07047154A936D43F080539365936D53
:10F7F00003F080530193019B114B1B6803F4C0631A
:10F80000916D21F080519165DAE7802803D9A02815
:10F8100003D90221D8E70021D6E70121D4E7A2F5D8
:10F820008052136843F008031360136823F0F00359
:10F8300043F0B00313600120D2E700BF0010024084
:10F84000007000400020024010B5114CD4F8883000
:10F8500043F47003C4F888300E4B1A6842F001027A
:10F860001A60002199601A6822F0A85222F410222E
:10F870001A604FF48052DA601A6822F480221A600B
:10F880009961B020FFF792FF4FF00063A36010BDB5
:10F8900000ED00E00010024010B51849022001F010
:10F8A000F5FC15E0164C4FF0FF31206800F001FB2D
:10F8B0002368998B1348FFF7BBFB4FF4FA60FFF7FF
:10F8C0005BFD206800F05BFB0F49022001F0DEFCCD
:10F8D0004FF47A70FFF750FD094B1B689C8B214653
:10F8E0000A48FFF7A5FB0A49022001F0CFFC002CD3
:10F8F000D8D10849022001F0C9FCD3E7C824010887
:10F9000018730020102501082C250108DC240108AB
:10F91000E8240108F82401080023062B09DC1A0159
:10F9200005498A5C824201D00133F6E701EB0310FE
:10F9300070470020704700BF04400020F8B504461F
:10F940000E4617460846FFF7E7FF054601F062FA44
:10F9500001F06CFA66F07F062672082239462046CE
:10F9600000F056FFFDF76CFF2A1D04F10C036968D7
:10F970004B606968E1606B602261FDF765FFF8BD6F
:10F9800010B5044600230372FDF75AFF04F10C037F
:10F99000E268216951602269E16811602361E360D6
:10F9A000FDF752FF10BDF8B507460E46FFF7B4FF4E
:10F9B0000546C06802F02EF8D8B10446EA68002176
:10F9C00000F0CEFE277200236372082231462046E3
:10F9D00000F01EFFFDF734FF2A1D04F10C036968D7
:10F9E0004B606968E1606B602261FDF72DFF204686
:10F9F000F8BD0024FBE710B5044600230372FDF7B1
:10FA00001FFF04F10C03E268216951602269E1687B
:10FA100011602361E360FDF717FF204602F088F8CC
:10FA200010BD90F90830002B01DB00207047012049
:10FA30007047000008B5024800F02BF8002008BD10
:10FA4000C114010800B583B0142301930A23009365
:10FA50004FF40073002201460348FFF7C7FBFFF78E
:10FA6000B3FC03B05DF804FB4025010810B5044663
:10FA7000FDF7E6FE01F03EFAFFF71EFE01F004F985
:10FA80002046FFF7DFFF01F0FBFC01F023F9002027
:10FA900010BD08B5FFF7EAFF08BD000010B5224908
:10FAA000022001F0F3FB0122114640F2071000F0A2
:10FAB00083F91DE01D4C4FF0FF31206800F0F9F98B
:10FAC0002368998B1A48FFF7B3FA40F6B830FFF76E
:10FAD00053FC1849022001F0D9FB40F2071000F056
:10FAE000A3F9206800F04BFA1349022001F0CEFB85
:10FAF0000122114640F2091000F05EF94FF47A70CD
:10FB0000FFF73AFC094B1B689C8B21460B48FFF71B
:10FB10008FFA0B49022001F0B9FB002CCAD1094928
:10FB2000022001F0B3FBC5E7482501081873002047
:10FB300094250108B0250108C02501085C250108AD
:10FB40006C2501087C250108144B1B6913F4803FC8
:10FB5000FAD1124B1A6922F07F421A615A6922F0D7
:10FB600001025A615A6942F002025A615A6922F44A
:10FB70007E725A615A6942EAC00058615A6942F479
:10FB800080325A61054B1B6913F4803FFAD1034A56
:10FB9000536923F0020353610020704700200240A4
:10FBA00008B501F5803102EBC1211A4602F066FB6F
:10FBB00008BD08B502F062FB08BDB0B500AF0C4649
:10FBC000CB1DDB086A46A2EBC3039D466D4600F5DC
:10FBD00080312246C902684602F050FB0023A3424E
:10FBE00005D2EA5CFF2A05D101339BB2F7E7012079
:10FBF000BD46B0BD0020FBE710B40C4B1B6813F4EE
:10FC0000806F04D0094C236823F480632360074B82
:10FC10005C6944F001045C61016042605A6922F051
:10FC200001025A6100205DF8044B70470020024039
:10FC3000F8B517461D46184B1B6913F4803FFAD1DF
:10FC400000F5803001EBC02600241BE0285D2B1955
:10FC5000597840EA0120997840EA0140D9781A7928
:10FC600093F805C042EA0C2293F806C042EA0C421F
:10FC7000DB7942EA036240EA0161A019FFF7BCFFA9
:10FC80000834A4B2BC42E1D3034B1B6913F4803F98
:10FC9000FAD10020F8BD00BF002002402DE9F0415C
:10FCA000ADF5006D074614461D46224A136923F040
:10FCB0007F4313616318B3F5006F09DC0E464FF400
:10FCC0000063002201466846FFF76AFF00231BE03D
:10FCD0008846C1F500622B4692B2FFF7DFFF08EBC2
:10FCE000040292B2C8F50063A2F50062781C2B44AE
:10FCF00092B2002180B2FFF7D1FF11E09A19E95CBE
:10FD00000DF8021001339BB2A342F7D33846FFF738
:10FD10001BFF6B464FF4006200213846FFF788FF57
:10FD2000044B1B6913F4803FFAD100200DF5006DE0
:10FD3000BDE8F0810020024010B50346C0F3CF209B
:10FD40009BB2C402A4B21C1B13460A46A1B2FFF721
:10FD5000A5FF034B1B6913F4803FFAD1002010BDAF
:10FD600000200240030A0B701070704710B582B07B
:10FD70000C460DF106020DF10701FFF7F3FF9DF8A8
:10FD80000730072B0BD00B4A52F82320012C0BD045
:10FD90009DF8061001238B40936202B010BD023B18
:10FDA000044A52F82320F1E79DF8061001238B4006
:10FDB0009361F2E774400020F0B583B005460C462D
:10FDC00016460DF106020DF10701FFF7CBFF9DF876
:10FDD0000710072915D0124B53F82100114FFB6C67
:10FDE00001228A401343FB6401689DF806305B00E2
:10FDF00003229A4021EA0202012C07D0026003B0DC
:10FE0000F0BD8B1E064A52F82300E7E7012101FAF4
:10FE100003F31A43026031462846FFF7A7FFEEE7D7
:10FE2000744000200010024000B583B00DF10602BE
:10FE30000DF10701FFF796FF9DF80730072B0DD056
:10FE40000A4A52F8232051699DF806000123834095
:10FE5000194208D1936103B05DF804FB023B034AE9
:10FE600052F82320EFE79362F5E700BF74400020CB
:10FE700070B5044616461D460A460221FFF75EFD90
:10FE800004F11403A3616361A6836572002070BD51
:10FE900038B50D46144601460220FFF784FD03469F
:10FEA00028B100F1140282614261858344721846D0
:10FEB00038BD2DE9F04182B005460191FDF7C0FC47
:10FEC0000746AB8BF3B9019B13B3FFF75DF904460B
:10FED0000023036305F1140695F80980FFF702FA81
:10FEE000B8F1000F19D0B8F1010F1FD0019B002B02
:10FEF0003ADC3846FDF7A8FC00F004FF206B02B0A6
:10FF0000BDE8F081013BAB83FDF79EFC0020F6E7E6
:10FF1000FDF79AFC6FF00100F1E704F11403726839
:10FF200013607268A26173606661DFE76B699E426D
:10FF30000FD094F8351093F82120914201D31B681B
:10FF4000F5E704F1140259680A605968A1615A6022
:10FF500063619E42CAD104F114037268136072682F
:10FF6000A26173606661C1E704F14C0501AA00213A
:10FF70002846FFF73BFB2846FFF7B4FAB9E738B548
:10FF80000446FDF75DFC054604F1140360698342F5
:10FF900009D01438FFF7F4F901242846FDF754FC82
:10FFA00034B9002038BDA38B0133A3830024F4E7C8
:10FFB00000F0A8FEF5E710B50C4601460320FFF758
:10FFC000F2FC034658B100F1140282614261012241
:10FFD000828300220262FF218177C2774472184631
:10FFE00010BD2DE9F04182B006460191FFF7CCF833
:10FFF0000446FDF725FC804600232363336AA342B1
:020000040801F1
:1000000037D1F37F0133F3774046FDF71DFC002025
:1000100002B0BDE8F081013BB383346294F835301F
:10002000B377F37F0133F377EEE76FF001052563D4
:100030004046FDF709FC2846EAE704F135020221B3
:10004000FFF7D6F922E004F114036A6813606A68C6
:10005000A2616B606561019B002B3FDC4046FDF7B0
:10006000F3FB00F04FFE206B002842D010F1090F87
:10007000CED1B38B002BCED1019B002BD5D094F8E1
:100080003520306A90F835309A42D6D306F11405FF
:10009000777A2046FFF726F9002FD4D0012FDAD146
:1000A00073699D420FD094F8351093F82120914246
:1000B00001D31B68F5E704F1140259680A60596816
:1000C000A1615A6063619D42C5D104F114036A685D
:1000D00013606A68A2616B606561BCE704F14C055E
:1000E00001AA00212846FFF781FA2846FFF7FAF90E
:1000F000B4E7FDF7A5FB804686E770B50446FFF739
:1001000043F80646FDF79CFB0546206AB0421BD12A
:10011000E37F013BDBB2E3776BBBA27F90F8353026
:100120009A4219D104F11403626993421AD0A2F1E0
:100130001400206292F82130A377E37F0133E37744
:10014000FFF71EF9012417E04FF0FF34346328460F
:10015000FDF77AFB204614E004F11E020221FFF7AE
:1001600047F9DFE7A38B0133A38300232362FF2238
:10017000A2771C4600E000242846FDF765FB0CB979
:10018000002070BD00F0BEFD0020FAE710B50C465F
:1001900001460420FFF707FC034630B1447200F12A
:1001A0001402826142610022C261184610BD00291A
:1001B00046D0F8B500F114050E460446FDF740FBA5
:1001C0000746E3693343E36163699D4201D000263A
:1001D00015E000263846FDF737FB6EBB0020F8BD62
:1001E0001E6893F82C2012F0040F04D09A6AE36979
:1001F00023EA0203E361FFF7C3F833460126AB426B
:10020000E8D0A3F1140093F82C2012F0010F05D0D0
:100210009A6AE1698A43E3D01B68F0E712F0020FA3
:1002200008D09A6AE1690A4002D09A621E68D8E74B
:100230001B68E4E71B68E2E700F064FD0020CEE7FE
:100240004FF0FF3070472DE9F04182B00193002953
:1002500000F08A80884615460646FEF795FF04465C
:1002600000230363FDF7ECFA074615F0010F0ED0EB
:10027000F36938EA030311D0019BF3B96FF001036E
:100280002363FDF7E1FA206B02B0BDE8F08115F0C1
:10029000020FF1D0F36913EA080FEDD0089B23B1E8
:1002A000F36903EA0803089A136015F0040FE8D015
:1002B000F36923EA0803F361E3E7C4F83C8084F8B8
:1002C000405006F1140596F809802046FFF70AF819
:1002D000B8F1000F16D0B8F1010F1CD0019B002B14
:1002E00037DC3846FDF7B0FA00F00CFD206B002833
:1002F000CAD1FDF7A5FA089B002BC2D0E36B089A80
:100300001360BEE704F114036A6813606A68A261AF
:100310006B606561E2E7736900E01B689D420DD088
:1003200094F8351093F821209142F6D204F114028A
:1003300059680A605968A1615A6063619D42CDD1D4
:1003400004F114036A6813606A68A2616B606561F6
:10035000C4E704F14C0501AA00212846FFF746F93D
:100360002846FFF7BFF8BCE74FF0FF308CE770B5C9
:10037000064600F114040CE0FDF762FA0546206819
:100380004FF0FF33C3611438FEF7FAFF2846FDF73C
:100390005BFA23689C42EFD1F06901F0C9FB30465B
:1003A000FFF729FB002070BDF8B50D4616461F4625
:1003B00001460620FFF7F7FA044660B3477200F1E2
:1003C000140383614361EB1C9BB223F003039BB2D4
:1003D0000384B0B26084043300FB03F001F01AFB25
:1003E000E06120B10022A262E26222630EE02046B8
:1003F000FFF7BDFF00240EE0E169238C043303FB0B
:1004000002F3C818256BCD5020630132638C9342F0
:10041000F2DC0023A3842046F8BDF8B5038C934298
:1004200039D316460F460446FDF70AFA256B35B355
:100430002B682363FDF708FA2846002340F8043BA5
:100440003246394600F0B5F9FDF7FAF90646E36A97
:1004500003B11D60E562A36AB3B1A38C0133A38429
:1004600004F114036069834210D01438FEF788FF4A
:100470003046FDF7E9F900F045FC0020F8BDFDF736
:10048000E3F96FF00200F9E7A562E6E73046FDF711
:10049000DBF90020F2E74FF0FF30EFE72DE9F04FF6
:1004A00083B00646894692460193FEF76DFE0446E8
:1004B000FDF7C6F90746B38C002B77D1019B13B12A
:1004C0004FF0000824E0FDF7BFF96FF001008BE06A
:1004D0003846FDF7B9F96FF00100206384E004F1BC
:1004E00014036A6813606A68A2616B606561019BAE
:1004F000002B40DC3846FDF7A7F900F003FC206B29
:10050000002871D1FDF79CF90746019B002B40DCC8
:10051000B38C002B4DD100232363019B002BD7D03C
:1005200006F1140596F809B02046FEF7DBFEBBF194
:10053000000FD4D0BBF1010FD9D173699D420FD008
:1005400094F8351093F82120914201D31B68F5E708
:1005500004F1140259680A605968A1615A60636124
:100560009D42C4D104F114036A6813606A68A261F1
:100570006B606561BBE700F06BFB804604F14C05E6
:1005800001AA00212846FFF731F82846FEF7AAFF06
:10059000B0E700F05DFBA0EB0808019BA3EB0803AC
:1005A0000193002BB4DA00230193B1E74FF0000868
:1005B000AEE7B46A2268B262F26AA24217D0013B87
:1005C000B3843846FDF740F9328C524528BF524675
:1005D000211D484600F0EDF8FDF732F9336B23603A
:1005E0003463FDF731F9002003B0BDE8F08F00223D
:1005F000F262E4E72DE9F04784B00D9E0E9F17F0FC
:10060000400F19D0DFF8508117F0100F01D027F0FC
:10061000010717F0010F12D04FF0300C17F0020F46
:1006200014D0002A0EDB17F0040F26D117F0080FA4
:1006300026D14FF0000E0BE0DFF82081E4E74FF009
:10064000200CEBE752424FF02D0E01E04FF0000E70
:10065000A2BB30238DF800300124B44230DC354693
:100660000C9A521B17F0110F36D1BEF1000F02D0B9
:10067000002A00DD013A134626E04FF02B0EE7E793
:100680004FF0200EE4E7334DA5FB0295ED08AA4696
:1006900005EB85054FEA4509A2EB0909524618F812
:1006A000099004AD254405F8109C0134002AD4D0EB
:1006B0000A2BE8D002F00F091209F0E70024F5E751
:1006C0002546CDE7013013465A1E002B04DD884233
:1006D000F8D220230370F5E7BEF1000F05D0884261
:1006E00001D280F800E0013A013017F0100F03D07A
:1006F00013460BE001301A46531E002A06DD8842DD
:10070000F8D280F800C0F5E7013015466A1EA54210
:1007100006DD8842F8D230250570F5E70130144631
:10072000621E002C0ADD4EB18842F7D204AC14449C
:1007300014F8104C0470F1E7013013465A1E002BD8
:1007400004DD8842F8D220230370F5E704B0BDE849
:10075000F08700BFCDCCCCCCD4260108F026010810
:1007600010B4032A21D9CCB210F0030F1FD144EAF0
:10077000042444EA0444034605E01C605C609C6079
:10078000DC60103A10330F2AF7D802E01C60043AFC
:100790000433032AFAD802E0197001332246541EAA
:1007A000002AF9D15DF8044B70470346F7E703468A
:1007B000F5E710B40F2A29D941EA000313F0030F1B
:1007C0000FD003461CE00C681C604C685C608C68B1
:1007D0009C60CC68DC60103A103110330F2AF2D8DC
:1007E00006E00346FAE70C681C60043A043104335F
:1007F000032AF8D804E00A781A702246013101333E
:10080000541E002AF7D15DF8044B70470346F7E702
:100810009AB130B4134604464D1C621C097821700D
:1008200039B114462946013BF6D104E0002111708C
:100830000132013BFAD130BC70477047034600E0FB
:1008400001331A78002AFBD1181A70472DE9F04FAE
:1008500087B0824604911446059310EB010803D338
:10086000C34304934FF0FF38574601E0013701348A
:100870002378002B00F06281252B03D04745F5D269
:100880003B70F3E7002502E045F010051446621CBA
:1008900063782D2BF8D02B2B08D0202B09D0232BBD
:1008A0000AD0302B0BD145F00105EFE745F00405E8
:1008B000ECE745F00805E9E745F02005E6E7A3F198
:1008C000300109291CD92A2B1CD04FF0FF36137890
:1008D0002E2B22D04FF0FF391178682948D06C298F
:1008E00046D01446002144E006EB86067300013230
:1008F0005E18303E1178A1F13003092BF4D9E6E7F8
:100900000026F7E7A21C059B191D05911E68002E05
:10091000DDDA764245F01005D9E7511C5378A3F192
:10092000300009281AD92A2B1BD00A464FF000099B
:10093000D2E709EB89094FEA4903013103EB0209C8
:10094000A9F130090A78A2F13003092BF1D90A463E
:10095000B9F1000FC0DA4FF00009BDE74FF0000910
:10096000F0E70232059B191D0591D3F80090EFE7DF
:10097000541C2378253B532B00F2AD80DFE803F0B5
:100980009BABABABABABABABABABABABABABABABC7
:10099000ABABABABABABABABABABABABABABABABA7
:1009A000ABABABABABABABABABABABABABABABAB97
:1009B000ABABABA3ABABABABABABABABABAB2AA714
:1009C000ABABABABA7ABABABABABA185ABAB49AB0D
:1009D000BAABABBC15F0100F09D0059B1A1D0592E0
:1009E0001B78474500D23B70013709E00137013ED3
:1009F000002EF2DD4745F9D220233B70F6E70137A0
:100A0000013E002E7FF733AF4745F8D220233B70DD
:100A1000F5E7059B1A1D0592D3F800B0BBF1000F56
:100A20000DD05846FFF70AFFB9F1000F02DD8145EE
:100A300000DA484615F0100F06D0002312E0DFF868
:100A40001CB1EEE701371E46731EB04204DA47457B
:100A5000F8D220223A70F5E71E46EEE701370BF197
:100A6000010B0133834207DA4745F7D29BF8002098
:100A70003A70F3E701371E46731EB042BFF6F7AE79
:100A80004745F7D220223A70F4E7B6F1FF3F0ED087
:100A9000059B1A1D05921A680295CDF804900096E0
:100AA000102341463846FFF7A5FD0746DFE645F02F
:100AB00001050826ECE7474501D225233B700137A5
:100AC000D5E6082319E045F04005102315E045F070
:100AD00002050A2311E0474501D225233B707A1C09
:100AE000237823B1424500D27B700237BFE6013C38
:100AF0001746BCE60A2300E010236C290FD06829B2
:100B000012D0059A111D059112680295CDF8049036
:100B1000009641463846FFF76DFD0746A7E6059A61
:100B2000111D05911268F0E7059A111D05911168D4
:100B30008AB215F0020FE8D00AB2E6E7049B23B1AF
:100B4000474507D3002308F8013CA7EB0A0007B08C
:100B5000BDE8F08F00233B70F7E700BFE8260108EF
:100B600008B513460A464FF0FF31FFF76FFE08BD88
:100B70000EB400B582B003AA52F8041B0192FFF72D
:100B8000EFFF02B05DF804EB03B070477047000060
:100B90000FB410B582B004AB53F8042B0193064C8C
:100BA0007F212046FFF752FE2046FFF7EFFF02B0FD
:100BB000BDE8104004B07047CC400020E8B110F010
:100BC000FF020AD110F47F4F0BD110F47F0F0ED12A
:100BD000030E0A4AD05C19307047084B985C01300C
:100BE0007047C0F30723054AD05C09307047C0F353
:100BF0000743024AD05C113070477047D425010882
:100C000008B5FEF7C1FA01460E48FEF711FA0122B7
:100C1000114640F20710FFF7CFF8FEF7B5FA01468C
:100C20000948FEF705FA41F28830FEF7A5FBFEF70A
:100C3000ABFA01460548FEF7FBF940F20710FFF753
:100C4000F3F8EAE7042701082827010858270108D4
:100C5000014B1868704700BF4C41002008B5094A95
:100C6000136801331360FEF78FFA836C013B8364D2
:100C700013B1FEF7D3FC08BD436C8364FEF702FB9F
:100C8000F7E700BF4C41002000230C4A138006E028
:100C90000B4901EBC302526041F8332001331F2B93
:100CA000F6DD084B1F221A700023074A1360074A1B
:100CB0001360074B5B601B60704700BF5041002012
:100CC0005C7B00205C7C0020607C0020647C002039
:100CD000687C002008B5084B1868FFF76FFF0138E3
:100CE000064B53F83000A0F11402054B1A6008308F
:100CF000FCF7F3FD08BD00BF647C00205C7B002096
:100D0000607C002038B5FCF79BFD0446154BB3F919
:100D10000030CBB9144B1868FFF750FF0138134B64
:100D200053F83010A1F11402114B1B6893420BD001
:100D3000104D28700E4802600F4A127842B10831F7
:100D400003F11C00FCF783FD2046FCF77DFD38BD58
:100D5000083103F11C00FCF77AFD2046FCF774FD16
:100D6000F5E700BF50410020647C00205C7B002040
:100D7000607C00205C7C0020747C002010B5044660
:100D8000FCF75EFD94F9343023F00F0343F00103C8
:100D900084F8343094F83520094B03EBC20304F196
:100DA000140259680A605968A1615A606361A16BB5
:100DB000044A13680B431360FCF746FD10BD00BFE7
:100DC0005C7B0020647C002010B50446FCF738FDF5
:100DD00004F114036269A1695160A269616911603B
:100DE000A361636194F83520084B03EBC20153F80B
:100DF0003230994202D0FCF727FD10BDA16B044AA6
:100E0000136823EA01031360F5E700BF5C7B002051
:100E1000647C002008B5FCF713FD034A13880133F6
:100E20001380FCF711FD08BD5041002008B5FCF708
:100E300007FD0B4A1388013B1BB21380002B02DD18
:100E4000FCF702FD08BD134600221A80FCF7FCFCEB
:100E5000044B1B68002BF5D0FFF754FFF2E700BFEF
:100E600050410020607C002008B5FEF78DF9014656
:100E70000E48FEF7DDF8012211464FF48470FEF7AC
:100E80009BFFFEF781F901460948FEF7D1F842F2CF
:100E90001070FEF771FAFEF777F901460548FEF784
:100EA000C7F84FF48470FEF7BFFFEAE79427010804
:100EB000B8270108E82701080138B0F1807F0DD27A
:100EC000074B186003F60F53FF221A700020A3F699
:100ED0000B531860083B07221A60704701207047C7
:100EE00014E000E00048704754410020004870477B
:100EF0005471002010B5FEF7EDFB0A4B18680A4B41
:100F0000A3FB00308009FFF7D7FFFDF759FBFFF780
:100F1000E9FF0446FFF7EAFF0146204600F03AFDEC
:100F200010BD00BF00400020D34D621008B500F096
:100F300053FEFFF793FE00F05DFE08BD08B5FEF717
:100F400023F901460E48FEF773F80122114640F2DC
:100F50000910FEF731FFFEF717F901460948FEF7C1
:100F600067F844F62060FEF707FAFEF70DF9014630
:100F70000548FEF75DF840F20910FEF755FFEAE775
:100F800024280108442801087428010810B52149C3
:100F9000022000F07BF90122114640F20910FEF711
:100FA0000BFF012211464FF48470FEF705FF01226A
:100FB000114640F20710FEF7FFFE15E0164C4FF009
:100FC000FF312068FEF775FF2368998B1348FEF701
:100FD0002FF841F28830FEF7CFF92068FEF7CFFFF7
:100FE0000F49022000F052F94FF47A70FEF7C4F96D
:100FF000094B1B689C8B21460A48FEF719F80A49E1
:10100000022000F043F9002CD8D10849022000F05A
:101010003DF9D3E7B028010818730020E82801083B
:1010200004290108DC240108C4280108D428010887
:1010300000B5ADF6040D18217F20FEF7BEFD20BBE4
:101040004FF4006214496846FEF7B3FD379A134B1C
:101050001B689A420BD01A20FEF776FD0F4B1B68D7
:1010600037936A464FF400610B48FEF765FE0C4B60
:10107000094A9A600B4BA2F560521A600A48FDF7C4
:10108000C3FF0DF6040D5DF804FB084A182108485B
:10109000FEF752FED4E700BF00D00008DC000008D5
:1010A00000ED00E0707C00203429010818290108B7
:1010B00000F803080138C0B2022801D801207047A7
:1010C0000020704738B504460D46FFF7F3FF0028AF
:1010D0003CD0022C57D0032C71D0012C37D0601E8D
:1010E000474B53F820100A6822F001020A6053F8B7
:1010F00020100A6822F00C020A6053F820301A68A7
:1011000012F4004F76D03F4A1168B1FBF5F189B275
:10111000490089B2D9603A4B53F820200021D161AF
:10112000516821F49041516053F820108A6822F0F0
:101130002A028A6053F820100A6842F00C020A6002
:1011400053F82020136843F00103136038BD2E4B81
:101150001A6E42F480421A66DA6C42F00102DA64D6
:101160004FF090431A6822F470121A601A6842F421
:1011700020121A605A6A22F47F625A625A6A42F452
:10118000EE625A62ABE7204B9A6D42F400329A65E8
:10119000DA6C42F00102DA644FF090431A6822F0F0
:1011A000F0021A601A6842F0A0021A601A6A22F469
:1011B0007F421A621A6A42F4EE421A628FE7124BB9
:1011C0009A6D42F480229A65DA6C42F00402DA6485
:1011D0000E4B1A6822F470021A601A6842F4200258
:1011E0001A605A6A22F47F425A625A6A42F4EE4204
:1011F0005A6274E7034A1168B1FBF5F189B289E7D5
:101200008C400020004000200010024000080048F0
:1012100038B504460D46FFF74DFF0346A8B100223E
:101220004FF6BA339A420BD8631E0A4951F823305D
:10123000D96911F0800F01D10132F1E7ADB21D85FE
:101240004FF6BA339A4202D80123184638BD00231C
:10125000FBE700BF8C400020F8B506460D46174658
:10126000FFF728FF034668B10024AC4207D2395D7E
:101270003046FFF7CDFF10B10134A4B2F5E7AC4220
:1012800002D301231846F8BD0023FBE770B50646DC
:101290000D46FFF70FFF034658B10024295D39B111
:1012A0003046FFF7B5FF034618B10134A4B2F5E7A5
:1012B0000123184670BD30B5ADF2044D05460C460D
:1012C0004FF480620021684600F0E3FFA5238DF80B
:1012D00000305A238DF8013003238DF80230822329
:1012E0008DF8033001238DF804302046FCF744FBD1
:1012F00003308DF802002146684600F0D2FF2846F0
:10130000FFF7D8FE034660B100241DF8041039B180
:101310002846FFF77DFF034618B10134A4B2F4E775
:10132000012318460DF2044D30BD000070B504468F
:101330000D46FFF7BFFE064670B100224FF6BA33E6
:101340009A4211D8631E0C4951F82330D96911F023
:10135000200F05D10132F1E700232B70304670BD1C
:101360009E8CF6B201232B704FF6BA339A42F5D910
:1013700000232B70FF26F1E78C40002010B50446B7
:10138000FFF798FE98B1601E094B53F820201368B0
:1013900043F020031360074B1B56002B07DB03F0C1
:1013A0001F015B0901228A40034941F8232010BD37
:1013B0008C4000209840002000E100E010B5044679
:1013C000FFF778FE034670B1013C094B53F8243017
:1013D000DA6912F0200F05D01B6813F0200F04D13A
:1013E000002300E00023184610BD0123FBE700BFE7
:1013F0008C4000201F4B1A689A4239D070B5FCF718
:101400001FFA06461B4B1A689A422ED01C68A4F19C
:101410001405236862685A60636822681A60646011
:101420002460FFF7F7FC636E0BB128469847284607
:10143000FEF7F7FA01280FD0FFF7F8FC3046FCF76B
:1014400003FA606900F074FB2846FEF7D4FA094BF2
:101450001A689A42D3D10AE02846FEF791FAFFF7BC
:10146000E5FC3046FCF7F0F901E0FCF7EDF970BD62
:10147000704700BF687C002008B5FFF7BBFFFCE7A2
:1014800010B584B00A4C202303931F2302934FF41A
:1014900080730193074B00930023074A07492046B6
:1014A000FDF757FE2046FDF78FFF04B010BD00BFCB
:1014B00054710020D47100207914010860290108BA
:1014C00070B582B072B67048FDF79EFD01221146DC
:1014D0004FF48470FEF770FC0122114640F20910AF
:1014E000FEF76AFC0122114640F20710FEF764FC89
:1014F0004FF4E1310220FFF7E5FD0220FFF73EFF48
:1015000062B66248FDF780FD6148FDF77DFD6148E8
:10151000FDF77AFD6048FDF777FD6048FDF774FD43
:101520005F48FDF771FD01215E48FEF72FFE5E4B1F
:1015300018600023042209215C48FEF735FF5C4B4C
:101540001860002202215B48FEF7A2FC5A4B18608B
:1015500001215A48FEF72FFD594B18600A240194C7
:10156000092300934FF40073002256495648FDF7B3
:101570003DFE0646019400944FF400730022534947
:101580005348FDF733FE534B1860534D01940094BC
:101590004FF40073002229685048FDF727FE2860A9
:1015A000019400944FF4007300224D494D48FDF71B
:1015B0001DFE4D4B1860019400944FF400730022FF
:1015C0004A494B48FDF712FE4A4B186001940094BB
:1015D0004FF40073002248494848FDF707FE484B86
:1015E0001860019400944FF4007300224549464866
:1015F000FDF7FCFD454B1860019400944FF4007317
:10160000002243494348FDF7F1FD434B1860019424
:1016100000944FF40073002240494148FDF7E6FD75
:10162000404B1860019400944FF4007300223E492F
:101630003E48FDF7DBFD3E4B1860019400944FF4EB
:10164000007300223B493C48FDF7D0FD3B4B18603E
:10165000019400944FF40073002239493948FDF792
:10166000C5FD394B1860019400944FF400730022BB
:1016700036493748FDF7BAFD364B18603046FDF75E
:10168000A3FE02B070BD00BF682901089C290108B3
:10169000D0290108182A01084C2A01087C2A0108CF
:1016A000C82A0108D82A010848730020E42A010842
:1016B0003C730020E82A010818730020EC2A010876
:1016C00034730020691C0108F42A0108DDE50008D4
:1016D000002B01082C730020507300200C2B0108F4
:1016E00071180108182B0108387300208D0F0108AC
:1016F000242B01082473002099F80008302B0108DE
:10170000407300209DFA00083C2B01085473002010
:1017100081210108482B0108587B0020111C010879
:10172000542B01081C73002019180108602B0108B4
:1017300030730020010C01086C2B01082873002075
:10174000690E0108782B0108447300203D0F010841
:10175000842B010820730020174B1B88012B12D00B
:10176000022B19D010B45A1C92B2134C2280013BA8
:10177000C854042A13D08B7804339A4213D0002023
:101780005DF8044B7047A528EAD001230A4A13806C
:101790000A4A1380002070475A28F6D1E2E7887879
:1017A000064B1880E7E70122034B1A80034B188889
:1017B000033080B21A80E3E79C4000209E40002066
:1017C00000B583B072B60220FFF7F8FD18B962B613
:1017D00003B05DF804FB0DF107010220FFF7A6FD41
:1017E0009DF80730002BF2D00849FFF7B5FF084BF2
:1017F00018801B889BB2002BE9D00221054B18688A
:10180000FEF7D5FC024B00221A80E0E75873002057
:101810004C7300204873002008B50122114640F2A5
:101820000710FEF7C9FA0F490220FFF72FFD0E4CF3
:101830004FF0FF312068FEF7D4FB0C490220FFF780
:1018400025FD40F20710FEF7EFFA41F28830FDF770
:1018500093FD40F20710FEF7E7FA2068FEF74DFC13
:10186000E5E700BF902B010834730020A82B010886
:1018700010B582B02648FDF7C7FB0122114640F2A1
:101880000910FEF799FA012211464FF48470FEF711
:1018900093FA0122114640F20710FEF78DFA4FF03D
:1018A000FF33082269461B480068FEF7F7FDC0B207
:1018B0000028F4D1012000F0ADF80446154B1B6858
:1018C0009A8C1549FFF754F914490220FFF7DEFC02
:1018D00021460220FFF7DAFC114C21460220FFF7D7
:1018E000D5FC10490220FFF7D1FC6A4608210220EE
:1018F000FFF7B2FC21460220FFF7C8FC4FF47A70D4
:10190000FDF73AFD08490220FFF7D5FCC7E700BF05
:10191000D42B01083C730020F02B0108F42B0108A4
:1019200040280108082C0108182C0108164B1968DA
:1019300042680A4490420FD053886BB9134B1B681E
:10194000934209D0124B1B68934216D053684360F0
:1019500053680B44421A9A6083680B4498420BD038
:101960005A884AB90A4A1268824209D042685A60C3
:1019700042680A445B1A93607047054B1860E5E7BC
:10198000034A1360F2E700BFD8720020D47200202F
:10199000FC72002070B521F00303182B06D9C41C7B
:1019A00024F00304A3F11802A24205D20A4601461C
:1019B0001148FFF7EDF870BD1B1BA3F118010F4A8A
:1019C00011600F4D2C604FF4F5522280A3F10C01F1
:1019D00061600023A360638060180A4E3060625229
:1019E000012242804160816007490848FEF740FAC1
:1019F0002A68074B1A60DEE7902C01080473002068
:101A0000D8720020D4720020882C0108DC720020DB
:101A1000FC720020002879D0F8B50546033525F082
:101A200003053C4B1B689D4272D80B2D00D80C253A
:101A30004FF0FF313848FEF73CFA384B1E68384B00
:101A40001B689B1B1FE001236380A31BC31A354A3D
:101A5000106803441360344A1268934244D9324AEE
:101A6000136041E05A682D4B1B6813442C4A1360E5
:101A70002B4B1B685A88002A3DD02C4A126893428F
:101A8000F0D138E06368234A1268511B994238D973
:101A9000F41861880029F5D16068C11A0C39A9428F
:101AA000F0D305F11807B942CDD3E9180C317018FD
:101AB0004FF4F55777520027478067684760836087
:101AC00061600123638043680C32934201D0334448
:101AD0009960144B1A6815440C351D60124B1B6835
:101AE0009D4201D9104B1D604FF4F55323800C4BE0
:101AF0001B68A342BCD00848FEF741FA04F10C0071
:101B000003E00548FEF73BFA0020F8BD00207047CF
:101B10000020FAE704730020DC720020D872002055
:101B2000FC7200200873002000730020D472002093
:101B3000002842D038B50446204A1268824203D8B1
:101B40001F4A1268824200D838BDA0F10C054FF040
:101B5000FF311C48FEF7ADF934F80A3C23B134F8E4
:101B60000C3CB3F5F55F0AD01748FFF711F834F8CD
:101B70000C3C34F80A2C29461448FFF709F80023D6
:101B800024F80A3C4FF4F55324F80C3C104B1B6826
:101B9000AB4201D90E4B1D60084B1B68EB1A54F881
:101BA000082C9B1A0B490A6813440B602846FFF760
:101BB000BDFE0448FEF7E3F9C6E77047D87200207F
:101BC000D4720020DC7200203C2C0108582C010843
:101BD000FC7200200873002008B5FBF731FE044AB0
:101BE00013780133DBB21370FBF72EFE08BD00BF84
:101BF000747C002008B5FBF723FE044A1378013BF0
:101C0000DBB21370FBF720FE08BD00BF747C002020
:101C100008B5012211464FF48470FEF7CDF80F4944
:101C20000220FFF733FB0E4C4FF0FF312068FEF728
:101C3000D8F90C490220FFF729FB4FF48470FEF716
:101C4000F3F842F21070FDF797FB4FF48470FEF743
:101C5000EBF82068FEF751FAE5E700BFCC2C01084D
:101C600034730020E42C010800B587B09AE19D4947
:101C70000220FFF70BFBB0E19B4B1868FDF7E0FA81
:101C80009A4B1868FDF7DCFA994B1868FDF7D8FAFB
:101C9000984B1868FDF7D4FA974B1868FDF7D0FAFF
:101CA000964B1868FDF7CCFA954B1868FDF7C8FA03
:101CB000944B1868FDF7C4FA934B1868FDF7C0FA07
:101CC000924B1868FDF7BCFA914B1868FDF7B8FA0B
:101CD000904B1868FDF7B4FA85E18F4B1B7ADBB2A5
:101CE000012B23D08C4B1B7A002B40F082818B4937
:101CF0000220FFF7CBFA7C4B1868FDF74BFA7B4BC1
:101D00001868FDF747FA0122114640F20910FEF764
:101D100053F8012211464FF48470FEF74DF801226A
:101D2000114640F20710FEF747F862E1704B186861
:101D3000FDF730FA6F4B1868FDF72CFA6E4B1868F8
:101D4000FDF728FA6D4B1868FDF724FA6C4B1868FC
:101D5000FDF720FA6B4B1868FDF71CFA6A4B186800
:101D6000FDF718FA694B1868FDF714FA684B186804
:101D7000FDF710FA674B1868FDF70CFA5A4B186814
:101D8000FDF722FB594B1868FDF71EFB0821644B39
:101D90001868FEF70CFAA5E7534B1868FDF7FAF937
:101DA000524B1868FDF7F6F9524B1868FDF7F2F937
:101DB000514B1868FDF7EEF9504B1868FDF7EAF93A
:101DC0004F4B1868FDF7E6F94E4B1868FDF7E2F93E
:101DD0004D4B1868FDF7DEF94C4B1868FDF7DAF942
:101DE0004B4B1868FDF7D6F94A4B1868FDF7D2F946
:101DF0003F4B1868FDF7E8FA0023072B09DC03F1D5
:101E000009024549895C06AA1A4402F8101C0133EC
:101E1000F3E7092202A9434B1868FEF7FEFAEEE049
:101E20003D4B1B7ADBB2012B27D03B4B1B7A002B9F
:101E300040F0EB803C490220FFF728FA2D4B186850
:101E4000FDF7A8F92C4B1868FDF7A4F92B4B18687F
:101E5000FDF7A0F90122114640F20910FDF7ACFF91
:101E6000012211464FF48470FDF7A6FF01221146AE
:101E700040F20710FDF7A0FFC7E02C490220FFF752
:101E800005FA194B1868FDF785F9184B1868FDF726
:101E900081F9174B1868FDF77DF9194B1868FDF7A4
:101EA00079F9184B1868FDF775F9174B1868FDF7A5
:101EB00071F9164B1868FDF76DF9154B1868FDF7A9
:101EC00069F9144B1868FDF765F90A4B1868FDF7B6
:101ED0007BFA094B1868FDF777FA084B1868FDF78D
:101EE00073FAA2E7402D0108507300202C730020E4
:101EF00038730020247300204073002054730020A6
:101F0000307300201C730020587B002020730020B9
:101F1000447300202873002058730020502D0108BE
:101F2000487300203C730020AC2D01087C2D010873
:101F30007F490220FFF7AAF97E4B1868FDF72AF9BE
:101F40007D4B1868FDF726F97C4B1868FDF722F9E0
:101F50007B4B1868FDF71EF97A4B1868FDF71AF9E4
:101F6000794B1868FDF716F9784B1868FDF712F9E8
:101F7000774B1868FDF70EF9764B1868FDF70AF9EC
:101F8000754B1868FDF720FA744B1868FDF71CFABA
:101F9000734B1868FDF718FA41E0724BDB79DBB23E
:101FA000942B63D070490220FFF770F96F4B1868CB
:101FB00005AB00934FF0FF3306220221FEF743F9F1
:101FC0006B490220FFF762F9059B022BEAD1654BB2
:101FD000DB78DBB2662B3FF44AAE624BDB78DBB2D8
:101FE000772B3FF449AE5F4BDB79DBB2902B3FF4AC
:101FF00074AE5C4BDB79DBB2912B3FF4CDAE594B29
:10200000DB79DBB2922B3FF40BAF564BDB79DBB2C3
:10201000932BC2D1534B1B7ADBB2012B88D0514B8F
:102020001B7A002BB9D153490220FFF72FF94A4BF5
:102030001868FDF7AFF8494B1868FDF7ABF8484B47
:102040001868FDF7A7F80122114640F20910FDF7C4
:10205000B3FE012211464FF48470FDF7ADFE01225C
:10206000114640F20710FDF7A7FE96E73D4B1B7A9D
:10207000DBB2012B26D03B4B1B7A002B92D13E4981
:102080000220FFF703F9314B1868FDF783F8304B56
:102090001868FDF77FF82F4B1868FDF77BF80122D1
:1020A000114640F20910FDF787FE012211464FF458
:1020B0008470FDF781FE0122114640F20710FDF702
:1020C0007BFE6FE72D490220FFF7E0F8194B1868F7
:1020D000FDF760F8184B1868FDF75CF8174B1868A7
:1020E000FDF758F8164B1868FDF754F8154B1868AB
:1020F000FDF750F8144B1868FDF74CF8164B1868AC
:10210000FDF748F8154B1868FDF744F8144B1868AC
:10211000FDF740F80D4B1868FDF756F90C4B1868A1
:10212000FDF752F90B4B1868FDF74EF9A3E700BF16
:10213000DC2D0108507300202C7300203873002020
:10214000247300204073002054730020207300206B
:102150004473002028730020307300201C7300207B
:10216000587B002058730020102D01084873002070
:10217000302D0108042E0108542E01082C2E0108D0
:1021800008B50122114640F20910FDF715FE0F496E
:102190000220FFF77BF80E4C4FF0FF312068FDF76F
:1021A00020FF0C490220FFF771F840F20910FDF7FB
:1021B0003BFE44F62060FDF7DFF840F20910FDF722
:1021C00033FE2068FDF799FFE5E700BF7C2E01088C
:1021D00034730020942E0108DFF838D0002103E08A
:1021E0000D4B5B58435004310C480D4B42189A423A
:1021F000F6D30C4A02E0002342F8043B0A4B9A4211
:10220000F9D3FDF721FBFEF713FF00F013F8FDF7FC
:1022100011FCFEE7FFFF0020E02E01080040002037
:10222000A0400020A0400020787C002000B500BF26
:1022300000BD000070B50D4E0D4CA41BA410002570
:10224000A54209D10B4E0C4C00F03AF8A41BA41087
:102250000025A54205D170BD56F8253098470135B7
:10226000EEE756F8253098470135F2E7D02E010801
:10227000D02E0108D02E0108D42E010810B5431E1F
:102280000A44914200D110BD11F8014B03F8014FEF
:10229000F7E702440346934200D1704703F8011B5D
:1022A000F9E710B503461A785C1C3AB9013B11F8FE
:1022B000012B03F8012F002AF9D110BD2346F2E7C4
:1022C000F8B500BFF8BC08BC9E467047F8B500BF23
:0822D000F8BC08BC9E467047F3
:1022D800B5DAD2BBB4CEBDF8C8EBC2CCB5C6CFDF39
:1022E800B3CC210D0A000000D4DAC2CCB5C6CFDFCA
:1022F800B3CCD6D0A3ACB5C8B4FDC2CCB5C6CAC29F
:10230800BCFEB1BBB4A5B7A20D0A0000D4DAC2CC9A
:10231800B5C6CFDFB3CCD6D0A3ACCAD5B5BDC2CC79
:10232800B5C6CAC2BCFEA3ACC2CCB5C6B7B4D7AAA0
:102338000D0A00007073723A203078253038780A18
:10234800000000007230303A203078253038780AA2
:10235800000000007230313A203078253038780A91
:10236800000000007230323A203078253038780A80
:10237800000000007230333A203078253038780A6F
:10238800000000007230343A203078253038780A5E
:10239800000000007230353A203078253038780A4D
:1023A800000000007230363A203078253038780A3C
:1023B800000000007230373A203078253038780A2B
:1023C800000000007230383A203078253038780A1A
:1023D800000000007230393A203078253038780A09
:1023E800000000007231303A203078253038780A01
:1023F800000000007231313A203078253038780AF0
:10240800000000007231323A203078253038780ADE
:1024180000000000206C723A203078253038780AA5
:10242800000000002070633A203078253038780AA0
:102438000000000068617264206661756C74206F2A
:102448006E207468726561643A2025730D0A0D0A5E
:102458000000000068617264206661756C74206F0A
:102468006E2068616E646C65720D0A0D0A000000CA
:1024780046505520616374697665210D0A00000095
:10248800000000000000000001020304060708091C
:10249800A0860100400D0300801A060000350C00DC
:1024A80040420F0080841E0000093D0000127A009F
:1024B8000024F40000366E010048E801006CDC02DC
:1024C800B5DAD2BBB4CEBDF8C8EBCFDFB3CC32A3FC
:1024D800A10A0000B5B1C7B05350CEAA25640A00BE
:1024E800CFDFB3CC32C7EBC7F331B8F653500A008D
:1024F8005350B8F6CAFDCEAA30A3ACCFDFB3CC3266
:10250800B5C8B4FD0A000000CFDFB3CC32BBF1C8B8
:10251800A131B8F65350A3AC5350BBB9CAA3256434
:102528000A000000CFDFB3CC32B3C9B9A6CACDB711
:10253800C531B8F653500A006D61696E000000009D
:10254800B5DAD2BBB4CEBDF8C8EBCFDFB3CC33A37A
:10255800A10A0000B5B1C7B05350B8F6CAFDCEAA5B
:1025680025640A00CFDFB3CC33C7EBC7F331B8F625
:1025780053500A005350B8F6CAFDCEAA30A3ACCFC8
:10258800DFB3CC33B5C8B4FD0A000000CFDFB3CC4D
:1025980033BBF1C8A131B8F65350A3AC5350BBB903
:1025A800CAA325640A000000D7AABBBBBAECB5C60B
:1025B800D7B4CCAC0A000000CFDFB3CC33B3C9B971
:1025C800A6CACDB7C531B8F653500A0000000100BD
:1025D80002000100030001000200010004000100E4
:1025E80002000100030001000200010005000100D3
:1025F80002000100030001000200010004000100C4
:1026080002000100030001000200010006000100B1
:1026180002000100030001000200010004000100A3
:102628000200010003000100020001000500010092
:102638000200010003000100020001000400010083
:102648000200010003000100020001000700010070
:102658000200010003000100020001000400010063
:102668000200010003000100020001000500010052
:102678000200010003000100020001000400010043
:102688000200010003000100020001000600010031
:102698000200010003000100020001000400010023
:1026A8000200010003000100020001000500010012
:1026B8000200010003000100020001000400010003
:1026C8000200010003000100020001003031323332
:1026D8003435363738394142434445460000000016
:1026E800284E554C4C2900003031323334353637BA
:1026F8003839616263646566000000002D2D2D2D58
:102708002D2DB5DAD2BBB4CEBDF8C8EBBAECB5C640
:10271800CFDFB3CCA3BA2578A3AC0D0A0000000024
:10272800332D312EB5B1C7B0D4CBD0D0B5C4CFDF9F
:10273800B3CC3D2578A3ACBAECB5C6D1D3CAB13574
:10274800C3EBA3A8BFAACABCA3A9A3BB0D0A0000D8
:10275800332D322EB5B1C7B0D4CBD0D0B5C4CFDF6E
:10276800B3CC3D2578A3ACBAECB5C6D1D3CAB13544
:10277800C3EBA3A8BDE1CAF8A3A9A3ACBAECB5C63C
:10278800B7B4D7AAA1A30D0A000000002D2D2D2D46
:102798002D2DB5DAD2BBB4CEBDF8C8EBC2CCB5C6C8
:1027A800CFDFB3CCA3BA2578A1A30D0A000000009F
:1027B800322D312EB5B1C7B0D4CBD0D0B5C4CFDF10
:1027C800B3CC3D2578A3ACC2CCB5C6D1D3CAB13100
:1027D80030C3EBA3A8BFAACABCA3A9A3BB0D0A0018
:1027E800322D322EB5B1C7B0D4CBD0D0B5C4CFDFDF
:1027F800B3CC3D2578A3ACC2CCB5C6D1D3CAB131D0
:1028080030C3EBA3A8BDE1CAF8A3A9A3ACC2CCB559
:10281800C6B7B4D7AAA1A30D0A0000002D2D2D2DEF
:102828002D2DB5DAD2BBB4CEBDF8C8EBC0B6B5C64F
:10283800CFDFB3CCA3BA25780D0A0000312D312E95
:10284800B5B1C7B0D4CBD0D0B5C4CFDFB3CC3D255C
:1028580078A3ACC0B6B5C6D1D3CAB13230C3EBA3E6
:10286800A8BFAACABCA3A9A3BB0D0A00312D322E4A
:10287800B5B1C7B0D4CBD0D0B5C4CFDFB3CC3D252C
:1028880078A3ACC0B6B5C6D1D3CAB13230C3EBA3B6
:10289800A8BDE1CAF8A3A9A3ACC0B6B5C6B7B4D75A
:1028A800AAA1A30D0A000000B5DAD2BBB4CEBDF8C8
:1028B800C8EBCFDFB3CC31A3A10A0000CFDFB3CC84
:1028C80031C7EBC7F331B8F653500A005350CEAABC
:1028D80030A3ACCFDFB3CC31B5C8B4FD0A000000DB
:1028E800CFDFB3CC31BBF1C8A131B8F65350A3AC9C
:1028F8005350BBB9CAA325640A000000CFDFB3CC8C
:1029080031B3C9B9A6CACDB7C531B8F653500A0014
:10291800303132333435363738394142434445460D
:102928003230323030373136000000002020A1BE6E
:1029380055736572CCE1CABEA1BFA3BABDABBDF8E1
:10294800C8EB55736572B5C46D61696E2829D6B434
:10295800D0D02E2E2E0D0A007469646C650000001C
:102968002020B5F7D3C36770696F5F696E6974BA61
:10297800AFCAFDA3ACB7D6B1F0B3F5CABCBBAFBA0A
:10298800ECB5C6A1A2C2CCB5C6A1A2C0B6B5C60D4B
:102998000A000000A1BEBDF0BAF9C2ABCCE1CABEC4
:1029A800A1BFB1BEB3CCD0F2CEAAB4F852542D54C4
:1029B8006872656164B5C453544D3332D3C3BBA741
:1029C800B3CCD0F20D0A0000A1BEBBF9B1BEB9A6C6
:1029D800C4DCA1BFA2D9D4DA2052542D5468726540
:1029E8006164C6F4B6AFBAF3B4B4BDA8C1CBBAEC4F
:1029F800B5C6A1A2C2CCB5C6BACDC0B6B5C6C8FDCB
:102A0800B8F6D3C3BBA7CFDFB3CC0D0A00000000D4
:102A1800092020202020202020A2DACAB5CFD6C045
:102A2800B6B5C6C3BF3130C3EBC9C1CBB8D2BBB48E
:102A3800CE2CB2A2C9E8D6C3CAC2BCFED7D60D0AEC
:102A480000000000092020202020202020A2DBC236
:102A5800CCB5C6CFDFB3CCB5C8B4FDB5BDCAC2BC12
:102A6800FED7D6A3ACD7AABBBBC2CCB5C6D7B4CC0D
:102A7800AC0D0A00A1BEB2D9D7F7B7BDB7A8A1BFA0
:102A8800C1ACBDD3B4AEBFDA55736572A3ACD1A1E6
:102A9800D4F1B2A8CCD8C2CACEAA3131353230303E
:102AA800A3ACB4F2BFAAB4AEBFDAA3ACB2E9BFB468
:102AB800CAE4B3F6BDE1B9FB2E2E2E0D0D0A0A00AD
:102AC800302D312E4D4355C6F4B6AF0A0000000034
:102AD8004576656E74576F72640000006D71000072
:102AE800535000006D7574657800000072756C6550
:102AF80063686F6F736500006576656E744772650D
:102B0800656E00006576656E74426C756500000040
:102B18006D657373616765726563760053505468B9
:102B280072656164310000005350546872656164D5
:102B3800320000005350546872656164330000002D
:102B48006D75746578426C75650000006D75746507
:102B580078477265656E00006D75746578526564B6
:102B68000000000064656C61795265640000000033
:102B780064656C6179477265656E000064656C61B7
:102B880079426C7565000000B5DAD2BBB4CEBDF8E9
:102B9800C8EBBAECB5C6CFDFB3CCA3A10D0A0000D1
:102BA8000D0ACBF8B6A8B5A5C9ABBBA5B3E2C1BFA2
:102BB800B3C9B9A6A3A1BAECB5C6B7B4D7AAA3AC92
:102BC800D1D3CAB135C3EB0D0A000000B5DAD2BBC8
:102BD800B4CEBDF8C8EBCFFBCFA2BDD3CAD5CFDFEB
:102BE800B3CC210D0A00000025640000CFFBCFA262
:102BF800B6D3C1D0D6D0CFFBCFA2CAFD3D000000CE
:102C0800B5B1C7B0C8A1B3F6B5C4CFFBCFA23D00DC
:102C1800CFFBCFA2CFFBCFA2CFFBCFA2CFFBCFA2C0
:102C2800CFFBCFA2CFFBCFA2CFFBCFA2CFFBCFA2B0
:102C380000000000746F2066726565206120626183
:102C480064206461746120626C6F636B3A0A0000EF
:102C58006D656D3A203078253038782C207573658D
:102C68006420666C61673A2025642C206D61676971
:102C78006320636F64653A203078253034780A0021
:102C880068656170000000006D656D20696E69748B
:102C98002C206572726F7220626567696E206164AC
:102CA800647265737320307825782C20616E6420F7
:102CB800656E64206164647265737320307825786A
:102CC8000A000000B5DAD2BBB4CEBDF8C8EBC2CC5E
:102CD800B5C6CFDFB3CCA3A10D0A00000D0ACBF80F
:102CE800B6A8B5A5C9ABBBA5B3E2C1BFB3C9B9A660
:102CF800A3A1C2CCB5C6B7B4D7AAA3ACD1D3CAB125
:102D08003130C3EB0D0A0000BDF8C8EBC3FCC1EEBF
:102D1800D1A1D4F1CFDFB3CCA3ACB5C8B4FDCAC23E
:102D2800BCFED0C5BAC50A00BDD3CAD5B5BDCAC296
:102D3800BCFED0C5BAC50A00492063616E20736520
:102D48006520796F75000000BDD3CAD5B5BDCAC26C
:102D5800BCFEB9A6C4DCBDE1CAF8C3FCC1EEA3AC95
:102D6800CAC2BCFEB9A6C4DCC4A3BFE9BDE1CAF8A7
:102D780000000000BDD3CAD5B5BDD0C5BAC5C1BF16
:102D8800B9A6C4DCBFAAC6F4C3FCC1EEA3ACD0C5C7
:102D9800BAC5C1BFB9A6C4DCC4A3BFE9BFAAC6F4FB
:102DA8000A000000BDD3CAD5B5BDD0C5BAC5C1BFDC
:102DB800B9A6C4DCBDE1CAF8C3FCC1EEA3ACD0C55A
:102DC800BAC5C1BFB9A6C4DCC4A3BFE9BDE1CAF88E
:102DD80000000000BDD3CAD5B5BDBBA5B3E2C1BFD5
:102DE800B9A6C4DCBFAAC6F4C3FCC1EEA3ACB9A69D
:102DF800C4DCC4A3BFE9BFAAC6F40A00BDD3CAD5C0
:102E0800B5BDBBA5B3E2C1BFB9A6C4DCB9D8B1D5BD
:102E1800C3FCC1EEA3ACB9A6C4DCC4A3BFE9B9D84E
:102E2800B1D50A00BDD3CAD5B5BDD1D3CAB1B9A6EB
:102E3800C4DCBFAAC6F4C3FCC1EEA3ACB9A6C4DC0B
:102E4800C4A3BFE9BFAAC6F40A000000BDD3CAD50F
:102E5800B5BDD1D3CAB1B9A6C4DCB9D8B1D5C3FC04
:102E6800C1EEA3ACB9A6C4DCC4A3BFE9B9D8B1D537
:102E78000A000000B5DAD2BBB4CEBDF8C8EBC0B6C4
:102E8800B5C6CFDFB3CCA3A10D0A00000D0ACBF85D
:102E9800B6A8B5A5C9ABBBA5B3E2C1BFB3C9B9A6AE
:102EA800A3A1C0B6B5C6B7B4D7AAA3ACD1D3CAB18B
:082EB8003230C3EB0D0A0000EB
:042EC000B9E5000868
:042EC400BDE5000860
:082EC80020B4FF7F01000000AF
:082ED00025D8000800000000F5
:082ED80001D800080000000011
:102EE000006CDC02010000000840002008400020C7
:102EF0008000000002000000184000201840002060
:102F0000200000000300000028400020284000208E
:102F10002400000004000000384000203840002059
:102F2000200000000500000048400020484000202C
:102F300030000000060000005840002058400020EB
:102F4000340000000A0000006840002068400020B3
:102F50002C00000000000048000400480008004861
:102F6000000C004800100048001C004800380140D8
:102F700000440040004800402526270001000100D1
:040000050800D80017
:00000001FF
